{"abi":[{"type":"constructor","inputs":[{"name":"initialOwner","type":"address","internalType":"address"},{"name":"_oracle","type":"address","internalType":"address"},{"name":"_sccUsdToken","type":"address","internalType":"address"}],"stateMutability":"nonpayable"},{"type":"function","name":"DEBT_DUST","inputs":[],"outputs":[{"name":"","type":"uint256","internalType":"uint256"}],"stateMutability":"view"},{"type":"function","name":"PRICE_DECAY_HALFLIFE","inputs":[],"outputs":[{"name":"","type":"uint256","internalType":"uint256"}],"stateMutability":"view"},{"type":"function","name":"START_PRICE_MULTIPLIER","inputs":[],"outputs":[{"name":"","type":"uint256","internalType":"uint256"}],"stateMutability":"view"},{"type":"function","name":"auctionIdCounter","inputs":[],"outputs":[{"name":"","type":"uint256","internalType":"uint256"}],"stateMutability":"view"},{"type":"function","name":"auctions","inputs":[{"name":"","type":"uint256","internalType":"uint256"}],"outputs":[{"name":"collateralAmount","type":"uint256","internalType":"uint256"},{"name":"debtToCover","type":"uint256","internalType":"uint256"},{"name":"vaultAddress","type":"address","internalType":"address"},{"name":"startTime","type":"uint96","internalType":"uint96"},{"name":"startPrice","type":"uint256","internalType":"uint256"}],"stateMutability":"view"},{"type":"function","name":"buy","inputs":[{"name":"_auctionId","type":"uint256","internalType":"uint256"},{"name":"_collateralToBuy","type":"uint256","internalType":"uint256"}],"outputs":[],"stateMutability":"nonpayable"},{"type":"function","name":"getCurrentPrice","inputs":[{"name":"_auctionId","type":"uint256","internalType":"uint256"}],"outputs":[{"name":"","type":"uint256","internalType":"uint256"}],"stateMutability":"view"},{"type":"function","name":"oracle","inputs":[],"outputs":[{"name":"","type":"address","internalType":"contract OracleManager"}],"stateMutability":"view"},{"type":"function","name":"owner","inputs":[],"outputs":[{"name":"","type":"address","internalType":"address"}],"stateMutability":"view"},{"type":"function","name":"renounceOwnership","inputs":[],"outputs":[],"stateMutability":"nonpayable"},{"type":"function","name":"sccUsdToken","inputs":[],"outputs":[{"name":"","type":"address","internalType":"contract SCC_USD"}],"stateMutability":"view"},{"type":"function","name":"startAuction","inputs":[{"name":"_vaultAddress","type":"address","internalType":"address"}],"outputs":[],"stateMutability":"nonpayable"},{"type":"function","name":"transferOwnership","inputs":[{"name":"newOwner","type":"address","internalType":"address"}],"outputs":[],"stateMutability":"nonpayable"},{"type":"function","name":"vaultToAuctionId","inputs":[{"name":"","type":"address","internalType":"address"}],"outputs":[{"name":"","type":"uint256","internalType":"uint256"}],"stateMutability":"view"},{"type":"event","name":"AuctionBought","inputs":[{"name":"auctionId","type":"uint256","indexed":true,"internalType":"uint256"},{"name":"buyer","type":"address","indexed":true,"internalType":"address"},{"name":"collateralBought","type":"uint256","indexed":false,"internalType":"uint256"},{"name":"debtPaid","type":"uint256","indexed":false,"internalType":"uint256"}],"anonymous":false},{"type":"event","name":"AuctionClosed","inputs":[{"name":"auctionId","type":"uint256","indexed":true,"internalType":"uint256"},{"name":"vaultAddress","type":"address","indexed":true,"internalType":"address"}],"anonymous":false},{"type":"event","name":"AuctionStarted","inputs":[{"name":"auctionId","type":"uint256","indexed":true,"internalType":"uint256"},{"name":"vaultAddress","type":"address","indexed":true,"internalType":"address"},{"name":"collateralAmount","type":"uint256","indexed":false,"internalType":"uint256"},{"name":"debtToCover","type":"uint256","indexed":false,"internalType":"uint256"},{"name":"startPrice","type":"uint256","indexed":false,"internalType":"uint256"}],"anonymous":false},{"type":"event","name":"OwnershipTransferred","inputs":[{"name":"previousOwner","type":"address","indexed":true,"internalType":"address"},{"name":"newOwner","type":"address","indexed":true,"internalType":"address"}],"anonymous":false},{"type":"error","name":"AuctionAlreadyActive","inputs":[]},{"type":"error","name":"AuctionNotFound","inputs":[]},{"type":"error","name":"InvalidPurchaseAmount","inputs":[]},{"type":"error","name":"OwnableInvalidOwner","inputs":[{"name":"owner","type":"address","internalType":"address"}]},{"type":"error","name":"OwnableUnauthorizedAccount","inputs":[{"name":"account","type":"address","internalType":"address"}]},{"type":"error","name":"PriceNotAvailable","inputs":[]},{"type":"error","name":"SafeERC20FailedOperation","inputs":[{"name":"token","type":"address","internalType":"address"}]},{"type":"error","name":"VaultNotLiquidatable","inputs":[]},{"type":"error","name":"ZeroAddress","inputs":[]}],"bytecode":{"object":"0x60c03461013c57601f610da138819003918201601f19168301916001600160401b038311848410176101405780849260609460405283398101031261013c5761004781610154565b61005f604061005860208501610154565b9301610154565b6001600160a01b03909116918215610129575f80546001600160a01b031981168517825560405194916001600160a01b03909116907f8be0079c531659141344cd1fd0a4f28419497f9722a3daafe3b4186f6b6457e09080a36001600160a01b031680158015610118575b610109576080526001600160a01b031660a052610c389081610169823960805181818161061d01526107d9015260a05181818161022101526105b20152f35b63d92e233d60e01b5f5260045ffd5b506001600160a01b038216156100ca565b631e4fbdf760e01b5f525f60045260245ffd5b5f80fd5b634e487b7160e01b5f52604160045260245ffd5b51906001600160a01b038216820361013c5756fe6080806040526004361015610012575f80fd5b5f905f3560e01c908163398ac72114610af1575080633993453314610acf5780634075fa0f14610719578063571a26a0146106be5780635c1cf753146106a3578063715018a61461064c5780637dc0d1d0146106085780638da5cb5b146105e1578063961f389e1461059d578063a66e131c14610581578063c55d0f561461055b578063d6febde814610164578063de0794ef146101465763f2fde38b146100b8575f80fd5b34610143576020366003190112610143576004356001600160a01b03811690819003610141576100e6610bdc565b801561012d5781546001600160a01b03198116821783556001600160a01b03167f8be0079c531659141344cd1fd0a4f28419497f9722a3daafe3b4186f6b6457e08380a380f35b631e4fbdf760e01b82526004829052602482fd5b505b80fd5b50346101435780600319360112610143576020600154604051908152f35b50346104a25760403660031901126104a2576004359060243591805f52600260205260405f20926002840193845460a01c1561054c5781158015610542575b6104c1576101b083610b8a565b670de0b6b3a76400006101c38285610b4c565b049560018301918254908189116104f7575b50876101e18183610b7d565b151591826104da575b5050806104d0575b6104c1576040516323b872dd60e01b602082810191825233602484015230604484015260648084018b905283527f00000000000000000000000000000000000000000000000000000000000000006001600160a01b03169290915f91610259608482610b2a565b519082855af115610497575f513d6104b85750803b155b6104a65750546001600160a01b031692833b156104a2576040516324c0ce8560e11b815233600482015260248101829052965f8860448183895af180156104975761047f575b8697506102c7828598979854610b7d565b8094556102d5818454610b7d565b8093556040519182526020820152857ff050ce102f046eac2f8c3b0d8e8f6b04b0e0270393658211bb673cf5b1572f9760403393a3158015610477575b61031a578280f35b80610395575b5050819052600260208190526040832001546001600160a01b031680827f4ee22863e44dc98a9282c279daba781651b6f2f53506c89557430eb6772db9418580a382526003602052816040812055815260026020528060036040822082815582600182015582600282015501555f8181808280f35b604051638da5cb5b60e01b815290602082600481865afa91821561046c578492610428575b50823b15610424576040516324c0ce8560e11b81526001600160a01b0392909216600483015260248201529082908290604490829084905af1801561041957610404575b80610320565b8161040e91610b2a565b61014157815f6103fe565b6040513d84823e3d90fd5b8380fd5b9091506020813d602011610464575b8161044460209383610b2a565b8101031261042457516001600160a01b038116810361042457905f6103ba565b3d9150610437565b6040513d86823e3d90fd5b508015610312565b949550955f61048d91610b2a565b5f949386906102b6565b6040513d5f823e3d90fd5b5f80fd5b635274afe760e01b5f5260045260245ffd5b60011415610270565b638e4353d360e01b5f5260045ffd5b50825484106101f2565b670de0b6b3a76400009250906104ef91610b7d565b10875f6101ea565b975080945096670de0b6b3a7640000850290858204670de0b6b3a7640000148615171561052e5761052791610b5f565b935f6101d5565b634e487b7160e01b5f52601160045260245ffd5b50805482116101a3565b6307145c5f60e11b5f5260045ffd5b346104a25760203660031901126104a2576020610579600435610b8a565b604051908152f35b346104a2575f3660031901126104a2576020604051610e108152f35b346104a2575f3660031901126104a2576040517f00000000000000000000000000000000000000000000000000000000000000006001600160a01b03168152602090f35b346104a2575f3660031901126104a2575f546040516001600160a01b039091168152602090f35b346104a2575f3660031901126104a2576040517f00000000000000000000000000000000000000000000000000000000000000006001600160a01b03168152602090f35b346104a2575f3660031901126104a257610664610bdc565b5f80546001600160a01b0319811682556001600160a01b03167f8be0079c531659141344cd1fd0a4f28419497f9722a3daafe3b4186f6b6457e08280a3005b346104a2575f3660031901126104a257602060405160968152f35b346104a25760203660031901126104a2576004355f52600260205260a060405f2080549060018101549060036002820154910154916040519384526020840152600180851b0381166040840152831c60608301526080820152f35b346104a25760203660031901126104a2576004356001600160a01b038116908190036104a2576040516392d09ceb60e01b8152602081600481855afa908115610497575f91610a9d575b50604051623a79ab60e11b815290602082600481865afa918215610497575f92610a69575b50604051632c805af560e21b815291602083600481875afa928315610497575f93610a25575b506040516341976e0960e01b81526001600160a01b03938416600482015292602090849060249082907f0000000000000000000000000000000000000000000000000000000000000000165afa928315610497575f936109f1575b5082156109e257670de0b6b3a76400006108238484610b4c565b0460648102908082046064149015171561052e578161084191610b5f565b6040516376de60a360e11b815290602082600481895afa918215610497575f926109ae575b50101561099f57835f52600360205260405f2054610990576001545f19811461052e5760010192836001556096810290810460960361052e5760649004916040519260a084019284841067ffffffffffffffff85111761097c5760409384528285526020808601828152858701898152426bffffffffffffffffffffffff166060808a0191825260808a018781525f8c815260028088528b82209c518d55955160018d01559351925160a01b6001600160a01b0319166001600160a01b039390931692909217938a019390935551600398890155898152968252958590208790558451938452830152918101919091527f891c95c01123dab4c2e9f5730be4341f0389880525f5d7c2a645a77555c27ff79190a3005b634e487b7160e01b5f52604160045260245ffd5b634e75f0b560e11b5f5260045ffd5b63791b3ae360e01b5f5260045ffd5b9091506020813d6020116109da575b816109ca60209383610b2a565b810103126104a257519086610866565b3d91506109bd565b63579a480160e01b5f5260045ffd5b9092506020813d602011610a1d575b81610a0d60209383610b2a565b810103126104a257519184610809565b3d9150610a00565b9092506020813d602011610a61575b81610a4160209383610b2a565b810103126104a257516001600160a01b03811681036104a25791846107ae565b3d9150610a34565b9091506020813d602011610a95575b81610a8560209383610b2a565b810103126104a257519083610788565b3d9150610a78565b90506020813d602011610ac7575b81610ab860209383610b2a565b810103126104a2575182610763565b3d9150610aab565b346104a2575f3660031901126104a2576020604051670de0b6b3a76400008152f35b346104a25760203660031901126104a2576004356001600160a01b03811691908290036104a2576020915f526003825260405f20548152f35b90601f8019910116810190811067ffffffffffffffff82111761097c57604052565b8181029291811591840414171561052e57565b8115610b69570490565b634e487b7160e01b5f52601260045260245ffd5b9190820391821161052e57565b5f52600260205260405f20600281015460a01c8015610bd657610bad9042610b7d565b611c20811015610bd657611c20610bcc6003610bd39401549283610b4c565b0490610b7d565b90565b50505f90565b5f546001600160a01b03163303610bef57565b63118cdaa760e01b5f523360045260245ffdfea2646970667358221220ae34d2d20ff1abd271df48a0d99282648cb9a5ca7516e2368ee8a4c84ee1e2d464736f6c634300081e0033","linkReferences":{}},"methodIdentifiers":{"DEBT_DUST()":"39934533","PRICE_DECAY_HALFLIFE()":"a66e131c","START_PRICE_MULTIPLIER()":"5c1cf753","auctionIdCounter()":"de0794ef","auctions(uint256)":"571a26a0","buy(uint256,uint256)":"d6febde8","getCurrentPrice(uint256)":"c55d0f56","oracle()":"7dc0d1d0","owner()":"8da5cb5b","renounceOwnership()":"715018a6","sccUsdToken()":"961f389e","startAuction(address)":"4075fa0f","transferOwnership(address)":"f2fde38b","vaultToAuctionId(address)":"398ac721"},"id":76}