{"abi":[{"type":"constructor","inputs":[{"name":"initialOwner","type":"address","internalType":"address"}],"stateMutability":"nonpayable"},{"type":"function","name":"allowance","inputs":[{"name":"owner","type":"address","internalType":"address"},{"name":"spender","type":"address","internalType":"address"}],"outputs":[{"name":"","type":"uint256","internalType":"uint256"}],"stateMutability":"view"},{"type":"function","name":"approve","inputs":[{"name":"spender","type":"address","internalType":"address"},{"name":"value","type":"uint256","internalType":"uint256"}],"outputs":[{"name":"","type":"bool","internalType":"bool"}],"stateMutability":"nonpayable"},{"type":"function","name":"balanceOf","inputs":[{"name":"account","type":"address","internalType":"address"}],"outputs":[{"name":"","type":"uint256","internalType":"uint256"}],"stateMutability":"view"},{"type":"function","name":"burn","inputs":[{"name":"account","type":"address","internalType":"address"},{"name":"amount","type":"uint256","internalType":"uint256"}],"outputs":[],"stateMutability":"nonpayable"},{"type":"function","name":"decimals","inputs":[],"outputs":[{"name":"","type":"uint8","internalType":"uint8"}],"stateMutability":"view"},{"type":"function","name":"mint","inputs":[{"name":"account","type":"address","internalType":"address"},{"name":"amount","type":"uint256","internalType":"uint256"}],"outputs":[],"stateMutability":"nonpayable"},{"type":"function","name":"name","inputs":[],"outputs":[{"name":"","type":"string","internalType":"string"}],"stateMutability":"view"},{"type":"function","name":"owner","inputs":[],"outputs":[{"name":"","type":"address","internalType":"address"}],"stateMutability":"view"},{"type":"function","name":"renounceOwnership","inputs":[],"outputs":[],"stateMutability":"nonpayable"},{"type":"function","name":"symbol","inputs":[],"outputs":[{"name":"","type":"string","internalType":"string"}],"stateMutability":"view"},{"type":"function","name":"totalSupply","inputs":[],"outputs":[{"name":"","type":"uint256","internalType":"uint256"}],"stateMutability":"view"},{"type":"function","name":"transfer","inputs":[{"name":"to","type":"address","internalType":"address"},{"name":"value","type":"uint256","internalType":"uint256"}],"outputs":[{"name":"","type":"bool","internalType":"bool"}],"stateMutability":"nonpayable"},{"type":"function","name":"transferFrom","inputs":[{"name":"from","type":"address","internalType":"address"},{"name":"to","type":"address","internalType":"address"},{"name":"value","type":"uint256","internalType":"uint256"}],"outputs":[{"name":"","type":"bool","internalType":"bool"}],"stateMutability":"nonpayable"},{"type":"function","name":"transferOwnership","inputs":[{"name":"newOwner","type":"address","internalType":"address"}],"outputs":[],"stateMutability":"nonpayable"},{"type":"event","name":"Approval","inputs":[{"name":"owner","type":"address","indexed":true,"internalType":"address"},{"name":"spender","type":"address","indexed":true,"internalType":"address"},{"name":"value","type":"uint256","indexed":false,"internalType":"uint256"}],"anonymous":false},{"type":"event","name":"OwnershipTransferred","inputs":[{"name":"previousOwner","type":"address","indexed":true,"internalType":"address"},{"name":"newOwner","type":"address","indexed":true,"internalType":"address"}],"anonymous":false},{"type":"event","name":"Transfer","inputs":[{"name":"from","type":"address","indexed":true,"internalType":"address"},{"name":"to","type":"address","indexed":true,"internalType":"address"},{"name":"value","type":"uint256","indexed":false,"internalType":"uint256"}],"anonymous":false},{"type":"error","name":"ERC20InsufficientAllowance","inputs":[{"name":"spender","type":"address","internalType":"address"},{"name":"allowance","type":"uint256","internalType":"uint256"},{"name":"needed","type":"uint256","internalType":"uint256"}]},{"type":"error","name":"ERC20InsufficientBalance","inputs":[{"name":"sender","type":"address","internalType":"address"},{"name":"balance","type":"uint256","internalType":"uint256"},{"name":"needed","type":"uint256","internalType":"uint256"}]},{"type":"error","name":"ERC20InvalidApprover","inputs":[{"name":"approver","type":"address","internalType":"address"}]},{"type":"error","name":"ERC20InvalidReceiver","inputs":[{"name":"receiver","type":"address","internalType":"address"}]},{"type":"error","name":"ERC20InvalidSender","inputs":[{"name":"sender","type":"address","internalType":"address"}]},{"type":"error","name":"ERC20InvalidSpender","inputs":[{"name":"spender","type":"address","internalType":"address"}]},{"type":"error","name":"OwnableInvalidOwner","inputs":[{"name":"owner","type":"address","internalType":"address"}]},{"type":"error","name":"OwnableUnauthorizedAccount","inputs":[{"name":"account","type":"address","internalType":"address"}]}],"bytecode":{"object":"0x60806040523461038d57610c626020813803918261001c81610391565b93849283398101031261038d57516001600160a01b0381169081900361038d576100466040610391565b90600e82526d29a1a19029ba30b13632b1b7b4b760911b602083015261006c6040610391565b600781526614d0d0cb5554d160ca1b602082015282519091906001600160401b03811161029e57600354600181811c91168015610383575b602082101461028057601f8111610320575b506020601f82116001146102bd57819293945f926102b2575b50508160011b915f199060031b1c1916176003555b81516001600160401b03811161029e57600454600181811c91168015610294575b602082101461028057601f811161021d575b50602092601f82116001146101bc57928192935f926101b1575b50508160011b915f199060031b1c1916176004555b801561019e57600580546001600160a01b03198116831790915560405191906001600160a01b03167f8be0079c531659141344cd1fd0a4f28419497f9722a3daafe3b4186f6b6457e05f80a36108ab90816103b78239f35b631e4fbdf760e01b5f525f60045260245ffd5b015190505f80610131565b601f1982169360045f52805f20915f5b86811061020557508360019596106101ed575b505050811b01600455610146565b01515f1960f88460031b161c191690555f80806101df565b919260206001819286850151815501940192016101cc565b60045f527f8a35acfbc15ff81a39ae7d344fd709f28e8600b4aa8c65c6b64bfe7fe36bd19b601f830160051c81019160208410610276575b601f0160051c01905b81811061026b5750610117565b5f815560010161025e565b9091508190610255565b634e487b7160e01b5f52602260045260245ffd5b90607f1690610105565b634e487b7160e01b5f52604160045260245ffd5b015190505f806100cf565b601f1982169060035f52805f20915f5b818110610308575095836001959697106102f0575b505050811b016003556100e4565b01515f1960f88460031b161c191690555f80806102e2565b9192602060018192868b0151815501940192016102cd565b60035f527fc2575a0e9e593c00f959f8c92f12db2869c3395a3b0502d05e2516446f71f85b601f830160051c81019160208410610379575b601f0160051c01905b81811061036e57506100b6565b5f8155600101610361565b9091508190610358565b90607f16906100a4565b5f80fd5b6040519190601f01601f191682016001600160401b0381118382101761029e5760405256fe6080806040526004361015610012575f80fd5b5f3560e01c90816306fdde031461069257508063095ea7b31461061057806318160ddd146105f357806323b872dd14610514578063313ce567146104f957806340c10f191461044d57806370a0823114610416578063715018a6146103bb5780638da5cb5b1461039357806395d89b41146102785780639dc29fac146101c1578063a9059cbb14610190578063dd62ed3e146101405763f2fde38b146100b6575f80fd5b3461013c57602036600319011261013c576100cf61078b565b6100d761084e565b6001600160a01b0316801561012957600580546001600160a01b0319811683179091556001600160a01b03167f8be0079c531659141344cd1fd0a4f28419497f9722a3daafe3b4186f6b6457e05f80a3005b631e4fbdf760e01b5f525f60045260245ffd5b5f80fd5b3461013c57604036600319011261013c5761015961078b565b6101616107a1565b6001600160a01b039182165f908152600160209081526040808320949093168252928352819020549051908152f35b3461013c57604036600319011261013c576101b66101ac61078b565b60243590336107b7565b602060405160018152f35b3461013c57604036600319011261013c576101da61078b565b602435906101e661084e565b6001600160a01b0316801561026557805f525f60205260405f205482811061024c576020835f947fddf252ad1be2c89b69c2b068fc378daa952ba7f163c4a11628f55a4df523b3ef938587528684520360408620558060025403600255604051908152a3005b9063391434e360e21b5f5260045260245260445260645ffd5b634b637e8f60e11b5f525f60045260245ffd5b3461013c575f36600319011261013c576040515f6004548060011c90600181168015610389575b602083108114610375578285529081156103595750600114610304575b50819003601f01601f191681019067ffffffffffffffff8211818310176102f0576102ec82918260405282610761565b0390f35b634e487b7160e01b5f52604160045260245ffd5b905060045f527f8a35acfbc15ff81a39ae7d344fd709f28e8600b4aa8c65c6b64bfe7fe36bd19b5f905b828210610343575060209150820101826102bc565b600181602092548385880101520191019061032e565b90506020925060ff191682840152151560051b820101826102bc565b634e487b7160e01b5f52602260045260245ffd5b91607f169161029f565b3461013c575f36600319011261013c576005546040516001600160a01b039091168152602090f35b3461013c575f36600319011261013c576103d361084e565b600580546001600160a01b031981169091555f906001600160a01b03167f8be0079c531659141344cd1fd0a4f28419497f9722a3daafe3b4186f6b6457e08280a3005b3461013c57602036600319011261013c576001600160a01b0361043761078b565b165f525f602052602060405f2054604051908152f35b3461013c57604036600319011261013c5761046661078b565b6024359061047261084e565b6001600160a01b03169081156104e657600254908082018092116104d25760207fddf252ad1be2c89b69c2b068fc378daa952ba7f163c4a11628f55a4df523b3ef915f9360025584845283825260408420818154019055604051908152a3005b634e487b7160e01b5f52601160045260245ffd5b63ec442f0560e01b5f525f60045260245ffd5b3461013c575f36600319011261013c57602060405160128152f35b3461013c57606036600319011261013c5761052d61078b565b6105356107a1565b6001600160a01b0382165f818152600160209081526040808320338452909152902054909260443592915f198110610573575b506101b693506107b7565b8381106105d85784156105c55733156105b2576101b6945f52600160205260405f2060018060a01b0333165f526020528360405f209103905584610568565b634a1406b160e11b5f525f60045260245ffd5b63e602df0560e01b5f525f60045260245ffd5b8390637dc7a0d960e11b5f523360045260245260445260645ffd5b3461013c575f36600319011261013c576020600254604051908152f35b3461013c57604036600319011261013c5761062961078b565b6024359033156105c5576001600160a01b03169081156105b257335f52600160205260405f20825f526020528060405f20556040519081527f8c5be1e5ebec7d5bd14f71427d1e84f3dd0314c0f7b2291e5b200ac8c7c3b92560203392a3602060405160018152f35b3461013c575f36600319011261013c575f6003548060011c90600181168015610757575b6020831081146103755782855290811561035957506001146107025750819003601f01601f191681019067ffffffffffffffff8211818310176102f0576102ec82918260405282610761565b905060035f527fc2575a0e9e593c00f959f8c92f12db2869c3395a3b0502d05e2516446f71f85b5f905b828210610741575060209150820101826102bc565b600181602092548385880101520191019061072c565b91607f16916106b6565b602060409281835280519182918282860152018484015e5f828201840152601f01601f1916010190565b600435906001600160a01b038216820361013c57565b602435906001600160a01b038216820361013c57565b6001600160a01b0316908115610265576001600160a01b03169182156104e657815f525f60205260405f205481811061083557817fddf252ad1be2c89b69c2b068fc378daa952ba7f163c4a11628f55a4df523b3ef92602092855f525f84520360405f2055845f525f825260405f20818154019055604051908152a3565b8263391434e360e21b5f5260045260245260445260645ffd5b6005546001600160a01b0316330361086257565b63118cdaa760e01b5f523360045260245ffdfea2646970667358221220b0c209f76e26658438e6f412c636d17a265a45b2b1660d66ee183232ce657a4364736f6c634300081e0033","linkReferences":{}},"methodIdentifiers":{"allowance(address,address)":"dd62ed3e","approve(address,uint256)":"095ea7b3","balanceOf(address)":"70a08231","burn(address,uint256)":"9dc29fac","decimals()":"313ce567","mint(address,uint256)":"40c10f19","name()":"06fdde03","owner()":"8da5cb5b","renounceOwnership()":"715018a6","symbol()":"95d89b41","totalSupply()":"18160ddd","transfer(address,uint256)":"a9059cbb","transferFrom(address,address,uint256)":"23b872dd","transferOwnership(address)":"f2fde38b"},"id":86}