{"abi":[{"type":"constructor","inputs":[{"name":"initialOwner","type":"address","internalType":"address"},{"name":"_oracle","type":"address","internalType":"address"},{"name":"_sccUsdToken","type":"address","internalType":"address"}],"stateMutability":"nonpayable"},{"type":"function","name":"DEBT_DUST","inputs":[],"outputs":[{"name":"","type":"uint256","internalType":"uint256"}],"stateMutability":"view"},{"type":"function","name":"PRICE_DECAY_HALFLIFE","inputs":[],"outputs":[{"name":"","type":"uint256","internalType":"uint256"}],"stateMutability":"view"},{"type":"function","name":"START_PRICE_MULTIPLIER","inputs":[],"outputs":[{"name":"","type":"uint256","internalType":"uint256"}],"stateMutability":"view"},{"type":"function","name":"auctionIdCounter","inputs":[],"outputs":[{"name":"","type":"uint256","internalType":"uint256"}],"stateMutability":"view"},{"type":"function","name":"auctions","inputs":[{"name":"","type":"uint256","internalType":"uint256"}],"outputs":[{"name":"collateralAmount","type":"uint256","internalType":"uint256"},{"name":"debtToCover","type":"uint256","internalType":"uint256"},{"name":"vaultAddress","type":"address","internalType":"address"},{"name":"startTime","type":"uint96","internalType":"uint96"},{"name":"startPrice","type":"uint256","internalType":"uint256"}],"stateMutability":"view"},{"type":"function","name":"buy","inputs":[{"name":"_auctionId","type":"uint256","internalType":"uint256"},{"name":"_collateralToBuy","type":"uint256","internalType":"uint256"}],"outputs":[],"stateMutability":"nonpayable"},{"type":"function","name":"getCurrentPrice","inputs":[{"name":"_auctionId","type":"uint256","internalType":"uint256"}],"outputs":[{"name":"","type":"uint256","internalType":"uint256"}],"stateMutability":"view"},{"type":"function","name":"oracle","inputs":[],"outputs":[{"name":"","type":"address","internalType":"contract OracleManager"}],"stateMutability":"view"},{"type":"function","name":"owner","inputs":[],"outputs":[{"name":"","type":"address","internalType":"address"}],"stateMutability":"view"},{"type":"function","name":"renounceOwnership","inputs":[],"outputs":[],"stateMutability":"nonpayable"},{"type":"function","name":"sccUsdToken","inputs":[],"outputs":[{"name":"","type":"address","internalType":"contract SCC_USD"}],"stateMutability":"view"},{"type":"function","name":"startAuction","inputs":[{"name":"_vaultAddress","type":"address","internalType":"address"}],"outputs":[],"stateMutability":"nonpayable"},{"type":"function","name":"transferOwnership","inputs":[{"name":"newOwner","type":"address","internalType":"address"}],"outputs":[],"stateMutability":"nonpayable"},{"type":"function","name":"vaultToAuctionId","inputs":[{"name":"","type":"address","internalType":"address"}],"outputs":[{"name":"","type":"uint256","internalType":"uint256"}],"stateMutability":"view"},{"type":"function","name":"withdrawFees","inputs":[{"name":"_recipient","type":"address","internalType":"address"},{"name":"_amount","type":"uint256","internalType":"uint256"}],"outputs":[],"stateMutability":"nonpayable"},{"type":"event","name":"AuctionBought","inputs":[{"name":"auctionId","type":"uint256","indexed":true,"internalType":"uint256"},{"name":"buyer","type":"address","indexed":true,"internalType":"address"},{"name":"collateralBought","type":"uint256","indexed":false,"internalType":"uint256"},{"name":"debtPaid","type":"uint256","indexed":false,"internalType":"uint256"}],"anonymous":false},{"type":"event","name":"AuctionClosed","inputs":[{"name":"auctionId","type":"uint256","indexed":true,"internalType":"uint256"},{"name":"vaultAddress","type":"address","indexed":true,"internalType":"address"}],"anonymous":false},{"type":"event","name":"AuctionStarted","inputs":[{"name":"auctionId","type":"uint256","indexed":true,"internalType":"uint256"},{"name":"vaultAddress","type":"address","indexed":true,"internalType":"address"},{"name":"collateralAmount","type":"uint256","indexed":false,"internalType":"uint256"},{"name":"debtToCover","type":"uint256","indexed":false,"internalType":"uint256"},{"name":"startPrice","type":"uint256","indexed":false,"internalType":"uint256"}],"anonymous":false},{"type":"event","name":"OwnershipTransferred","inputs":[{"name":"previousOwner","type":"address","indexed":true,"internalType":"address"},{"name":"newOwner","type":"address","indexed":true,"internalType":"address"}],"anonymous":false},{"type":"error","name":"AuctionAlreadyActive","inputs":[]},{"type":"error","name":"AuctionNotFound","inputs":[]},{"type":"error","name":"InvalidPurchaseAmount","inputs":[]},{"type":"error","name":"OwnableInvalidOwner","inputs":[{"name":"owner","type":"address","internalType":"address"}]},{"type":"error","name":"OwnableUnauthorizedAccount","inputs":[{"name":"account","type":"address","internalType":"address"}]},{"type":"error","name":"PriceNotAvailable","inputs":[]},{"type":"error","name":"SafeERC20FailedOperation","inputs":[{"name":"token","type":"address","internalType":"address"}]},{"type":"error","name":"VaultNotLiquidatable","inputs":[]},{"type":"error","name":"ZeroAddress","inputs":[]}],"bytecode":{"object":"0x60c03461013c57601f610e5f38819003918201601f19168301916001600160401b038311848410176101405780849260609460405283398101031261013c5761004781610154565b61005f604061005860208501610154565b9301610154565b6001600160a01b03909116918215610129575f80546001600160a01b031981168517825560405194916001600160a01b03909116907f8be0079c531659141344cd1fd0a4f28419497f9722a3daafe3b4186f6b6457e09080a36001600160a01b031680158015610118575b610109576080526001600160a01b031660a052610cf690816101698239608051818181610670015261082e015260a05181818161023101526106050152f35b63d92e233d60e01b5f5260045ffd5b506001600160a01b038216156100ca565b631e4fbdf760e01b5f525f60045260245ffd5b5f80fd5b634e487b7160e01b5f52604160045260245ffd5b51906001600160a01b038216820361013c5756fe6080806040526004361015610012575f80fd5b5f905f3560e01c908163398ac72114610b46575080633993453314610b245780634075fa0f1461076c578063571a26a0146107115780635c1cf753146106f6578063715018a61461069f5780637dc0d1d01461065b5780638da5cb5b14610634578063961f389e146105f0578063a66e131c146105d4578063ad3b1b4714610553578063c55d0f561461052d578063d6febde814610169578063de0794ef1461014b5763f2fde38b146100c3575f80fd5b34610148576020366003190112610148576100dc610b7a565b6100e4610c42565b6001600160a01b031680156101345781546001600160a01b03198116821783556001600160a01b03167f8be0079c531659141344cd1fd0a4f28419497f9722a3daafe3b4186f6b6457e08380a380f35b631e4fbdf760e01b82526004829052602482fd5b80fd5b50346101485780600319360112610148576020600154604051908152f35b503461048f57604036600319011261048f576004359060243591805f52600260205260405f20926002840193845460a01c1561051e5781158015610514575b610493576101b583610bf0565b670de0b6b3a76400006101c88285610bb2565b049560018301918254908189116104c9575b50876101e68183610be3565b151591826104ac575b5050806104a2575b6104935761025e6040516323b872dd60e01b60208201523360248201523060448201528860648201526064815261022f608482610b90565b7f00000000000000000000000000000000000000000000000000000000000000006001600160a01b0316610c68565b546001600160a01b031692833b1561048f576040516324c0ce8560e11b815233600482015260248101829052965f8860448183895af180156104845761046c575b8697506102b0828598979854610be3565b8094556102be818454610be3565b8093556040519182526020820152857ff050ce102f046eac2f8c3b0d8e8f6b04b0e0270393658211bb673cf5b1572f9760403393a3158015610464575b610303578280f35b8061037e575b5050819052600260208190526040832001546001600160a01b031680827f4ee22863e44dc98a9282c279daba781651b6f2f53506c89557430eb6772db9418580a382526003602052816040812055815260026020528060036040822082815582600182015582600282015501555f8181808280f35b604051638da5cb5b60e01b815290602082600481865afa918215610459578492610415575b50823b15610411576040516324c0ce8560e11b81526001600160a01b0392909216600483015260248201529082908290604490829084905af18015610406576103ed575b80610309565b816103f791610b90565b61040257815f6103e7565b5080fd5b6040513d84823e3d90fd5b8380fd5b9091506020813d602011610451575b8161043160209383610b90565b8101031261041157516001600160a01b038116810361041157905f6103a3565b3d9150610424565b6040513d86823e3d90fd5b5080156102fb565b949550955f61047a91610b90565b5f9493869061029f565b6040513d5f823e3d90fd5b5f80fd5b638e4353d360e01b5f5260045ffd5b50825484106101f7565b670de0b6b3a76400009250906104c191610be3565b10875f6101ef565b975080945096670de0b6b3a7640000850290858204670de0b6b3a76400001486151715610500576104f991610bc5565b935f6101da565b634e487b7160e01b5f52601160045260245ffd5b50805482116101a8565b6307145c5f60e11b5f5260045ffd5b3461048f57602036600319011261048f57602061054b600435610bf0565b604051908152f35b3461048f57604036600319011261048f5761056c610b7a565b610574610c42565b6001600160a01b038116156105c55760405163a9059cbb60e01b60208201526001600160a01b03919091166024808301919091523560448083019190915281526105c39061022f606482610b90565b005b63d92e233d60e01b5f5260045ffd5b3461048f575f36600319011261048f576020604051610e108152f35b3461048f575f36600319011261048f576040517f00000000000000000000000000000000000000000000000000000000000000006001600160a01b03168152602090f35b3461048f575f36600319011261048f575f546040516001600160a01b039091168152602090f35b3461048f575f36600319011261048f576040517f00000000000000000000000000000000000000000000000000000000000000006001600160a01b03168152602090f35b3461048f575f36600319011261048f576106b7610c42565b5f80546001600160a01b0319811682556001600160a01b03167f8be0079c531659141344cd1fd0a4f28419497f9722a3daafe3b4186f6b6457e08280a3005b3461048f575f36600319011261048f57602060405160968152f35b3461048f57602036600319011261048f576004355f52600260205260a060405f2080549060018101549060036002820154910154916040519384526020840152600180851b0381166040840152831c60608301526080820152f35b3461048f57602036600319011261048f576001600160a01b0361078d610b7a565b166040516392d09ceb60e01b8152602081600481855afa908115610484575f91610af2575b50604051623a79ab60e11b815290602082600481865afa918215610484575f92610abe575b50604051632c805af560e21b815291602083600481875afa928315610484575f93610a7a575b5080156109f4576040516341976e0960e01b81526001600160a01b03938416600482015292602090849060249082907f0000000000000000000000000000000000000000000000000000000000000000165afa928315610484575f93610a46575b508215610a3757670de0b6b3a76400006108788484610bb2565b04606481029080820460641490151715610500578161089691610bc5565b6040516376de60a360e11b815290602082600481895afa918215610484575f92610a03575b5010156109f457835f52600360205260405f20546109e5576001545f198114610500576001019283600155609681029081046096036105005760649004916040519260a084019284841067ffffffffffffffff8511176109d15760409384528285526020808601828152858701898152426bffffffffffffffffffffffff166060808a0191825260808a018781525f8c815260028088528b82209c518d55955160018d01559351925160a01b6001600160a01b0319166001600160a01b039390931692909217938a019390935551600398890155898152968252958590208790558451938452830152918101919091527f891c95c01123dab4c2e9f5730be4341f0389880525f5d7c2a645a77555c27ff79190a3005b634e487b7160e01b5f52604160045260245ffd5b634e75f0b560e11b5f5260045ffd5b63791b3ae360e01b5f5260045ffd5b9091506020813d602011610a2f575b81610a1f60209383610b90565b8101031261048f575190866108bb565b3d9150610a12565b63579a480160e01b5f5260045ffd5b9092506020813d602011610a72575b81610a6260209383610b90565b8101031261048f5751918461085e565b3d9150610a55565b9092506020813d602011610ab6575b81610a9660209383610b90565b8101031261048f57516001600160a01b038116810361048f5791846107fd565b3d9150610a89565b9091506020813d602011610aea575b81610ada60209383610b90565b8101031261048f575190836107d7565b3d9150610acd565b90506020813d602011610b1c575b81610b0d60209383610b90565b8101031261048f5751826107b2565b3d9150610b00565b3461048f575f36600319011261048f576020604051670de0b6b3a76400008152f35b3461048f57602036600319011261048f576020906001600160a01b03610b6a610b7a565b165f526003825260405f20548152f35b600435906001600160a01b038216820361048f57565b90601f8019910116810190811067ffffffffffffffff8211176109d157604052565b8181029291811591840414171561050057565b8115610bcf570490565b634e487b7160e01b5f52601260045260245ffd5b9190820391821161050057565b5f52600260205260405f20600281015460a01c8015610c3c57610c139042610be3565b611c20811015610c3c57611c20610c326003610c399401549283610bb2565b0490610be3565b90565b50505f90565b5f546001600160a01b03163303610c5557565b63118cdaa760e01b5f523360045260245ffd5b905f602091828151910182855af115610484575f513d610cb757506001600160a01b0381163b155b610c975750565b635274afe760e01b5f9081526001600160a01b0391909116600452602490fd5b60011415610c9056fea2646970667358221220d3360c562d4c55c5a2c52ad0029c90845418dfede9f04dbace8a52f5b5228e9c64736f6c634300081e0033","linkReferences":{}},"methodIdentifiers":{"DEBT_DUST()":"39934533","PRICE_DECAY_HALFLIFE()":"a66e131c","START_PRICE_MULTIPLIER()":"5c1cf753","auctionIdCounter()":"de0794ef","auctions(uint256)":"571a26a0","buy(uint256,uint256)":"d6febde8","getCurrentPrice(uint256)":"c55d0f56","oracle()":"7dc0d1d0","owner()":"8da5cb5b","renounceOwnership()":"715018a6","sccUsdToken()":"961f389e","startAuction(address)":"4075fa0f","transferOwnership(address)":"f2fde38b","vaultToAuctionId(address)":"398ac721","withdrawFees(address,uint256)":"ad3b1b47"},"id":78}