{"abi":[{"type":"constructor","inputs":[{"name":"_decimals","type":"uint8","internalType":"uint8"},{"name":"_initialAnswer","type":"int256","internalType":"int256"}],"stateMutability":"nonpayable"},{"type":"function","name":"decimals","inputs":[],"outputs":[{"name":"","type":"uint8","internalType":"uint8"}],"stateMutability":"view"},{"type":"function","name":"description","inputs":[],"outputs":[{"name":"","type":"string","internalType":"string"}],"stateMutability":"pure"},{"type":"function","name":"getRoundData","inputs":[{"name":"","type":"uint80","internalType":"uint80"}],"outputs":[{"name":"","type":"uint80","internalType":"uint80"},{"name":"","type":"int256","internalType":"int256"},{"name":"","type":"uint256","internalType":"uint256"},{"name":"","type":"uint256","internalType":"uint256"},{"name":"","type":"uint80","internalType":"uint80"}],"stateMutability":"view"},{"type":"function","name":"i_latestTimestamp","inputs":[],"outputs":[{"name":"","type":"uint256","internalType":"uint256"}],"stateMutability":"view"},{"type":"function","name":"latestRoundData","inputs":[],"outputs":[{"name":"","type":"uint80","internalType":"uint80"},{"name":"","type":"int256","internalType":"int256"},{"name":"","type":"uint256","internalType":"uint256"},{"name":"","type":"uint256","internalType":"uint256"},{"name":"","type":"uint80","internalType":"uint80"}],"stateMutability":"view"},{"type":"function","name":"updateAnswer","inputs":[{"name":"_answer","type":"int256","internalType":"int256"}],"outputs":[],"stateMutability":"nonpayable"},{"type":"function","name":"updateTimestamp","inputs":[{"name":"_timestamp","type":"uint256","internalType":"uint256"}],"outputs":[],"stateMutability":"nonpayable"},{"type":"function","name":"version","inputs":[],"outputs":[{"name":"","type":"uint256","internalType":"uint256"}],"stateMutability":"pure"}],"bytecode":{"object":"0x60a034606c57601f6102f238819003918201601f19168301916001600160401b038311848410176070578084926040948552833981010312606c5780519060ff82168203606c5760200151906080525f554260015560405161026d90816100858239608051816102130152f35b5f80fd5b634e487b7160e01b5f52604160045260245ffdfe6080806040526004361015610012575f80fd5b5f3560e01c908163313ce567146101fc575080633ae6f171146101df57806351ab28a9146101c657806354fd4d50146101ab5780637284e4161461011c5780639a6fc8f5146100cd578063a87a20ce146100b15763feaf968c14610074575f80fd5b346100ad575f3660031901126100ad575f546001805460408051838152602081019490945283018190526060830152608082015260a090f35b5f80fd5b346100ad5760203660031901126100ad576004355f5542600155005b346100ad5760203660031901126100ad5760043569ffffffffffffffffffff8116036100ad575f546001805460408051838152602081019490945283018190526060830152608082015260a090f35b346100ad575f3660031901126100ad576040516040810181811067ffffffffffffffff8211176101975760405260128152604060208201917126b7b1b5902b199020b3b3b932b3b0ba37b960711b83528151928391602083525180918160208501528484015e5f828201840152601f01601f19168101030190f35b634e487b7160e01b5f52604160045260245ffd5b346100ad575f3660031901126100ad57602060405160018152f35b346100ad5760203660031901126100ad57600435600155005b346100ad575f3660031901126100ad576020600154604051908152f35b346100ad575f3660031901126100ad5760209060ff7f0000000000000000000000000000000000000000000000000000000000000000168152f3fea2646970667358221220dda0208596ad642f78d35b05864413c344ce4041b4cc2c07f811c5b922ae168464736f6c634300081e0033","linkReferences":{}},"methodIdentifiers":{"decimals()":"313ce567","description()":"7284e416","getRoundData(uint80)":"9a6fc8f5","i_latestTimestamp()":"3ae6f171","latestRoundData()":"feaf968c","updateAnswer(int256)":"a87a20ce","updateTimestamp(uint256)":"51ab28a9","version()":"54fd4d50"},"id":84}