{"abi":[{"type":"constructor","inputs":[{"name":"_stalePriceTimeout","type":"uint256","internalType":"uint256"}],"stateMutability":"nonpayable"},{"type":"function","name":"PRICE_DECIMALS","inputs":[],"outputs":[{"name":"","type":"uint8","internalType":"uint8"}],"stateMutability":"view"},{"type":"function","name":"STALE_PRICE_TIMEOUT","inputs":[],"outputs":[{"name":"","type":"uint256","internalType":"uint256"}],"stateMutability":"view"},{"type":"function","name":"getPrice","inputs":[{"name":"_asset","type":"address","internalType":"address"}],"outputs":[{"name":"","type":"uint256","internalType":"uint256"}],"stateMutability":"view"},{"type":"function","name":"isAuthorized","inputs":[{"name":"","type":"address","internalType":"address"}],"outputs":[{"name":"","type":"bool","internalType":"bool"}],"stateMutability":"view"},{"type":"function","name":"owner","inputs":[],"outputs":[{"name":"","type":"address","internalType":"address"}],"stateMutability":"view"},{"type":"function","name":"renounceOwnership","inputs":[],"outputs":[],"stateMutability":"nonpayable"},{"type":"function","name":"setAuthorization","inputs":[{"name":"_user","type":"address","internalType":"address"},{"name":"_authorized","type":"bool","internalType":"bool"}],"outputs":[],"stateMutability":"nonpayable"},{"type":"function","name":"setPriceFeed","inputs":[{"name":"_asset","type":"address","internalType":"address"},{"name":"_feed","type":"address","internalType":"address"}],"outputs":[],"stateMutability":"nonpayable"},{"type":"function","name":"transferOwnership","inputs":[{"name":"newOwner","type":"address","internalType":"address"}],"outputs":[],"stateMutability":"nonpayable"},{"type":"event","name":"AuthorizationSet","inputs":[{"name":"user","type":"address","indexed":true,"internalType":"address"},{"name":"authorized","type":"bool","indexed":false,"internalType":"bool"}],"anonymous":false},{"type":"event","name":"OwnershipTransferred","inputs":[{"name":"previousOwner","type":"address","indexed":true,"internalType":"address"},{"name":"newOwner","type":"address","indexed":true,"internalType":"address"}],"anonymous":false},{"type":"event","name":"PriceFeedUpdated","inputs":[{"name":"asset","type":"address","indexed":true,"internalType":"address"},{"name":"feed","type":"address","indexed":true,"internalType":"address"}],"anonymous":false},{"type":"error","name":"InvalidPrice","inputs":[{"name":"asset","type":"address","internalType":"address"},{"name":"price","type":"int256","internalType":"int256"}]},{"type":"error","name":"InvalidPriceFeedAddress","inputs":[]},{"type":"error","name":"NotAuthorized","inputs":[{"name":"caller","type":"address","internalType":"address"}]},{"type":"error","name":"OwnableInvalidOwner","inputs":[{"name":"owner","type":"address","internalType":"address"}]},{"type":"error","name":"OwnableUnauthorizedAccount","inputs":[{"name":"account","type":"address","internalType":"address"}]},{"type":"error","name":"PriceFeedNotSet","inputs":[{"name":"asset","type":"address","internalType":"address"}]},{"type":"error","name":"StalePrice","inputs":[{"name":"asset","type":"address","internalType":"address"},{"name":"updatedAt","type":"uint256","internalType":"uint256"}]}],"bytecode":{"object":"0x60a0346100bf57601f6106d338819003918201601f19168301916001600160401b038311848410176100c3578084926020946040528339810103126100bf575133156100ac575f8054336001600160a01b0319821681178355604051939290916001600160a01b0316907f8be0079c531659141344cd1fd0a4f28419497f9722a3daafe3b4186f6b6457e09080a36080526105fb90816100d8823960805181818161017701526103b60152f35b631e4fbdf760e01b5f525f60045260245ffd5b5f80fd5b634e487b7160e01b5f52604160045260245ffdfe6080806040526004361015610012575f80fd5b5f3560e01c90816341976e091461032d57508063715018a6146102d657806376e112861461023e5780638da5cb5b14610217578063eecea0001461019a578063f08f404a14610160578063f1a640f814610145578063f2fde38b146100c05763fe9fbb801461007f575f80fd5b346100bc5760203660031901126100bc576001600160a01b036100a061053c565b165f526002602052602060ff60405f2054166040519015158152f35b5f80fd5b346100bc5760203660031901126100bc576100d961053c565b6100e161059f565b6001600160a01b03168015610132575f80546001600160a01b03198116831782556001600160a01b0316907f8be0079c531659141344cd1fd0a4f28419497f9722a3daafe3b4186f6b6457e09080a3005b631e4fbdf760e01b5f525f60045260245ffd5b346100bc575f3660031901126100bc57602060405160128152f35b346100bc575f3660031901126100bc5760206040517f00000000000000000000000000000000000000000000000000000000000000008152f35b346100bc5760403660031901126100bc576101b361053c565b602435908115158092036100bc5760207f5056a36abc1db1625034fdf114a164a0345b3ccf992fc1d51055e017375f4732916101ed61059f565b60018060a01b031692835f526002825260405f2060ff1981541660ff8316179055604051908152a2005b346100bc575f3660031901126100bc575f546040516001600160a01b039091168152602090f35b346100bc5760403660031901126100bc5761025761053c565b6024356001600160a01b03811691908290036100bc5761027561059f565b81156102c7576001600160a01b03165f81815260016020526040812080546001600160a01b031916841790557fa8abe0398416476db5b05737cd4da3b3cbde5012d978a6a6c3fd49d3217535369080a3005b63e358806360e01b5f5260045ffd5b346100bc575f3660031901126100bc576102ee61059f565b5f80546001600160a01b0319811682556001600160a01b03167f8be0079c531659141344cd1fd0a4f28419497f9722a3daafe3b4186f6b6457e08280a3005b346100bc5760203660031901126100bc5761034661053c565b335f52600260205260ff60405f20541615610529576001600160a01b039081165f8181526001602052604090205490911690811561051757633fabe5a360e21b835260a083600481855afa90811561048a575f935f926104c1575b505f8413156104aa57814203428111610439577f0000000000000000000000000000000000000000000000000000000000000000106104955760405163313ce56760e01b81528490602081600481885afa801561048a575f9061044d575b60ff91501660120360ff81116104395760ff16604d811161043957600a0a9081810291818304149015171561043957602090604051908152f35b634e487b7160e01b5f52601160045260245ffd5b506020813d602011610482575b8161046760209383610552565b810103126100bc575160ff811681036100bc5760ff906103ff565b3d915061045a565b6040513d5f823e3d90fd5b63758ff4b760e11b5f5260045260245260445ffd5b839063dcd07d4f60e01b5f5260045260245260445ffd5b9350905060a0833d60a01161050f575b816104de60a09383610552565b810103126100bc576104ef83610588565b506020830151610506608060608601519501610588565b509290846103a1565b3d91506104d1565b638a7a791d60e01b5f5260045260245ffd5b634a0bfec160e01b5f523360045260245ffd5b600435906001600160a01b03821682036100bc57565b90601f8019910116810190811067ffffffffffffffff82111761057457604052565b634e487b7160e01b5f52604160045260245ffd5b519069ffffffffffffffffffff821682036100bc57565b5f546001600160a01b031633036105b257565b63118cdaa760e01b5f523360045260245ffdfea26469706673582212204cbca560ed12b6dd80858e082cc518c888eccb8656488c7f1e82c568fe9595d264736f6c634300081e0033","linkReferences":{}},"methodIdentifiers":{"PRICE_DECIMALS()":"f1a640f8","STALE_PRICE_TIMEOUT()":"f08f404a","getPrice(address)":"41976e09","isAuthorized(address)":"fe9fbb80","owner()":"8da5cb5b","renounceOwnership()":"715018a6","setAuthorization(address,bool)":"eecea000","setPriceFeed(address,address)":"76e11286","transferOwnership(address)":"f2fde38b"},"id":77}