{"abi":[{"type":"constructor","inputs":[{"name":"initialAdmin","type":"address","internalType":"address"}],"stateMutability":"nonpayable"},{"type":"function","name":"DEFAULT_ADMIN_ROLE","inputs":[],"outputs":[{"name":"","type":"bytes32","internalType":"bytes32"}],"stateMutability":"view"},{"type":"function","name":"MINTER_GRANTER_ROLE","inputs":[],"outputs":[{"name":"","type":"bytes32","internalType":"bytes32"}],"stateMutability":"view"},{"type":"function","name":"MINTER_ROLE","inputs":[],"outputs":[{"name":"","type":"bytes32","internalType":"bytes32"}],"stateMutability":"view"},{"type":"function","name":"allowance","inputs":[{"name":"owner","type":"address","internalType":"address"},{"name":"spender","type":"address","internalType":"address"}],"outputs":[{"name":"","type":"uint256","internalType":"uint256"}],"stateMutability":"view"},{"type":"function","name":"approve","inputs":[{"name":"spender","type":"address","internalType":"address"},{"name":"value","type":"uint256","internalType":"uint256"}],"outputs":[{"name":"","type":"bool","internalType":"bool"}],"stateMutability":"nonpayable"},{"type":"function","name":"balanceOf","inputs":[{"name":"account","type":"address","internalType":"address"}],"outputs":[{"name":"","type":"uint256","internalType":"uint256"}],"stateMutability":"view"},{"type":"function","name":"burn","inputs":[{"name":"value","type":"uint256","internalType":"uint256"}],"outputs":[],"stateMutability":"nonpayable"},{"type":"function","name":"burnFrom","inputs":[{"name":"account","type":"address","internalType":"address"},{"name":"value","type":"uint256","internalType":"uint256"}],"outputs":[],"stateMutability":"nonpayable"},{"type":"function","name":"decimals","inputs":[],"outputs":[{"name":"","type":"uint8","internalType":"uint8"}],"stateMutability":"view"},{"type":"function","name":"getRoleAdmin","inputs":[{"name":"role","type":"bytes32","internalType":"bytes32"}],"outputs":[{"name":"","type":"bytes32","internalType":"bytes32"}],"stateMutability":"view"},{"type":"function","name":"grantRole","inputs":[{"name":"role","type":"bytes32","internalType":"bytes32"},{"name":"account","type":"address","internalType":"address"}],"outputs":[],"stateMutability":"nonpayable"},{"type":"function","name":"hasRole","inputs":[{"name":"role","type":"bytes32","internalType":"bytes32"},{"name":"account","type":"address","internalType":"address"}],"outputs":[{"name":"","type":"bool","internalType":"bool"}],"stateMutability":"view"},{"type":"function","name":"mint","inputs":[{"name":"account","type":"address","internalType":"address"},{"name":"amount","type":"uint256","internalType":"uint256"}],"outputs":[],"stateMutability":"nonpayable"},{"type":"function","name":"name","inputs":[],"outputs":[{"name":"","type":"string","internalType":"string"}],"stateMutability":"view"},{"type":"function","name":"owner","inputs":[],"outputs":[{"name":"","type":"address","internalType":"address"}],"stateMutability":"view"},{"type":"function","name":"renounceOwnership","inputs":[],"outputs":[],"stateMutability":"nonpayable"},{"type":"function","name":"renounceRole","inputs":[{"name":"role","type":"bytes32","internalType":"bytes32"},{"name":"callerConfirmation","type":"address","internalType":"address"}],"outputs":[],"stateMutability":"nonpayable"},{"type":"function","name":"revokeRole","inputs":[{"name":"role","type":"bytes32","internalType":"bytes32"},{"name":"account","type":"address","internalType":"address"}],"outputs":[],"stateMutability":"nonpayable"},{"type":"function","name":"supportsInterface","inputs":[{"name":"interfaceId","type":"bytes4","internalType":"bytes4"}],"outputs":[{"name":"","type":"bool","internalType":"bool"}],"stateMutability":"view"},{"type":"function","name":"symbol","inputs":[],"outputs":[{"name":"","type":"string","internalType":"string"}],"stateMutability":"view"},{"type":"function","name":"totalSupply","inputs":[],"outputs":[{"name":"","type":"uint256","internalType":"uint256"}],"stateMutability":"view"},{"type":"function","name":"transfer","inputs":[{"name":"to","type":"address","internalType":"address"},{"name":"value","type":"uint256","internalType":"uint256"}],"outputs":[{"name":"","type":"bool","internalType":"bool"}],"stateMutability":"nonpayable"},{"type":"function","name":"transferFrom","inputs":[{"name":"from","type":"address","internalType":"address"},{"name":"to","type":"address","internalType":"address"},{"name":"value","type":"uint256","internalType":"uint256"}],"outputs":[{"name":"","type":"bool","internalType":"bool"}],"stateMutability":"nonpayable"},{"type":"function","name":"transferOwnership","inputs":[{"name":"newOwner","type":"address","internalType":"address"}],"outputs":[],"stateMutability":"nonpayable"},{"type":"event","name":"Approval","inputs":[{"name":"owner","type":"address","indexed":true,"internalType":"address"},{"name":"spender","type":"address","indexed":true,"internalType":"address"},{"name":"value","type":"uint256","indexed":false,"internalType":"uint256"}],"anonymous":false},{"type":"event","name":"OwnershipTransferred","inputs":[{"name":"previousOwner","type":"address","indexed":true,"internalType":"address"},{"name":"newOwner","type":"address","indexed":true,"internalType":"address"}],"anonymous":false},{"type":"event","name":"RoleAdminChanged","inputs":[{"name":"role","type":"bytes32","indexed":true,"internalType":"bytes32"},{"name":"previousAdminRole","type":"bytes32","indexed":true,"internalType":"bytes32"},{"name":"newAdminRole","type":"bytes32","indexed":true,"internalType":"bytes32"}],"anonymous":false},{"type":"event","name":"RoleGranted","inputs":[{"name":"role","type":"bytes32","indexed":true,"internalType":"bytes32"},{"name":"account","type":"address","indexed":true,"internalType":"address"},{"name":"sender","type":"address","indexed":true,"internalType":"address"}],"anonymous":false},{"type":"event","name":"RoleRevoked","inputs":[{"name":"role","type":"bytes32","indexed":true,"internalType":"bytes32"},{"name":"account","type":"address","indexed":true,"internalType":"address"},{"name":"sender","type":"address","indexed":true,"internalType":"address"}],"anonymous":false},{"type":"event","name":"Transfer","inputs":[{"name":"from","type":"address","indexed":true,"internalType":"address"},{"name":"to","type":"address","indexed":true,"internalType":"address"},{"name":"value","type":"uint256","indexed":false,"internalType":"uint256"}],"anonymous":false},{"type":"error","name":"AccessControlBadConfirmation","inputs":[]},{"type":"error","name":"AccessControlUnauthorizedAccount","inputs":[{"name":"account","type":"address","internalType":"address"},{"name":"neededRole","type":"bytes32","internalType":"bytes32"}]},{"type":"error","name":"ERC20InsufficientAllowance","inputs":[{"name":"spender","type":"address","internalType":"address"},{"name":"allowance","type":"uint256","internalType":"uint256"},{"name":"needed","type":"uint256","internalType":"uint256"}]},{"type":"error","name":"ERC20InsufficientBalance","inputs":[{"name":"sender","type":"address","internalType":"address"},{"name":"balance","type":"uint256","internalType":"uint256"},{"name":"needed","type":"uint256","internalType":"uint256"}]},{"type":"error","name":"ERC20InvalidApprover","inputs":[{"name":"approver","type":"address","internalType":"address"}]},{"type":"error","name":"ERC20InvalidReceiver","inputs":[{"name":"receiver","type":"address","internalType":"address"}]},{"type":"error","name":"ERC20InvalidSender","inputs":[{"name":"sender","type":"address","internalType":"address"}]},{"type":"error","name":"ERC20InvalidSpender","inputs":[{"name":"spender","type":"address","internalType":"address"}]},{"type":"error","name":"OwnableInvalidOwner","inputs":[{"name":"owner","type":"address","internalType":"address"}]},{"type":"error","name":"OwnableUnauthorizedAccount","inputs":[{"name":"account","type":"address","internalType":"address"}]}],"bytecode":{"object":"0x608060405234610424576113c36020813803918261001c81610428565b93849283398101031261042457516001600160a01b03811690818103610424576100466040610428565b91600e83526d29a1a19029ba30b13632b1b7b4b760911b602084015261006c6040610428565b600781526614d0d0cb5554d160ca1b602082015283519092906001600160401b03811161033557600354600181811c9116801561041a575b602082101461031757601f81116103b7575b50602094601f8211600114610354579481929394955f92610349575b50508160011b915f199060031b1c1916176003555b82516001600160401b03811161033557600454600181811c9116801561032b575b602082101461031757601f81116102b4575b506020601f821160011461025157819293945f92610246575b50508160011b915f199060031b1c1916176004555b811561023357600680546001600160a01b0319811684179091556101ad92906001600160a01b03167f8be0079c531659141344cd1fd0a4f28419497f9722a3daafe3b4186f6b6457e05f80a361019d8161044d565b506101a7816104c3565b50610543565b505f5160206113635f395f51905f525f81815260056020527f15a28d26fa1bf736cf7edc9922607171ccb09c3c73b808e7772a3013e068a52380545f5160206113435f395f51905f52918290556040519391929091907fbd79b86ffe0ab8e8776151514217cd7cacd52c909f66475c3af44e129f0b00ff9080a4610d3f90816105c48239f35b631e4fbdf760e01b5f525f60045260245ffd5b015190505f80610133565b601f1982169060045f52805f20915f5b81811061029c57509583600195969710610284575b505050811b01600455610148565b01515f1960f88460031b161c191690555f8080610276565b9192602060018192868b015181550194019201610261565b60045f527f8a35acfbc15ff81a39ae7d344fd709f28e8600b4aa8c65c6b64bfe7fe36bd19b601f830160051c8101916020841061030d575b601f0160051c01905b818110610302575061011a565b5f81556001016102f5565b90915081906102ec565b634e487b7160e01b5f52602260045260245ffd5b90607f1690610108565b634e487b7160e01b5f52604160045260245ffd5b015190505f806100d2565b601f1982169560035f52805f20915f5b88811061039f57508360019596979810610387575b505050811b016003556100e7565b01515f1960f88460031b161c191690555f8080610379565b91926020600181928685015181550194019201610364565b60035f527fc2575a0e9e593c00f959f8c92f12db2869c3395a3b0502d05e2516446f71f85b601f830160051c81019160208410610410575b601f0160051c01905b81811061040557506100b6565b5f81556001016103f8565b90915081906103ef565b90607f16906100a4565b5f80fd5b6040519190601f01601f191682016001600160401b0381118382101761033557604052565b6001600160a01b0381165f9081525f5160206113a35f395f51905f52602052604090205460ff166104be576001600160a01b03165f8181525f5160206113a35f395f51905f5260205260408120805460ff191660011790553391905f5160206113035f395f51905f528180a4600190565b505f90565b6001600160a01b0381165f9081525f5160206113835f395f51905f52602052604090205460ff166104be576001600160a01b03165f8181525f5160206113835f395f51905f5260205260408120805460ff191660011790553391905f5160206113435f395f51905f52905f5160206113035f395f51905f529080a4600190565b6001600160a01b0381165f9081525f5160206113235f395f51905f52602052604090205460ff166104be576001600160a01b03165f8181525f5160206113235f395f51905f5260205260408120805460ff191660011790553391905f5160206113635f395f51905f52905f5160206113035f395f51905f529080a460019056fe6080806040526004361015610012575f80fd5b5f3560e01c90816301ffc9a71461091e5750806306fdde031461084c578063095ea7b3146107a457806318160ddd1461078757806323b872dd1461074f578063248a9ca31461071c5780632f2ff15d146106de578063313ce567146106c357806336568abe1461067f57806340c10f191461056d57806342966c6814610550578063468eb25b1461051657806370a08231146104df578063715018a61461048457806379cc6790146104545780638da5cb5b1461042c57806391d14854146103e357806395d89b41146102c8578063a217fddf146102ae578063a9059cbb1461027d578063d539139314610243578063d547741f146101fe578063dd62ed3e146101ae5763f2fde38b14610124575f80fd5b346101aa5760203660031901126101aa5761013d61099b565b610145610ce2565b6001600160a01b0316801561019757600680546001600160a01b0319811683179091556001600160a01b03167f8be0079c531659141344cd1fd0a4f28419497f9722a3daafe3b4186f6b6457e05f80a3005b631e4fbdf760e01b5f525f60045260245ffd5b5f80fd5b346101aa5760403660031901126101aa576101c761099b565b6101cf6109b1565b6001600160a01b039182165f908152600160209081526040808320949093168252928352819020549051908152f35b346101aa5760403660031901126101aa5761024160043561021d6109b1565b9061023c610237825f526005602052600160405f20015490565b610b14565b610bda565b005b346101aa575f3660031901126101aa5760206040517f9f2df0fed2c77648de5860a4cc508cd0818c85b8b8a1ab4ceeef8d981c8956a68152f35b346101aa5760403660031901126101aa576102a361029961099b565b6024359033610a6a565b602060405160018152f35b346101aa575f3660031901126101aa5760206040515f8152f35b346101aa575f3660031901126101aa576040515f6004548060011c906001811680156103d9575b6020831081146103c5578285529081156103a95750600114610354575b50819003601f01601f191681019067ffffffffffffffff8211818310176103405761033c82918260405282610971565b0390f35b634e487b7160e01b5f52604160045260245ffd5b905060045f527f8a35acfbc15ff81a39ae7d344fd709f28e8600b4aa8c65c6b64bfe7fe36bd19b5f905b8282106103935750602091508201018261030c565b600181602092548385880101520191019061037e565b90506020925060ff191682840152151560051b8201018261030c565b634e487b7160e01b5f52602260045260245ffd5b91607f16916102ef565b346101aa5760403660031901126101aa576103fc6109b1565b6004355f52600560205260405f209060018060a01b03165f52602052602060ff60405f2054166040519015158152f35b346101aa575f3660031901126101aa576006546040516001600160a01b039091168152602090f35b346101aa5760403660031901126101aa5761024161047061099b565b6024359061047f8233836109c7565b610c5e565b346101aa575f3660031901126101aa5761049c610ce2565b600680546001600160a01b031981169091555f906001600160a01b03167f8be0079c531659141344cd1fd0a4f28419497f9722a3daafe3b4186f6b6457e08280a3005b346101aa5760203660031901126101aa576001600160a01b0361050061099b565b165f525f602052602060405f2054604051908152f35b346101aa575f3660031901126101aa5760206040517f47a68d8458a4cb53ec87575e2a8d66c3537340b822146bbc0fce6adea417f3f08152f35b346101aa5760203660031901126101aa5761024160043533610c5e565b346101aa5760403660031901126101aa5761058661099b565b335f9081527f15a28d26fa1bf736cf7edc9922607171ccb09c3c73b808e7772a3013e068a5226020526040902054602435919060ff1615610648576001600160a01b031690811561063557600254908082018092116106215760207fddf252ad1be2c89b69c2b068fc378daa952ba7f163c4a11628f55a4df523b3ef915f9360025584845283825260408420818154019055604051908152a3005b634e487b7160e01b5f52601160045260245ffd5b63ec442f0560e01b5f525f60045260245ffd5b63e2517d3f60e01b5f52336004527f9f2df0fed2c77648de5860a4cc508cd0818c85b8b8a1ab4ceeef8d981c8956a660245260445ffd5b346101aa5760403660031901126101aa576106986109b1565b336001600160a01b038216036106b45761024190600435610bda565b63334bd91960e11b5f5260045ffd5b346101aa575f3660031901126101aa57602060405160128152f35b346101aa5760403660031901126101aa576102416004356106fd6109b1565b90610717610237825f526005602052600160405f20015490565b610b4e565b346101aa5760203660031901126101aa5760206107476004355f526005602052600160405f20015490565b604051908152f35b346101aa5760603660031901126101aa576102a361076b61099b565b6107736109b1565b604435916107828333836109c7565b610a6a565b346101aa575f3660031901126101aa576020600254604051908152f35b346101aa5760403660031901126101aa576107bd61099b565b602435903315610839576001600160a01b031690811561082657335f52600160205260405f20825f526020528060405f20556040519081527f8c5be1e5ebec7d5bd14f71427d1e84f3dd0314c0f7b2291e5b200ac8c7c3b92560203392a3602060405160018152f35b634a1406b160e11b5f525f60045260245ffd5b63e602df0560e01b5f525f60045260245ffd5b346101aa575f3660031901126101aa576040515f6003548060011c90600181168015610914575b6020831081146103c5578285529081156103a957506001146108bf5750819003601f01601f191681019067ffffffffffffffff8211818310176103405761033c82918260405282610971565b905060035f527fc2575a0e9e593c00f959f8c92f12db2869c3395a3b0502d05e2516446f71f85b5f905b8282106108fe5750602091508201018261030c565b60018160209254838588010152019101906108e9565b91607f1691610873565b346101aa5760203660031901126101aa576004359063ffffffff60e01b82168092036101aa57602091637965db0b60e01b8114908115610960575b5015158152f35b6301ffc9a760e01b14905083610959565b602060409281835280519182918282860152018484015e5f828201840152601f01601f1916010190565b600435906001600160a01b03821682036101aa57565b602435906001600160a01b03821682036101aa57565b6001600160a01b039081165f818152600160209081526040808320948616835293905291909120549291905f198410610a01575b50505050565b828410610a47578015610839576001600160a01b03821615610826575f52600160205260405f209060018060a01b03165f5260205260405f20910390555f8080806109fb565b508290637dc7a0d960e11b5f5260018060a01b031660045260245260445260645ffd5b6001600160a01b0316908115610b01576001600160a01b031691821561063557815f525f60205260405f2054818110610ae857817fddf252ad1be2c89b69c2b068fc378daa952ba7f163c4a11628f55a4df523b3ef92602092855f525f84520360405f2055845f525f825260405f20818154019055604051908152a3565b8263391434e360e21b5f5260045260245260445260645ffd5b634b637e8f60e11b5f525f60045260245ffd5b5f81815260056020908152604080832033845290915290205460ff1615610b385750565b63e2517d3f60e01b5f523360045260245260445ffd5b5f8181526005602090815260408083206001600160a01b038616845290915290205460ff16610bd4575f8181526005602090815260408083206001600160a01b0395909516808452949091528120805460ff19166001179055339291907f2f8788117e7eff1d82e926ec794901d17c78024a50270940304540a733656f0d9080a4600190565b50505f90565b5f8181526005602090815260408083206001600160a01b038616845290915290205460ff1615610bd4575f8181526005602090815260408083206001600160a01b0395909516808452949091528120805460ff19169055339291907ff6391f5c32d9c69d2a47ea670b442974b53935d1edc7fd64eb21e047a839171b9080a4600190565b9091906001600160a01b03168015610b0157805f525f60205260405f2054838110610cc8576020845f94957fddf252ad1be2c89b69c2b068fc378daa952ba7f163c4a11628f55a4df523b3ef938587528684520360408620558060025403600255604051908152a3565b915063391434e360e21b5f5260045260245260445260645ffd5b6006546001600160a01b03163303610cf657565b63118cdaa760e01b5f523360045260245ffdfea264697066735822122058fdbc4e155f0c0b0b83a682e0f777bd4dfedb9c007e75e52b54473f1bae748d64736f6c634300081e00332f8788117e7eff1d82e926ec794901d17c78024a50270940304540a733656f0d15a28d26fa1bf736cf7edc9922607171ccb09c3c73b808e7772a3013e068a52247a68d8458a4cb53ec87575e2a8d66c3537340b822146bbc0fce6adea417f3f09f2df0fed2c77648de5860a4cc508cd0818c85b8b8a1ab4ceeef8d981c8956a61ea464b1fe8a552e796f24999ac5c50198c34f4ef0531ea595e1b0729db5541005b8ccbb9d4d8fb16ea74ce3c29a41f1b461fbdaff4714a0d9a8eb05499746bc","linkReferences":{}},"methodIdentifiers":{"DEFAULT_ADMIN_ROLE()":"a217fddf","MINTER_GRANTER_ROLE()":"468eb25b","MINTER_ROLE()":"d5391393","allowance(address,address)":"dd62ed3e","approve(address,uint256)":"095ea7b3","balanceOf(address)":"70a08231","burn(uint256)":"42966c68","burnFrom(address,uint256)":"79cc6790","decimals()":"313ce567","getRoleAdmin(bytes32)":"248a9ca3","grantRole(bytes32,address)":"2f2ff15d","hasRole(bytes32,address)":"91d14854","mint(address,uint256)":"40c10f19","name()":"06fdde03","owner()":"8da5cb5b","renounceOwnership()":"715018a6","renounceRole(bytes32,address)":"36568abe","revokeRole(bytes32,address)":"d547741f","supportsInterface(bytes4)":"01ffc9a7","symbol()":"95d89b41","totalSupply()":"18160ddd","transfer(address,uint256)":"a9059cbb","transferFrom(address,address,uint256)":"23b872dd","transferOwnership(address)":"f2fde38b"},"id":88}