{"abi":[{"type":"constructor","inputs":[{"name":"_stakingToken","type":"address","internalType":"address"},{"name":"_rewardsToken","type":"address","internalType":"address"},{"name":"_rewardsDistribution","type":"address","internalType":"address"},{"name":"initialOwner","type":"address","internalType":"address"}],"stateMutability":"nonpayable"},{"type":"function","name":"earned","inputs":[{"name":"account","type":"address","internalType":"address"}],"outputs":[{"name":"","type":"uint256","internalType":"uint256"}],"stateMutability":"view"},{"type":"function","name":"getReward","inputs":[],"outputs":[],"stateMutability":"nonpayable"},{"type":"function","name":"lastTimeRewardApplicable","inputs":[],"outputs":[{"name":"","type":"uint256","internalType":"uint256"}],"stateMutability":"view"},{"type":"function","name":"lastUpdateTime","inputs":[],"outputs":[{"name":"","type":"uint256","internalType":"uint256"}],"stateMutability":"view"},{"type":"function","name":"notifyRewardAmount","inputs":[{"name":"reward","type":"uint256","internalType":"uint256"}],"outputs":[],"stateMutability":"nonpayable"},{"type":"function","name":"owner","inputs":[],"outputs":[{"name":"","type":"address","internalType":"address"}],"stateMutability":"view"},{"type":"function","name":"periodFinish","inputs":[],"outputs":[{"name":"","type":"uint256","internalType":"uint256"}],"stateMutability":"view"},{"type":"function","name":"renounceOwnership","inputs":[],"outputs":[],"stateMutability":"nonpayable"},{"type":"function","name":"rewardPerTokenStored","inputs":[],"outputs":[{"name":"","type":"uint256","internalType":"uint256"}],"stateMutability":"view"},{"type":"function","name":"rewardRate","inputs":[],"outputs":[{"name":"","type":"uint256","internalType":"uint256"}],"stateMutability":"view"},{"type":"function","name":"rewardsDistribution","inputs":[],"outputs":[{"name":"","type":"address","internalType":"address"}],"stateMutability":"view"},{"type":"function","name":"rewardsToken","inputs":[],"outputs":[{"name":"","type":"address","internalType":"contract IERC20"}],"stateMutability":"view"},{"type":"function","name":"setRewardsDistribution","inputs":[{"name":"_rewardsDistribution","type":"address","internalType":"address"}],"outputs":[],"stateMutability":"nonpayable"},{"type":"function","name":"stake","inputs":[{"name":"amount","type":"uint256","internalType":"uint256"}],"outputs":[],"stateMutability":"nonpayable"},{"type":"function","name":"staked","inputs":[{"name":"","type":"address","internalType":"address"}],"outputs":[{"name":"","type":"uint256","internalType":"uint256"}],"stateMutability":"view"},{"type":"function","name":"stakingToken","inputs":[],"outputs":[{"name":"","type":"address","internalType":"contract IERC20"}],"stateMutability":"view"},{"type":"function","name":"transferOwnership","inputs":[{"name":"newOwner","type":"address","internalType":"address"}],"outputs":[],"stateMutability":"nonpayable"},{"type":"function","name":"unstake","inputs":[{"name":"amount","type":"uint256","internalType":"uint256"}],"outputs":[],"stateMutability":"nonpayable"},{"type":"function","name":"userRewardPerTokenPaid","inputs":[{"name":"","type":"address","internalType":"address"}],"outputs":[{"name":"","type":"uint256","internalType":"uint256"}],"stateMutability":"view"},{"type":"event","name":"OwnershipTransferred","inputs":[{"name":"previousOwner","type":"address","indexed":true,"internalType":"address"},{"name":"newOwner","type":"address","indexed":true,"internalType":"address"}],"anonymous":false},{"type":"event","name":"RewardAdded","inputs":[{"name":"reward","type":"uint256","indexed":false,"internalType":"uint256"}],"anonymous":false},{"type":"event","name":"RewardPaid","inputs":[{"name":"user","type":"address","indexed":true,"internalType":"address"},{"name":"reward","type":"uint256","indexed":false,"internalType":"uint256"}],"anonymous":false},{"type":"event","name":"Staked","inputs":[{"name":"user","type":"address","indexed":true,"internalType":"address"},{"name":"amount","type":"uint256","indexed":false,"internalType":"uint256"}],"anonymous":false},{"type":"event","name":"Unstaked","inputs":[{"name":"user","type":"address","indexed":true,"internalType":"address"},{"name":"amount","type":"uint256","indexed":false,"internalType":"uint256"}],"anonymous":false},{"type":"error","name":"OwnableInvalidOwner","inputs":[{"name":"owner","type":"address","internalType":"address"}]},{"type":"error","name":"OwnableUnauthorizedAccount","inputs":[{"name":"account","type":"address","internalType":"address"}]}],"bytecode":{"object":"0x60c03461014557601f610dac38819003918201601f19168301916001600160401b0383118484101761014957808492608094604052833981010312610145576100478161015d565b906100546020820161015d565b6100606040830161015d565b916001600160a01b03906100769060600161015d565b16928315610132575f80546001600160a01b031981168617825560405195916001600160a01b03909116907f8be0079c531659141344cd1fd0a4f28419497f9722a3daafe3b4186f6b6457e09080a36001600160a01b0390811660805290811660a052600480546001600160a01b03191692909116919091179055610c3a9081610172823960805181818161027201528181610448015281816108460152610a9c015260a0518181816101c501528181610557015261067d0152f35b631e4fbdf760e01b5f525f60045260245ffd5b5f80fd5b634e487b7160e01b5f52604160045260245ffd5b51906001600160a01b03821682036101455756fe60806040526004361015610011575f80fd5b5f3560e01c80628cc2621461097a57806319762143146109305780632e17de78146107bf5780633c6b16ab146105e05780633d18b912146104f65780633fc6df6e146104ce578063715018a61461047757806372f702f3146104335780637b0a47ee1461041657806380faa57d146103f45780638b876347146103b85780638da5cb5b1461039157806398807d8414610355578063a694fc3a14610211578063c8f33c91146101f4578063d1af0c7d146101b0578063df136d6514610193578063ebe2b12b146101765763f2fde38b146100e9575f80fd5b34610172576020366003190112610172576004356001600160a01b0381169081900361017257610117610bde565b801561015f575f80546001600160a01b03198116831782556001600160a01b0316907f8be0079c531659141344cd1fd0a4f28419497f9722a3daafe3b4186f6b6457e09080a3005b631e4fbdf760e01b5f525f60045260245ffd5b5f80fd5b34610172575f366003190112610172576020600754604051908152f35b34610172575f366003190112610172576020600354604051908152f35b34610172575f366003190112610172576040517f00000000000000000000000000000000000000000000000000000000000000006001600160a01b03168152602090f35b34610172575f366003190112610172576020600654604051908152f35b346101725760203660031901126101725760043561022d610a87565b600355610238610a73565b600655801561031f576040516323b872dd60e01b8152336004820152306024820152604481018290526020816064815f6001600160a01b037f0000000000000000000000000000000000000000000000000000000000000000165af18015610314576102e7575b50335f52600160205260405f206102b7828254610a66565b90556040519081527f9e71bc8eea02a63969f509818f2dafb9254532904319f9dbda79b67bd34a5f3d60203392a2005b6103089060203d60201161030d575b6103008183610a18565b810190610a4e565b61029f565b503d6102f6565b6040513d5f823e3d90fd5b60405162461bcd60e51b815260206004820152600e60248201526d043616e6e6f74207374616b6520360941b6044820152606490fd5b34610172576020366003190112610172576004356001600160a01b03811690819003610172575f526001602052602060405f2054604051908152f35b34610172575f366003190112610172575f546040516001600160a01b039091168152602090f35b34610172576020366003190112610172576004356001600160a01b03811690819003610172575f526002602052602060405f2054604051908152f35b34610172575f36600319011261017257602061040e610a73565b604051908152f35b34610172575f366003190112610172576020600554604051908152f35b34610172575f366003190112610172576040517f00000000000000000000000000000000000000000000000000000000000000006001600160a01b03168152602090f35b34610172575f3660031901126101725761048f610bde565b5f80546001600160a01b0319811682556001600160a01b03167f8be0079c531659141344cd1fd0a4f28419497f9722a3daafe3b4186f6b6457e08280a3005b34610172575f366003190112610172576004546040516001600160a01b039091168152602090f35b34610172575f3660031901126101725761050e610a87565b600355610519610a73565b600655610525336109c9565b8061052c57005b60405163a9059cbb60e01b8152336004820152602481018290526020816044815f6001600160a01b037f0000000000000000000000000000000000000000000000000000000000000000165af18015610314576105c3575b50600354335f52600260205260405f20556040519081527fe2403640ba68fed3a2f88b7557551d1993f84b99bb10ff833f0cf8db0c5e048660203392a2005b6105db9060203d60201161030d576103008183610a18565b610584565b34610172576020366003190112610172576004356105fc610a87565b600355610607610a73565b6006556004546001600160a01b0316330361077057801561073657600754428111610709575062093a8081046005555b4260065562093a8042018042116106f5576007556040516323b872dd60e01b815233600482015230602482015260448101829052906020826064815f6001600160a01b037f0000000000000000000000000000000000000000000000000000000000000000165af1908115610314577fde88a922e0d3b88b24e9623efeb464919c6bf9f66857a65e2bfcf2ce87a9433d926020926106da575b50604051908152a1005b6106f090833d851161030d576103008183610a18565b6106d0565b634e487b7160e01b5f52601160045260245ffd5b61072d61072761071e62093a809342906109a9565b600554906109b6565b83610a66565b04600555610637565b60405162461bcd60e51b815260206004820152601260248201527105265776172642063616e6e6f7420626520360741b6044820152606490fd5b60405162461bcd60e51b815260206004820152602160248201527f43616c6c6572206973206e6f742072657761726473446973747269627574696f6044820152603760f91b6064820152608490fd5b34610172576020366003190112610172576004356107db610a87565b6003556107e6610a73565b60065580156108f857335f5260016020528060405f2054106108bf57335f52600160205260405f206108198282546109a9565b905560405163a9059cbb60e01b8152336004820152602481018290526020816044815f6001600160a01b037f0000000000000000000000000000000000000000000000000000000000000000165af18015610314576108a2575b506040519081527f0f5bb82176feb1b5e747e28471aa92156a04d9f3ab9f45f28e2d704232b93f7560203392a2005b6108ba9060203d60201161030d576103008183610a18565b610873565b60405162461bcd60e51b8152602060048201526011602482015270139bdd08195b9bdd59da081cdd185ad959607a1b6044820152606490fd5b60405162461bcd60e51b815260206004820152601060248201526f043616e6e6f7420756e7374616b6520360841b6044820152606490fd5b34610172576020366003190112610172576004356001600160a01b038116908190036101725761095e610bde565b6bffffffffffffffffffffffff60a01b60045416176004555f80f35b34610172576020366003190112610172576004356001600160a01b03811681036101725761040e6020916109c9565b919082039182116106f557565b818102929181159184041417156106f557565b6001600160a01b03165f81815260016020526040902054670de0b6b3a764000091610a149190610a0e906109fb610a87565b905f52600260205260405f2054906109a9565b906109b6565b0490565b90601f8019910116810190811067ffffffffffffffff821117610a3a57604052565b634e487b7160e01b5f52604160045260245ffd5b90816020910312610172575180151581036101725790565b919082018092116106f557565b6007548042105f14610a8457504290565b90565b6040516370a0823160e01b81523060048201527f00000000000000000000000000000000000000000000000000000000000000006001600160a01b031690602081602481855afa908115610314575f91610bac575b5015610ba557600354610aff600554610a0e610af6610a73565b600654906109a9565b91670de0b6b3a7640000830292808404670de0b6b3a764000014901517156106f5576020602491604051928380926370a0823160e01b82523060048301525afa908115610314575f91610b73575b508015610b5f57610a84920490610a66565b634e487b7160e01b5f52601260045260245ffd5b90506020813d602011610b9d575b81610b8e60209383610a18565b8101031261017257515f610b4d565b3d9150610b81565b5060035490565b90506020813d602011610bd6575b81610bc760209383610a18565b8101031261017257515f610adc565b3d9150610bba565b5f546001600160a01b03163303610bf157565b63118cdaa760e01b5f523360045260245ffdfea26469706673582212203907743104886eb261114f0a4a25b7042fc319f4bfa5f528bb1540fc71f8468264736f6c634300081e0033","linkReferences":{}},"methodIdentifiers":{"earned(address)":"008cc262","getReward()":"3d18b912","lastTimeRewardApplicable()":"80faa57d","lastUpdateTime()":"c8f33c91","notifyRewardAmount(uint256)":"3c6b16ab","owner()":"8da5cb5b","periodFinish()":"ebe2b12b","renounceOwnership()":"715018a6","rewardPerTokenStored()":"df136d65","rewardRate()":"7b0a47ee","rewardsDistribution()":"3fc6df6e","rewardsToken()":"d1af0c7d","setRewardsDistribution(address)":"19762143","stake(uint256)":"a694fc3a","staked(address)":"98807d84","stakingToken()":"72f702f3","transferOwnership(address)":"f2fde38b","unstake(uint256)":"2e17de78","userRewardPerTokenPaid(address)":"8b876347"},"id":79}