{"abi":[{"type":"constructor","inputs":[{"name":"_initialOwner","type":"address","internalType":"address"},{"name":"_collateralToken","type":"address","internalType":"address"},{"name":"_sccUsdToken","type":"address","internalType":"address"},{"name":"_oracleManager","type":"address","internalType":"address"}],"stateMutability":"nonpayable"},{"type":"function","name":"collateralToken","inputs":[],"outputs":[{"name":"","type":"address","internalType":"address"}],"stateMutability":"view"},{"type":"function","name":"createNewVault","inputs":[],"outputs":[{"name":"vaultAddress","type":"address","internalType":"address"}],"stateMutability":"nonpayable"},{"type":"function","name":"oracleManager","inputs":[],"outputs":[{"name":"","type":"address","internalType":"address"}],"stateMutability":"view"},{"type":"function","name":"owner","inputs":[],"outputs":[{"name":"","type":"address","internalType":"address"}],"stateMutability":"view"},{"type":"function","name":"renounceOwnership","inputs":[],"outputs":[],"stateMutability":"nonpayable"},{"type":"function","name":"sccUsdToken","inputs":[],"outputs":[{"name":"","type":"address","internalType":"address"}],"stateMutability":"view"},{"type":"function","name":"transferOwnership","inputs":[{"name":"newOwner","type":"address","internalType":"address"}],"outputs":[],"stateMutability":"nonpayable"},{"type":"event","name":"OwnershipTransferred","inputs":[{"name":"previousOwner","type":"address","indexed":true,"internalType":"address"},{"name":"newOwner","type":"address","indexed":true,"internalType":"address"}],"anonymous":false},{"type":"event","name":"VaultCreated","inputs":[{"name":"vaultAddress","type":"address","indexed":true,"internalType":"address"},{"name":"owner","type":"address","indexed":true,"internalType":"address"}],"anonymous":false},{"type":"error","name":"OwnableInvalidOwner","inputs":[{"name":"owner","type":"address","internalType":"address"}]},{"type":"error","name":"OwnableUnauthorizedAccount","inputs":[{"name":"account","type":"address","internalType":"address"}]}],"bytecode":{"object":"0x60e03461011d57601f611f4e38819003918201601f19168301916001600160401b038311848410176101215780849260809460405283398101031261011d5761004781610135565b61005360208301610135565b9161006c606061006560408401610135565b9201610135565b6001600160a01b0390921692831561010a575f80546001600160a01b031981168617825560405195916001600160a01b03909116907f8be0079c531659141344cd1fd0a4f28419497f9722a3daafe3b4186f6b6457e09080a360805260a05260c052611e04908161014a823960805181818161010b01526101e9015260a05181818161014f0152610211015260c051818181610239015261032a0152f35b631e4fbdf760e01b5f525f60045260245ffd5b5f80fd5b634e487b7160e01b5f52604160045260245ffd5b51906001600160a01b038216820361011d5756fe6080806040526004361015610012575f80fd5b5f3560e01c908163565d878c1461031857508063715018a6146102c15780638b2d1dbe146101a55780638da5cb5b1461017e578063961f389e1461013a578063b2016bd4146100f65763f2fde38b14610069575f80fd5b346100f25760203660031901126100f2576004356001600160a01b038116908190036100f257610097610359565b80156100df575f80546001600160a01b03198116831782556001600160a01b0316907f8be0079c531659141344cd1fd0a4f28419497f9722a3daafe3b4186f6b6457e09080a3005b631e4fbdf760e01b5f525f60045260245ffd5b5f80fd5b346100f2575f3660031901126100f2576040517f00000000000000000000000000000000000000000000000000000000000000006001600160a01b03168152602090f35b346100f2575f3660031901126100f2576040517f00000000000000000000000000000000000000000000000000000000000000006001600160a01b03168152602090f35b346100f2575f3660031901126100f2575f546040516001600160a01b039091168152602090f35b346100f2575f3660031901126100f257604051611a4f8082019082821067ffffffffffffffff8311176102ad57608091839161038083393381526001600160a01b037f0000000000000000000000000000000000000000000000000000000000000000811660208301527f0000000000000000000000000000000000000000000000000000000000000000811660408301527f00000000000000000000000000000000000000000000000000000000000000001660608201520301905ff080156102a2576040516020916001600160a01b031633817f5d9c31ffa0fecffd7cf379989a3c7af252f0335e0d2a1320b55245912c781f535f80a38152f35b6040513d5f823e3d90fd5b634e487b7160e01b5f52604160045260245ffd5b346100f2575f3660031901126100f2576102d9610359565b5f80546001600160a01b0319811682556001600160a01b03167f8be0079c531659141344cd1fd0a4f28419497f9722a3daafe3b4186f6b6457e08280a3005b346100f2575f3660031901126100f2577f00000000000000000000000000000000000000000000000000000000000000006001600160a01b03168152602090f35b5f546001600160a01b0316330361036c57565b63118cdaa760e01b5f523360045260245ffdfe60e06040523461047e57611a4f6080813803918261001c81610482565b93849283398101031261047e57610032816104a7565b61003e602083016104a7565b916100576060610050604084016104a7565b92016104a7565b916100626040610482565b600981526814d0d0c815985d5b1d60ba1b60208201526100826040610482565b600481526329a1a1ab60e11b6020820152815190916001600160401b038211610385575f5490600182811c92168015610474575b60208310146103675781601f849311610407575b50602090601f83116001146103a4575f92610399575b50508160011b915f199060031b1c1916175f555b8051906001600160401b0382116103855760015490600182811c9216801561037b575b60208310146103675781601f8493116102f9575b50602090601f8311600114610293575f92610288575b50508160011b915f199060031b1c1916176001555b6001600160a01b031692831561027557600680546001600160a01b03198116861790915560405194906001600160a01b03167f8be0079c531659141344cd1fd0a4f28419497f9722a3daafe3b4186f6b6457e05f80a36001600160a01b031680158015610264575b8015610253575b610244576080526001600160a01b0390811660a0521660c05261159390816104bc823960805181818161033a015281816104130152818161051b01528181610a2601528181610a610152610b8b015260a0518181816105d90152818161070e0152610c03015260c05181818161054d015281816108a70152610a930152f35b63d92e233d60e01b5f5260045ffd5b506001600160a01b038316156101c5565b506001600160a01b038216156101be565b631e4fbdf760e01b5f525f60045260245ffd5b015190505f80610141565b60015f9081528281209350601f198516905b8181106102e157509084600195949392106102c9575b505050811b01600155610156565b01515f1960f88460031b161c191690555f80806102bb565b929360206001819287860151815501950193016102a5565b60015f529091507fb10e2d527612073b26eecdfd717e6a320cf44b4afac2b0732d9fcbe2b7fa0cf6601f840160051c8101916020851061035d575b90601f859493920160051c01905b81811061034f575061012b565b5f8155849350600101610342565b9091508190610334565b634e487b7160e01b5f52602260045260245ffd5b91607f1691610117565b634e487b7160e01b5f52604160045260245ffd5b015190505f806100e0565b5f8080528281209350601f198516905b8181106103ef57509084600195949392106103d7575b505050811b015f556100f4565b01515f1960f88460031b161c191690555f80806103ca565b929360206001819287860151815501950193016103b4565b5f80529091507f290decd9548b62a8d60345a988386fc84ba6bc95484008f6362f93160ef3e563601f840160051c8101916020851061046a575b90601f859493920160051c01905b81811061045c57506100ca565b5f815584935060010161044f565b9091508190610441565b91607f16916100b6565b5f80fd5b6040519190601f01601f191682016001600160401b0381118382101761038557604052565b51906001600160a01b038216820361047e5756fe6080806040526004361015610012575f80fd5b5f905f3560e01c90816274f3561461102c5750806301ffc9a714610fbe57806306fdde0314610ecd578063081812fc14610e91578063095ea7b314610da75780631ef3a04c14610d7f57806323b872dd14610d6857806338f92fc714610cf157806342842e0e14610cc657806342966c6814610bbe57806349819d0a14610b555780636112fe2e146109b75780636352211e1461098657806370a0823114610933578063715018a6146108d65780637dc0d1d0146108915780638da5cb5b1461086857806392d09ceb1461084a57806395d89b411461073d578063961f389e146106f8578063a0712d68146104e4578063a22cb46514610442578063b2016bd4146103fd578063b88d4fde14610368578063bad4a01f146102b6578063c87b56dd1461025b578063e985e9c514610203578063edbcc146146101e75763f2fde38b1461015c575f80fd5b346101e45760203660031901126101e45761017561106a565b61017d61149b565b6001600160a01b031680156101d057600680546001600160a01b0319811683179091556001600160a01b03167f8be0079c531659141344cd1fd0a4f28419497f9722a3daafe3b4186f6b6457e05f80a380f35b631e4fbdf760e01b82526004829052602482fd5b80fd5b50346101e457806003193601126101e457602060405160968152f35b50346101e45760403660031901126101e457604061021f61106a565b91610228611080565b9260018060a01b031681526005602052209060018060a01b03165f52602052602060ff60405f2054166040519015158152f35b50346101e45760203660031901126101e457610278600435611467565b50806040516102886020826110d0565b52506102b260405161029b6020826110d0565b5f8152604051918291602083526020830190611046565b0390f35b50346101e45760203660031901126101e4577fd4ba41dde4b6bd6955d1fd3d35b730d1fb4bb2fdf1ae1637eeefd3c39994b55e60206004356102f661149b565b6103028160085461131a565b60085561035e6040516323b872dd60e01b84820152336024820152306044820152826064820152606481526103386084826110d0565b7f0000000000000000000000000000000000000000000000000000000000000000611505565b604051908152a180f35b50346101e45760803660031901126101e45761038261106a565b61038a611080565b906064359067ffffffffffffffff82116103f957366023830112156103f957816004013592846103b985611106565b936103c760405195866110d0565b85855236602487830101116103f557856103f296602460209301838801378501015260443591611327565b80f35b5080fd5b8380fd5b50346101e457806003193601126101e4576040517f00000000000000000000000000000000000000000000000000000000000000006001600160a01b03168152602090f35b50346101e45760403660031901126101e45761045c61106a565b602435908115158092036104e0576001600160a01b03169081156104cc57338352600560205260408320825f5260205260405f2060ff1981541660ff83161790556040519081527f17307eab39ab6107e8899845ad3d59bd9653f200f220920489ca2b5937696c3160203392a380f35b630b61174360e31b83526004829052602483fd5b8280fd5b50346101e45760203660031901126101e45760043561050161149b565b6008546040516341976e0960e01b81526001600160a01b037f000000000000000000000000000000000000000000000000000000000000000081166004830152602090829060249082907f0000000000000000000000000000000000000000000000000000000000000000165afa9081156106ed5784916106af575b5061059190670de0b6b3a7640000926112e9565b0461059e8260095461131a565b9060648102908082046064149015171561069b576105be826096926112fc565b1061068c5760095560065482906001600160a01b03908116907f000000000000000000000000000000000000000000000000000000000000000016803b156104e0576040516340c10f1960e01b81526001600160a01b039290921660048301526024820184905282908290604490829084905af180156106815761066c575b507fb996fdc649ae423a7fc8d7cffe6f2ba6ac995b5d12fc2c898656fbf923b8ae8d602083604051908152a180f35b81610676916110d0565b6103f557815f61063d565b6040513d84823e3d90fd5b633a23d82560e01b8352600483fd5b634e487b7160e01b84526011600452602484fd5b90506020813d6020116106e5575b816106ca602093836110d0565b810103126106e15751670de0b6b3a764000061057d565b5f80fd5b3d91506106bd565b6040513d86823e3d90fd5b50346101e457806003193601126101e4576040517f00000000000000000000000000000000000000000000000000000000000000006001600160a01b03168152602090f35b50346101e457806003193601126101e4576040519080600154908160011c91600181168015610840575b60208410811461082c5783865290811561080557506001146107a8575b6102b284610794818603826110d0565b604051918291602083526020830190611046565b600181527fb10e2d527612073b26eecdfd717e6a320cf44b4afac2b0732d9fcbe2b7fa0cf6939250905b8082106107eb5750909150810160200161079482610784565b9192600181602092548385880101520191019092916107d2565b60ff191660208087019190915292151560051b850190920192506107949150839050610784565b634e487b7160e01b83526022600452602483fd5b92607f1692610767565b50346101e457806003193601126101e4576020600854604051908152f35b50346101e457806003193601126101e4576006546040516001600160a01b039091168152602090f35b50346101e457806003193601126101e4576040517f00000000000000000000000000000000000000000000000000000000000000006001600160a01b03168152602090f35b50346101e457806003193601126101e4576108ef61149b565b600680546001600160a01b0319811690915581906001600160a01b03167f8be0079c531659141344cd1fd0a4f28419497f9722a3daafe3b4186f6b6457e08280a380f35b50346101e45760203660031901126101e4576001600160a01b0361095561106a565b168015610972578160409160209352600383522054604051908152f35b6322718ad960e21b82526004829052602482fd5b50346101e45760203660031901126101e45760206109a5600435611467565b6040516001600160a01b039091168152f35b50346101e45760203660031901126101e4576004356109d461149b565b6109e0816008546112c8565b60095480610a4a575b506008556006547fc36696c86a9d1d0e60d9160cc0bdc4ac52ff55c21daff12fa7ab6c6331450a4b9160209161035e9082906001600160a01b03167f00000000000000000000000000000000000000000000000000000000000000006114c2565b6040516341976e0960e01b81526001600160a01b037f000000000000000000000000000000000000000000000000000000000000000081166004830152602090829060249082907f0000000000000000000000000000000000000000000000000000000000000000165afa908115610b4a578591610b16575b50610ad7670de0b6b3a764000091846112e9565b04606481029080820460641490151715610b0257609691610af7916112fc565b1061068c575f6109e9565b634e487b7160e01b85526011600452602485fd5b90506020813d602011610b42575b81610b31602093836110d0565b810103126106e15751610ad7610ac3565b3d9150610b24565b6040513d87823e3d90fd5b50346101e45760403660031901126101e457610b6f61106a565b6007546001600160a01b03163303610baf576103f290602435907f00000000000000000000000000000000000000000000000000000000000000006114c2565b63354b79a760e01b8252600482fd5b50346106e15760203660031901126106e157600435610bdb61149b565b600954808211610cb75781610bef916112c8565b6009556006546001600160a01b03908116907f000000000000000000000000000000000000000000000000000000000000000016803b156106e157604051632770a7eb60e21b81526001600160a01b03929092166004830152602482018390525f908290604490829084905af18015610cac57610c96575b5060207fe3d5123d6e5fd23740cd17d8f4df1cd1ed88a866c717173934d8b338828296aa91604051908152a180f35b610ca39192505f906110d0565b5f906020610c67565b6040513d5f823e3d90fd5b6364ddcf3760e01b5f5260045ffd5b346106e157610cef610cd736611096565b9060405192610ce76020856110d0565b5f8452611327565b005b346106e15760203660031901126106e157610d0a61106a565b610d1261149b565b6001600160a01b03168015610d5957600780546001600160a01b031916821790557fc842de7a665738e024f3338788865650065f49e6a1d6f5bb4e789bbd3670ca2e5f80a2005b63d92e233d60e01b5f5260045ffd5b346106e157610cef610d7936611096565b91611122565b346106e1575f3660031901126106e1576007546040516001600160a01b039091168152602090f35b346106e15760403660031901126106e157610dc061106a565b602435610dcc81611467565b33151580610e7e575b80610e51575b610e3e5781906001600160a01b0384811691167f8c5be1e5ebec7d5bd14f71427d1e84f3dd0314c0f7b2291e5b200ac8c7c3b9255f80a45f90815260046020526040902080546001600160a01b0319166001600160a01b03909216919091179055005b63a9fbf51f60e01b5f523360045260245ffd5b506001600160a01b0381165f90815260056020908152604080832033845290915290205460ff1615610ddb565b506001600160a01b038116331415610dd5565b346106e15760203660031901126106e157600435610eae81611467565b505f526004602052602060018060a01b0360405f205416604051908152f35b346106e1575f3660031901126106e1576040515f5f548060011c90600181168015610fb4575b602083108114610fa057828552908115610f7c5750600114610f20575b6102b283610794818503826110d0565b5f8080527f290decd9548b62a8d60345a988386fc84ba6bc95484008f6362f93160ef3e563939250905b808210610f6257509091508101602001610794610f10565b919260018160209254838588010152019101909291610f4a565b60ff191660208086019190915291151560051b840190910191506107949050610f10565b634e487b7160e01b5f52602260045260245ffd5b91607f1691610ef3565b346106e15760203660031901126106e15760043563ffffffff60e01b81168091036106e1576020906380ac58cd60e01b811490811561101b575b811561100a575b506040519015158152f35b6301ffc9a760e01b14905082610fff565b635b5e139f60e01b81149150610ff8565b346106e1575f3660031901126106e1576020906009548152f35b805180835260209291819084018484015e5f828201840152601f01601f1916010190565b600435906001600160a01b03821682036106e157565b602435906001600160a01b03821682036106e157565b60609060031901126106e1576004356001600160a01b03811681036106e157906024356001600160a01b03811681036106e1579060443590565b90601f8019910116810190811067ffffffffffffffff8211176110f257604052565b634e487b7160e01b5f52604160045260245ffd5b67ffffffffffffffff81116110f257601f01601f191660200190565b6001600160a01b03909116919082156112b5575f828152600260205260409020546001600160a01b031692829033151580611220575b50846111e7575b805f52600360205260405f2060018154019055815f52600260205260405f20816bffffffffffffffffffffffff60a01b825416179055847fddf252ad1be2c89b69c2b068fc378daa952ba7f163c4a11628f55a4df523b3ef5f80a46001600160a01b03168083036111cf57505050565b6364283d7b60e01b5f5260045260245260445260645ffd5b815f52600460205260405f206bffffffffffffffffffffffff60a01b8154169055845f52600360205260405f205f19815401905561115f565b90915080611264575b156112365782905f611158565b828461124e57637e27328960e01b5f5260045260245ffd5b63177e802f60e01b5f523360045260245260445ffd5b503384148015611293575b8061122957505f838152600460205260409020546001600160a01b03163314611229565b505f84815260056020908152604080832033845290915290205460ff1661126f565b633250574960e11b5f525f60045260245ffd5b919082039182116112d557565b634e487b7160e01b5f52601160045260245ffd5b818102929181159184041417156112d557565b8115611306570490565b634e487b7160e01b5f52601260045260245ffd5b919082018092116112d557565b9291611334818386611122565b813b611341575b50505050565b604051630a85bd0160e11b81523360048201526001600160a01b039485166024820152604481019190915260806064820152921691906020908290819061138c906084830190611046565b03815f865af15f9181611422575b506113ef57503d156113e8573d6113b081611106565b906113be60405192836110d0565b81523d5f602083013e5b805190816113e35782633250574960e11b5f5260045260245ffd5b602001fd5b60606113c8565b6001600160e01b03191663757a42ff60e11b0161141057505f80808061133b565b633250574960e11b5f5260045260245ffd5b9091506020813d60201161145f575b8161143e602093836110d0565b810103126106e157516001600160e01b0319811681036106e157905f61139a565b3d9150611431565b5f818152600260205260409020546001600160a01b0316908115611489575090565b637e27328960e01b5f5260045260245ffd5b6006546001600160a01b031633036114af57565b63118cdaa760e01b5f523360045260245ffd5b60405163a9059cbb60e01b60208201526001600160a01b03929092166024830152604480830193909352918152611503916114fe6064836110d0565b611505565b565b905f602091828151910182855af115610cac575f513d61155457506001600160a01b0381163b155b6115345750565b635274afe760e01b5f9081526001600160a01b0391909116600452602490fd5b6001141561152d56fea264697066735822122056f79c0543f75c7d4634a6bb05405b591df6239721cd49f3125cf894ab75927264736f6c634300081e0033a2646970667358221220bc3f1b8b5707d8577a2fffec4ff59cc4f6e020add4601e3863689389f817d27b64736f6c634300081e0033","linkReferences":{}},"methodIdentifiers":{"collateralToken()":"b2016bd4","createNewVault()":"8b2d1dbe","oracleManager()":"565d878c","owner()":"8da5cb5b","renounceOwnership()":"715018a6","sccUsdToken()":"961f389e","transferOwnership(address)":"f2fde38b"},"id":81}