{"abi":[{"type":"constructor","inputs":[{"name":"_stalePriceTimeout","type":"uint256","internalType":"uint256"}],"stateMutability":"nonpayable"},{"type":"function","name":"AUTHORIZER_ROLE","inputs":[],"outputs":[{"name":"","type":"bytes32","internalType":"bytes32"}],"stateMutability":"view"},{"type":"function","name":"DEFAULT_ADMIN_ROLE","inputs":[],"outputs":[{"name":"","type":"bytes32","internalType":"bytes32"}],"stateMutability":"view"},{"type":"function","name":"PRICE_DECIMALS","inputs":[],"outputs":[{"name":"","type":"uint8","internalType":"uint8"}],"stateMutability":"view"},{"type":"function","name":"STALE_PRICE_TIMEOUT","inputs":[],"outputs":[{"name":"","type":"uint256","internalType":"uint256"}],"stateMutability":"view"},{"type":"function","name":"getPrice","inputs":[{"name":"_asset","type":"address","internalType":"address"}],"outputs":[{"name":"","type":"uint256","internalType":"uint256"}],"stateMutability":"view"},{"type":"function","name":"getRoleAdmin","inputs":[{"name":"role","type":"bytes32","internalType":"bytes32"}],"outputs":[{"name":"","type":"bytes32","internalType":"bytes32"}],"stateMutability":"view"},{"type":"function","name":"grantRole","inputs":[{"name":"role","type":"bytes32","internalType":"bytes32"},{"name":"account","type":"address","internalType":"address"}],"outputs":[],"stateMutability":"nonpayable"},{"type":"function","name":"hasRole","inputs":[{"name":"role","type":"bytes32","internalType":"bytes32"},{"name":"account","type":"address","internalType":"address"}],"outputs":[{"name":"","type":"bool","internalType":"bool"}],"stateMutability":"view"},{"type":"function","name":"isAuthorized","inputs":[{"name":"","type":"address","internalType":"address"}],"outputs":[{"name":"","type":"bool","internalType":"bool"}],"stateMutability":"view"},{"type":"function","name":"renounceRole","inputs":[{"name":"role","type":"bytes32","internalType":"bytes32"},{"name":"callerConfirmation","type":"address","internalType":"address"}],"outputs":[],"stateMutability":"nonpayable"},{"type":"function","name":"revokeRole","inputs":[{"name":"role","type":"bytes32","internalType":"bytes32"},{"name":"account","type":"address","internalType":"address"}],"outputs":[],"stateMutability":"nonpayable"},{"type":"function","name":"setAuthorization","inputs":[{"name":"_user","type":"address","internalType":"address"},{"name":"_authorized","type":"bool","internalType":"bool"}],"outputs":[],"stateMutability":"nonpayable"},{"type":"function","name":"setPriceFeed","inputs":[{"name":"_asset","type":"address","internalType":"address"},{"name":"_feed","type":"address","internalType":"address"}],"outputs":[],"stateMutability":"nonpayable"},{"type":"function","name":"supportsInterface","inputs":[{"name":"interfaceId","type":"bytes4","internalType":"bytes4"}],"outputs":[{"name":"","type":"bool","internalType":"bool"}],"stateMutability":"view"},{"type":"event","name":"AuthorizationSet","inputs":[{"name":"user","type":"address","indexed":true,"internalType":"address"},{"name":"authorized","type":"bool","indexed":false,"internalType":"bool"}],"anonymous":false},{"type":"event","name":"PriceFeedUpdated","inputs":[{"name":"asset","type":"address","indexed":true,"internalType":"address"},{"name":"feed","type":"address","indexed":true,"internalType":"address"}],"anonymous":false},{"type":"event","name":"RoleAdminChanged","inputs":[{"name":"role","type":"bytes32","indexed":true,"internalType":"bytes32"},{"name":"previousAdminRole","type":"bytes32","indexed":true,"internalType":"bytes32"},{"name":"newAdminRole","type":"bytes32","indexed":true,"internalType":"bytes32"}],"anonymous":false},{"type":"event","name":"RoleGranted","inputs":[{"name":"role","type":"bytes32","indexed":true,"internalType":"bytes32"},{"name":"account","type":"address","indexed":true,"internalType":"address"},{"name":"sender","type":"address","indexed":true,"internalType":"address"}],"anonymous":false},{"type":"event","name":"RoleRevoked","inputs":[{"name":"role","type":"bytes32","indexed":true,"internalType":"bytes32"},{"name":"account","type":"address","indexed":true,"internalType":"address"},{"name":"sender","type":"address","indexed":true,"internalType":"address"}],"anonymous":false},{"type":"error","name":"AccessControlBadConfirmation","inputs":[]},{"type":"error","name":"AccessControlUnauthorizedAccount","inputs":[{"name":"account","type":"address","internalType":"address"},{"name":"neededRole","type":"bytes32","internalType":"bytes32"}]},{"type":"error","name":"InvalidPrice","inputs":[{"name":"asset","type":"address","internalType":"address"},{"name":"price","type":"int256","internalType":"int256"}]},{"type":"error","name":"InvalidPriceFeedAddress","inputs":[]},{"type":"error","name":"NotAuthorized","inputs":[{"name":"caller","type":"address","internalType":"address"}]},{"type":"error","name":"PriceFeedNotSet","inputs":[{"name":"asset","type":"address","internalType":"address"}]},{"type":"error","name":"StalePrice","inputs":[{"name":"asset","type":"address","internalType":"address"},{"name":"updatedAt","type":"uint256","internalType":"uint256"}]}],"bytecode":{"object":"0x60a03461007557601f610ae638819003918201601f19168301916001600160401b0383118484101761007957808492602094604052833981010312610075575160805261004b3361008d565b5061005533610103565b506040516108ef9081610197823960805181818161012901526104730152f35b5f80fd5b634e487b7160e01b5f52604160045260245ffd5b6001600160a01b0381165f9081525f516020610aa65f395f51905f52602052604090205460ff166100fe576001600160a01b03165f8181525f516020610aa65f395f51905f5260205260408120805460ff191660011790553391905f516020610a865f395f51905f528180a4600190565b505f90565b6001600160a01b0381165f9081525f516020610ac65f395f51905f52602052604090205460ff166100fe576001600160a01b03165f8181525f516020610ac65f395f51905f5260205260408120805460ff191660011790553391907f14dd327f3834be9d0f7cf44f6cf11c96ded83bd68d1a1b3926d35739e7bb88d0905f516020610a865f395f51905f529080a460019056fe6080806040526004361015610012575f80fd5b5f3560e01c90816301ffc9a7146106ad57508063248a9ca31461067b5780632f2ff15d1461063e57806336568abe146105fa57806341976e09146103e757806376e112861461030e57806391d14854146102c6578063a217fddf146102ac578063bc06946f14610272578063d547741f1461022e578063eecea0001461014c578063f08f404a14610112578063f1a640f8146100f75763fe9fbb80146100b6575f80fd5b346100f35760203660031901126100f3576001600160a01b036100d7610716565b165f526002602052602060ff60405f2054166040519015158152f35b5f80fd5b346100f3575f3660031901126100f357602060405160128152f35b346100f3575f3660031901126100f35760206040517f00000000000000000000000000000000000000000000000000000000000000008152f35b346100f35760403660031901126100f357610165610716565b602435908115158092036100f357335f9081527f20d1f9afebdbbcb1ccac3d78464405112787c011b45b4f0d787e84ef93a48613602052604090205460ff16156101f75760207f5056a36abc1db1625034fdf114a164a0345b3ccf992fc1d51055e017375f47329160018060a01b031692835f526002825260405f2060ff1981541660ff8316179055604051908152a2005b63e2517d3f60e01b5f52336004527f14dd327f3834be9d0f7cf44f6cf11c96ded83bd68d1a1b3926d35739e7bb88d060245260445ffd5b346100f35760403660031901126100f35761027060043561024d610700565b9061026b610266825f525f602052600160405f20015490565b610779565b610839565b005b346100f3575f3660031901126100f35760206040517f14dd327f3834be9d0f7cf44f6cf11c96ded83bd68d1a1b3926d35739e7bb88d08152f35b346100f3575f3660031901126100f35760206040515f8152f35b346100f35760403660031901126100f3576102df610700565b6004355f525f60205260405f209060018060a01b03165f52602052602060ff60405f2054166040519015158152f35b346100f35760403660031901126100f357610327610716565b61032f610700565b335f9081527fad3228b676f7d3cd4284a5443f17f1962b36e491b30a40b2405849e597ba5fb5602052604090205460ff16156103d0576001600160a01b03169081156103c1576001600160a01b03165f81815260016020526040812080546001600160a01b031916841790557fa8abe0398416476db5b05737cd4da3b3cbde5012d978a6a6c3fd49d3217535369080a3005b63e358806360e01b5f5260045ffd5b63e2517d3f60e01b5f52336004525f60245260445ffd5b346100f35760203660031901126100f357610400610716565b335f52600260205260ff60405f205416156105e7576001600160a01b039081165f8181526001602052604090205490911680156105d457604051633fabe5a360e21b81529160a083600481855afa908115610547575f935f9261057e575b505f841315610567578142034281116104f6577f0000000000000000000000000000000000000000000000000000000000000000106105525760405163313ce56760e01b81528490602081600481885afa8015610547575f9061050a575b60ff91501660120360ff81116104f65760ff16604d81116104f657600a0a908181029181830414901517156104f657602090604051908152f35b634e487b7160e01b5f52601160045260245ffd5b506020813d60201161053f575b816105246020938361072c565b810103126100f3575160ff811681036100f35760ff906104bc565b3d9150610517565b6040513d5f823e3d90fd5b63758ff4b760e11b5f5260045260245260445ffd5b839063dcd07d4f60e01b5f5260045260245260445ffd5b9350905060a0833d60a0116105cc575b8161059b60a0938361072c565b810103126100f3576105ac83610762565b5060208301516105c3608060608601519501610762565b5092908461045e565b3d915061058e565b50638a7a791d60e01b5f5260045260245ffd5b634a0bfec160e01b5f523360045260245ffd5b346100f35760403660031901126100f357610613610700565b336001600160a01b0382160361062f5761027090600435610839565b63334bd91960e11b5f5260045ffd5b346100f35760403660031901126100f35761027060043561065d610700565b90610676610266825f525f602052600160405f20015490565b6107b1565b346100f35760203660031901126100f35760206106a56004355f525f602052600160405f20015490565b604051908152f35b346100f35760203660031901126100f3576004359063ffffffff60e01b82168092036100f357602091637965db0b60e01b81149081156106ef575b5015158152f35b6301ffc9a760e01b149050836106e8565b602435906001600160a01b03821682036100f357565b600435906001600160a01b03821682036100f357565b90601f8019910116810190811067ffffffffffffffff82111761074e57604052565b634e487b7160e01b5f52604160045260245ffd5b519069ffffffffffffffffffff821682036100f357565b5f8181526020818152604080832033845290915290205460ff161561079b5750565b63e2517d3f60e01b5f523360045260245260445ffd5b5f818152602081815260408083206001600160a01b038616845290915290205460ff16610833575f818152602081815260408083206001600160a01b0395909516808452949091528120805460ff19166001179055339291907f2f8788117e7eff1d82e926ec794901d17c78024a50270940304540a733656f0d9080a4600190565b50505f90565b5f818152602081815260408083206001600160a01b038616845290915290205460ff1615610833575f818152602081815260408083206001600160a01b0395909516808452949091528120805460ff19169055339291907ff6391f5c32d9c69d2a47ea670b442974b53935d1edc7fd64eb21e047a839171b9080a460019056fea2646970667358221220ec6d703d5e07e29e7be695dcface3b2f652e488f67cfa3d25dba2fac8e3c308364736f6c634300081e00332f8788117e7eff1d82e926ec794901d17c78024a50270940304540a733656f0dad3228b676f7d3cd4284a5443f17f1962b36e491b30a40b2405849e597ba5fb520d1f9afebdbbcb1ccac3d78464405112787c011b45b4f0d787e84ef93a48613","linkReferences":{}},"methodIdentifiers":{"AUTHORIZER_ROLE()":"bc06946f","DEFAULT_ADMIN_ROLE()":"a217fddf","PRICE_DECIMALS()":"f1a640f8","STALE_PRICE_TIMEOUT()":"f08f404a","getPrice(address)":"41976e09","getRoleAdmin(bytes32)":"248a9ca3","grantRole(bytes32,address)":"2f2ff15d","hasRole(bytes32,address)":"91d14854","isAuthorized(address)":"fe9fbb80","renounceRole(bytes32,address)":"36568abe","revokeRole(bytes32,address)":"d547741f","setAuthorization(address,bool)":"eecea000","setPriceFeed(address,address)":"76e11286","supportsInterface(bytes4)":"01ffc9a7"},"id":82}