{"abi":[{"type":"constructor","inputs":[{"name":"_stakingToken","type":"address","internalType":"address"},{"name":"_rewardsToken","type":"address","internalType":"address"},{"name":"_rewardsDistribution","type":"address","internalType":"address"},{"name":"initialOwner","type":"address","internalType":"address"}],"stateMutability":"nonpayable"},{"type":"function","name":"earned","inputs":[{"name":"account","type":"address","internalType":"address"}],"outputs":[{"name":"","type":"uint256","internalType":"uint256"}],"stateMutability":"view"},{"type":"function","name":"getReward","inputs":[],"outputs":[],"stateMutability":"nonpayable"},{"type":"function","name":"lastTimeRewardApplicable","inputs":[],"outputs":[{"name":"","type":"uint256","internalType":"uint256"}],"stateMutability":"view"},{"type":"function","name":"lastUpdateTime","inputs":[],"outputs":[{"name":"","type":"uint256","internalType":"uint256"}],"stateMutability":"view"},{"type":"function","name":"notifyRewardAmount","inputs":[{"name":"reward","type":"uint256","internalType":"uint256"},{"name":"duration","type":"uint256","internalType":"uint256"}],"outputs":[],"stateMutability":"nonpayable"},{"type":"function","name":"owner","inputs":[],"outputs":[{"name":"","type":"address","internalType":"address"}],"stateMutability":"view"},{"type":"function","name":"periodFinish","inputs":[],"outputs":[{"name":"","type":"uint256","internalType":"uint256"}],"stateMutability":"view"},{"type":"function","name":"renounceOwnership","inputs":[],"outputs":[],"stateMutability":"nonpayable"},{"type":"function","name":"rewardPerTokenStored","inputs":[],"outputs":[{"name":"","type":"uint256","internalType":"uint256"}],"stateMutability":"view"},{"type":"function","name":"rewardRate","inputs":[],"outputs":[{"name":"","type":"uint256","internalType":"uint256"}],"stateMutability":"view"},{"type":"function","name":"rewardsDistribution","inputs":[],"outputs":[{"name":"","type":"address","internalType":"address"}],"stateMutability":"view"},{"type":"function","name":"rewardsToken","inputs":[],"outputs":[{"name":"","type":"address","internalType":"contract IERC20"}],"stateMutability":"view"},{"type":"function","name":"setRewardsDistribution","inputs":[{"name":"_rewardsDistribution","type":"address","internalType":"address"}],"outputs":[],"stateMutability":"nonpayable"},{"type":"function","name":"stake","inputs":[{"name":"amount","type":"uint256","internalType":"uint256"}],"outputs":[],"stateMutability":"nonpayable"},{"type":"function","name":"staked","inputs":[{"name":"","type":"address","internalType":"address"}],"outputs":[{"name":"","type":"uint256","internalType":"uint256"}],"stateMutability":"view"},{"type":"function","name":"stakingToken","inputs":[],"outputs":[{"name":"","type":"address","internalType":"contract IERC20"}],"stateMutability":"view"},{"type":"function","name":"transferOwnership","inputs":[{"name":"newOwner","type":"address","internalType":"address"}],"outputs":[],"stateMutability":"nonpayable"},{"type":"function","name":"unstake","inputs":[{"name":"amount","type":"uint256","internalType":"uint256"}],"outputs":[],"stateMutability":"nonpayable"},{"type":"function","name":"userRewardPerTokenPaid","inputs":[{"name":"","type":"address","internalType":"address"}],"outputs":[{"name":"","type":"uint256","internalType":"uint256"}],"stateMutability":"view"},{"type":"event","name":"OwnershipTransferred","inputs":[{"name":"previousOwner","type":"address","indexed":true,"internalType":"address"},{"name":"newOwner","type":"address","indexed":true,"internalType":"address"}],"anonymous":false},{"type":"event","name":"RewardAdded","inputs":[{"name":"reward","type":"uint256","indexed":false,"internalType":"uint256"}],"anonymous":false},{"type":"event","name":"RewardPaid","inputs":[{"name":"user","type":"address","indexed":true,"internalType":"address"},{"name":"reward","type":"uint256","indexed":false,"internalType":"uint256"}],"anonymous":false},{"type":"event","name":"Staked","inputs":[{"name":"user","type":"address","indexed":true,"internalType":"address"},{"name":"amount","type":"uint256","indexed":false,"internalType":"uint256"}],"anonymous":false},{"type":"event","name":"Unstaked","inputs":[{"name":"user","type":"address","indexed":true,"internalType":"address"},{"name":"amount","type":"uint256","indexed":false,"internalType":"uint256"}],"anonymous":false},{"type":"error","name":"OwnableInvalidOwner","inputs":[{"name":"owner","type":"address","internalType":"address"}]},{"type":"error","name":"OwnableUnauthorizedAccount","inputs":[{"name":"account","type":"address","internalType":"address"}]}],"bytecode":{"object":"0x60c03461014557601f610e0538819003918201601f19168301916001600160401b0383118484101761014957808492608094604052833981010312610145576100478161015d565b906100546020820161015d565b6100606040830161015d565b916001600160a01b03906100769060600161015d565b16928315610132575f80546001600160a01b031981168617825560405195916001600160a01b03909116907f8be0079c531659141344cd1fd0a4f28419497f9722a3daafe3b4186f6b6457e09080a36001600160a01b0390811660805290811660a052600480546001600160a01b03191692909116919091179055610c939081610172823960805181818161027201528181610448015281816106670152610b05015260a0518181816101c50152818161055701526107fa0152f35b631e4fbdf760e01b5f525f60045260245ffd5b5f80fd5b634e487b7160e01b5f52604160045260245ffd5b51906001600160a01b03821682036101455756fe60806040526004361015610011575f80fd5b5f3560e01c80628cc262146109b15780631976214314610967578063246132f9146107515780632e17de78146105e05780633d18b912146104f65780633fc6df6e146104ce578063715018a61461047757806372f702f3146104335780637b0a47ee1461041657806380faa57d146103f45780638b876347146103b85780638da5cb5b1461039157806398807d8414610355578063a694fc3a14610211578063c8f33c91146101f4578063d1af0c7d146101b0578063df136d6514610193578063ebe2b12b146101765763f2fde38b146100e9575f80fd5b34610172576020366003190112610172576004356001600160a01b0381169081900361017257610117610c37565b801561015f575f80546001600160a01b03198116831782556001600160a01b0316907f8be0079c531659141344cd1fd0a4f28419497f9722a3daafe3b4186f6b6457e09080a3005b631e4fbdf760e01b5f525f60045260245ffd5b5f80fd5b34610172575f366003190112610172576020600754604051908152f35b34610172575f366003190112610172576020600354604051908152f35b34610172575f366003190112610172576040517f00000000000000000000000000000000000000000000000000000000000000006001600160a01b03168152602090f35b34610172575f366003190112610172576020600654604051908152f35b346101725760203660031901126101725760043561022d610af0565b600355610238610adc565b600655801561031f576040516323b872dd60e01b8152336004820152306024820152604481018290526020816064815f6001600160a01b037f0000000000000000000000000000000000000000000000000000000000000000165af18015610314576102e7575b50335f52600160205260405f206102b7828254610a81565b90556040519081527f9e71bc8eea02a63969f509818f2dafb9254532904319f9dbda79b67bd34a5f3d60203392a2005b6103089060203d60201161030d575b6103008183610a8e565b810190610ac4565b61029f565b503d6102f6565b6040513d5f823e3d90fd5b60405162461bcd60e51b815260206004820152600e60248201526d043616e6e6f74207374616b6520360941b6044820152606490fd5b34610172576020366003190112610172576004356001600160a01b03811690819003610172575f526001602052602060405f2054604051908152f35b34610172575f366003190112610172575f546040516001600160a01b039091168152602090f35b34610172576020366003190112610172576004356001600160a01b03811690819003610172575f526002602052602060405f2054604051908152f35b34610172575f36600319011261017257602061040e610adc565b604051908152f35b34610172575f366003190112610172576020600554604051908152f35b34610172575f366003190112610172576040517f00000000000000000000000000000000000000000000000000000000000000006001600160a01b03168152602090f35b34610172575f3660031901126101725761048f610c37565b5f80546001600160a01b0319811682556001600160a01b03167f8be0079c531659141344cd1fd0a4f28419497f9722a3daafe3b4186f6b6457e08280a3005b34610172575f366003190112610172576004546040516001600160a01b039091168152602090f35b34610172575f3660031901126101725761050e610af0565b600355610519610adc565b60065561052533610a32565b8061052c57005b60405163a9059cbb60e01b8152336004820152602481018290526020816044815f6001600160a01b037f0000000000000000000000000000000000000000000000000000000000000000165af18015610314576105c3575b50600354335f52600260205260405f20556040519081527fe2403640ba68fed3a2f88b7557551d1993f84b99bb10ff833f0cf8db0c5e048660203392a2005b6105db9060203d60201161030d576103008183610a8e565b610584565b34610172576020366003190112610172576004356105fc610af0565b600355610607610adc565b600655801561071957335f5260016020528060405f2054106106e057335f52600160205260405f2061063a8282546109e0565b905560405163a9059cbb60e01b8152336004820152602481018290526020816044815f6001600160a01b037f0000000000000000000000000000000000000000000000000000000000000000165af18015610314576106c3575b506040519081527f0f5bb82176feb1b5e747e28471aa92156a04d9f3ab9f45f28e2d704232b93f7560203392a2005b6106db9060203d60201161030d576103008183610a8e565b610694565b60405162461bcd60e51b8152602060048201526011602482015270139bdd08195b9bdd59da081cdd185ad959607a1b6044820152606490fd5b60405162461bcd60e51b815260206004820152601060248201526f043616e6e6f7420756e7374616b6520360841b6044820152606490fd5b3461017257604036600319011261017257600435602435610770610af0565b60035561077b610adc565b6006556004546001600160a01b031633036109185781156108de5780156108a2576007546107c5919081428211610872576107b7915084610a14565b6005555b4260065542610a81565b6007556040516323b872dd60e01b815233600482015230602482015260448101829052906020826064815f6001600160a01b037f0000000000000000000000000000000000000000000000000000000000000000165af1908115610314577fde88a922e0d3b88b24e9623efeb464919c6bf9f66857a65e2bfcf2ce87a9433d92602092610857575b50604051908152a1005b61086d90833d851161030d576103008183610a8e565b61084d565b61089561088f61088661089a9442906109e0565b60055490610a01565b86610a81565b610a14565b6005556107bb565b60405162461bcd60e51b815260206004820152601460248201527304475726174696f6e2063616e6e6f7420626520360641b6044820152606490fd5b60405162461bcd60e51b815260206004820152601260248201527105265776172642063616e6e6f7420626520360741b6044820152606490fd5b60405162461bcd60e51b815260206004820152602160248201527f43616c6c6572206973206e6f742072657761726473446973747269627574696f6044820152603760f91b6064820152608490fd5b34610172576020366003190112610172576004356001600160a01b0381169081900361017257610995610c37565b6bffffffffffffffffffffffff60a01b60045416176004555f80f35b34610172576020366003190112610172576004356001600160a01b03811681036101725761040e602091610a32565b919082039182116109ed57565b634e487b7160e01b5f52601160045260245ffd5b818102929181159184041417156109ed57565b8115610a1e570490565b634e487b7160e01b5f52601260045260245ffd5b6001600160a01b03165f81815260016020526040902054670de0b6b3a764000091610a7d9190610a7790610a64610af0565b905f52600260205260405f2054906109e0565b90610a01565b0490565b919082018092116109ed57565b90601f8019910116810190811067ffffffffffffffff821117610ab057604052565b634e487b7160e01b5f52604160045260245ffd5b90816020910312610172575180151581036101725790565b6007548042105f14610aed57504290565b90565b6040516370a0823160e01b81523060048201527f00000000000000000000000000000000000000000000000000000000000000006001600160a01b031690602081602481855afa908115610314575f91610c05575b5015610bfe57600354610b68600554610a77610b5f610adc565b600654906109e0565b91670de0b6b3a7640000830292808404670de0b6b3a764000014901517156109ed576020602491604051928380926370a0823160e01b82523060048301525afa908115610314575f91610bca575b50610bc490610aed93610a14565b90610a81565b90506020813d602011610bf6575b81610be560209383610a8e565b810103126101725751610aed610bb6565b3d9150610bd8565b5060035490565b90506020813d602011610c2f575b81610c2060209383610a8e565b8101031261017257515f610b45565b3d9150610c13565b5f546001600160a01b03163303610c4a57565b63118cdaa760e01b5f523360045260245ffdfea26469706673582212208c0d1b777e0ebdd3bc10be24f215610cb48573015eb772d618377b2143c7e8ec64736f6c634300081e0033","linkReferences":{}},"methodIdentifiers":{"earned(address)":"008cc262","getReward()":"3d18b912","lastTimeRewardApplicable()":"80faa57d","lastUpdateTime()":"c8f33c91","notifyRewardAmount(uint256,uint256)":"246132f9","owner()":"8da5cb5b","periodFinish()":"ebe2b12b","renounceOwnership()":"715018a6","rewardPerTokenStored()":"df136d65","rewardRate()":"7b0a47ee","rewardsDistribution()":"3fc6df6e","rewardsToken()":"d1af0c7d","setRewardsDistribution(address)":"19762143","stake(uint256)":"a694fc3a","staked(address)":"98807d84","stakingToken()":"72f702f3","transferOwnership(address)":"f2fde38b","unstake(uint256)":"2e17de78","userRewardPerTokenPaid(address)":"8b876347"},"id":81}