{"abi":[{"type":"constructor","inputs":[{"name":"initialOwner","type":"address","internalType":"address"},{"name":"_collateralToken","type":"address","internalType":"address"},{"name":"_sccUsdToken","type":"address","internalType":"address"},{"name":"_oracle","type":"address","internalType":"address"},{"name":"_liquidationManager","type":"address","internalType":"address"},{"name":"_sccParameters","type":"address","internalType":"address"}],"stateMutability":"nonpayable"},{"type":"function","name":"approve","inputs":[{"name":"to","type":"address","internalType":"address"},{"name":"tokenId","type":"uint256","internalType":"uint256"}],"outputs":[],"stateMutability":"nonpayable"},{"type":"function","name":"balanceOf","inputs":[{"name":"owner","type":"address","internalType":"address"}],"outputs":[{"name":"","type":"uint256","internalType":"uint256"}],"stateMutability":"view"},{"type":"function","name":"burn","inputs":[{"name":"_amount","type":"uint256","internalType":"uint256"}],"outputs":[],"stateMutability":"nonpayable"},{"type":"function","name":"collateralAmount","inputs":[],"outputs":[{"name":"","type":"uint256","internalType":"uint256"}],"stateMutability":"view"},{"type":"function","name":"collateralToken","inputs":[],"outputs":[{"name":"","type":"address","internalType":"contract IERC20"}],"stateMutability":"view"},{"type":"function","name":"debtAmount","inputs":[],"outputs":[{"name":"","type":"uint256","internalType":"uint256"}],"stateMutability":"view"},{"type":"function","name":"depositCollateral","inputs":[{"name":"_amount","type":"uint256","internalType":"uint256"}],"outputs":[],"stateMutability":"nonpayable"},{"type":"function","name":"getApproved","inputs":[{"name":"tokenId","type":"uint256","internalType":"uint256"}],"outputs":[{"name":"","type":"address","internalType":"address"}],"stateMutability":"view"},{"type":"function","name":"isApprovedForAll","inputs":[{"name":"owner","type":"address","internalType":"address"},{"name":"operator","type":"address","internalType":"address"}],"outputs":[{"name":"","type":"bool","internalType":"bool"}],"stateMutability":"view"},{"type":"function","name":"liquidationManager","inputs":[],"outputs":[{"name":"","type":"address","internalType":"address"}],"stateMutability":"view"},{"type":"function","name":"mint","inputs":[{"name":"_amount","type":"uint256","internalType":"uint256"}],"outputs":[],"stateMutability":"nonpayable"},{"type":"function","name":"name","inputs":[],"outputs":[{"name":"","type":"string","internalType":"string"}],"stateMutability":"view"},{"type":"function","name":"oracle","inputs":[],"outputs":[{"name":"","type":"address","internalType":"contract OracleManager"}],"stateMutability":"view"},{"type":"function","name":"owner","inputs":[],"outputs":[{"name":"","type":"address","internalType":"address"}],"stateMutability":"view"},{"type":"function","name":"ownerOf","inputs":[{"name":"tokenId","type":"uint256","internalType":"uint256"}],"outputs":[{"name":"","type":"address","internalType":"address"}],"stateMutability":"view"},{"type":"function","name":"reduceDebt","inputs":[{"name":"_amount","type":"uint256","internalType":"uint256"}],"outputs":[],"stateMutability":"nonpayable"},{"type":"function","name":"renounceOwnership","inputs":[],"outputs":[],"stateMutability":"nonpayable"},{"type":"function","name":"safeTransferFrom","inputs":[{"name":"from","type":"address","internalType":"address"},{"name":"to","type":"address","internalType":"address"},{"name":"tokenId","type":"uint256","internalType":"uint256"}],"outputs":[],"stateMutability":"nonpayable"},{"type":"function","name":"safeTransferFrom","inputs":[{"name":"from","type":"address","internalType":"address"},{"name":"to","type":"address","internalType":"address"},{"name":"tokenId","type":"uint256","internalType":"uint256"},{"name":"data","type":"bytes","internalType":"bytes"}],"outputs":[],"stateMutability":"nonpayable"},{"type":"function","name":"sccParameters","inputs":[],"outputs":[{"name":"","type":"address","internalType":"contract SCC_Parameters"}],"stateMutability":"view"},{"type":"function","name":"sccUsdToken","inputs":[],"outputs":[{"name":"","type":"address","internalType":"contract SCC_USD"}],"stateMutability":"view"},{"type":"function","name":"setApprovalForAll","inputs":[{"name":"operator","type":"address","internalType":"address"},{"name":"approved","type":"bool","internalType":"bool"}],"outputs":[],"stateMutability":"nonpayable"},{"type":"function","name":"supportsInterface","inputs":[{"name":"interfaceId","type":"bytes4","internalType":"bytes4"}],"outputs":[{"name":"","type":"bool","internalType":"bool"}],"stateMutability":"view"},{"type":"function","name":"symbol","inputs":[],"outputs":[{"name":"","type":"string","internalType":"string"}],"stateMutability":"view"},{"type":"function","name":"tokenURI","inputs":[{"name":"tokenId","type":"uint256","internalType":"uint256"}],"outputs":[{"name":"","type":"string","internalType":"string"}],"stateMutability":"view"},{"type":"function","name":"transferCollateralTo","inputs":[{"name":"_to","type":"address","internalType":"address"},{"name":"_amount","type":"uint256","internalType":"uint256"}],"outputs":[],"stateMutability":"nonpayable"},{"type":"function","name":"transferFrom","inputs":[{"name":"from","type":"address","internalType":"address"},{"name":"to","type":"address","internalType":"address"},{"name":"tokenId","type":"uint256","internalType":"uint256"}],"outputs":[],"stateMutability":"nonpayable"},{"type":"function","name":"transferOwnership","inputs":[{"name":"newOwner","type":"address","internalType":"address"}],"outputs":[],"stateMutability":"nonpayable"},{"type":"function","name":"withdrawCollateral","inputs":[{"name":"_amount","type":"uint256","internalType":"uint256"}],"outputs":[],"stateMutability":"nonpayable"},{"type":"event","name":"Approval","inputs":[{"name":"owner","type":"address","indexed":true,"internalType":"address"},{"name":"approved","type":"address","indexed":true,"internalType":"address"},{"name":"tokenId","type":"uint256","indexed":true,"internalType":"uint256"}],"anonymous":false},{"type":"event","name":"ApprovalForAll","inputs":[{"name":"owner","type":"address","indexed":true,"internalType":"address"},{"name":"operator","type":"address","indexed":true,"internalType":"address"},{"name":"approved","type":"bool","indexed":false,"internalType":"bool"}],"anonymous":false},{"type":"event","name":"CollateralDeposited","inputs":[{"name":"amount","type":"uint256","indexed":false,"internalType":"uint256"}],"anonymous":false},{"type":"event","name":"CollateralWithdrawn","inputs":[{"name":"amount","type":"uint256","indexed":false,"internalType":"uint256"}],"anonymous":false},{"type":"event","name":"Debug","inputs":[{"name":"message","type":"string","indexed":false,"internalType":"string"},{"name":"value","type":"uint256","indexed":false,"internalType":"uint256"}],"anonymous":false},{"type":"event","name":"OwnershipTransferred","inputs":[{"name":"previousOwner","type":"address","indexed":true,"internalType":"address"},{"name":"newOwner","type":"address","indexed":true,"internalType":"address"}],"anonymous":false},{"type":"event","name":"SccUsdBurned","inputs":[{"name":"amount","type":"uint256","indexed":false,"internalType":"uint256"}],"anonymous":false},{"type":"event","name":"SccUsdMinted","inputs":[{"name":"amount","type":"uint256","indexed":false,"internalType":"uint256"}],"anonymous":false},{"type":"event","name":"Transfer","inputs":[{"name":"from","type":"address","indexed":true,"internalType":"address"},{"name":"to","type":"address","indexed":true,"internalType":"address"},{"name":"tokenId","type":"uint256","indexed":true,"internalType":"uint256"}],"anonymous":false},{"type":"error","name":"AmountExceedsDebt","inputs":[]},{"type":"error","name":"ERC721IncorrectOwner","inputs":[{"name":"sender","type":"address","internalType":"address"},{"name":"tokenId","type":"uint256","internalType":"uint256"},{"name":"owner","type":"address","internalType":"address"}]},{"type":"error","name":"ERC721InsufficientApproval","inputs":[{"name":"operator","type":"address","internalType":"address"},{"name":"tokenId","type":"uint256","internalType":"uint256"}]},{"type":"error","name":"ERC721InvalidApprover","inputs":[{"name":"approver","type":"address","internalType":"address"}]},{"type":"error","name":"ERC721InvalidOperator","inputs":[{"name":"operator","type":"address","internalType":"address"}]},{"type":"error","name":"ERC721InvalidOwner","inputs":[{"name":"owner","type":"address","internalType":"address"}]},{"type":"error","name":"ERC721InvalidReceiver","inputs":[{"name":"receiver","type":"address","internalType":"address"}]},{"type":"error","name":"ERC721InvalidSender","inputs":[{"name":"sender","type":"address","internalType":"address"}]},{"type":"error","name":"ERC721NonexistentToken","inputs":[{"name":"tokenId","type":"uint256","internalType":"uint256"}]},{"type":"error","name":"InsufficientCollateral","inputs":[]},{"type":"error","name":"NotLiquidationManager","inputs":[]},{"type":"error","name":"OwnableInvalidOwner","inputs":[{"name":"owner","type":"address","internalType":"address"}]},{"type":"error","name":"OwnableUnauthorizedAccount","inputs":[{"name":"account","type":"address","internalType":"address"}]},{"type":"error","name":"SafeERC20FailedOperation","inputs":[{"name":"token","type":"address","internalType":"address"}]},{"type":"error","name":"ZeroAddress","inputs":[]}],"bytecode":{"object":"0x6101206040523461050457611d3a60c0813803918261001d81610508565b938492833981010312610504576100338161052d565b61003f6020830161052d565b9161004c6040820161052d565b6100586060830161052d565b9061007160a061006a6080860161052d565b940161052d565b9361007c6040610508565b600981526814d0d0c815985d5b1d60ba1b602082015261009c6040610508565b600481526329a1a1ab60e11b6020820152815190916001600160401b03821161040b575f5490600182811c921680156104fa575b60208310146103ed5781601f84931161048d575b50602090601f831160011461042a575f9261041f575b50508160011b915f199060031b1c1916175f555b8051906001600160401b03821161040b5760015490600182811c92168015610401575b60208310146103ed5781601f84931161037f575b50602090601f8311600114610319575f9261030e575b50508160011b915f199060031b1c1916176001555b6001600160a01b03169485156102fb57600680546001600160a01b03198116881790915560405196906001600160a01b03167f8be0079c531659141344cd1fd0a4f28419497f9722a3daafe3b4186f6b6457e05f80a36001600160a01b0316801580156102ea575b80156102d9575b80156102c8575b80156102b7575b6102a8576080526001600160a01b0390811660a05290811660c05260e09190915216610100526117f8908161054282396080518181816103830152818161045c0152818161056101528181610c2201528181610c5d0152610e2b015260a0518181816107570152818161090a0152610ea3015260c05181818161059301528181610aa30152610c8f015260e05181818161025301528181610de70152610fbd015261010051818181610703015281816108c50152610d070152f35b63d92e233d60e01b5f5260045ffd5b506001600160a01b038516156101ed565b506001600160a01b038416156101e6565b506001600160a01b038316156101df565b506001600160a01b038216156101d8565b631e4fbdf760e01b5f525f60045260245ffd5b015190505f8061015b565b60015f9081528281209350601f198516905b818110610367575090846001959493921061034f575b505050811b01600155610170565b01515f1960f88460031b161c191690555f8080610341565b9293602060018192878601518155019501930161032b565b60015f529091507fb10e2d527612073b26eecdfd717e6a320cf44b4afac2b0732d9fcbe2b7fa0cf6601f840160051c810191602085106103e3575b90601f859493920160051c01905b8181106103d55750610145565b5f81558493506001016103c8565b90915081906103ba565b634e487b7160e01b5f52602260045260245ffd5b91607f1691610131565b634e487b7160e01b5f52604160045260245ffd5b015190505f806100fa565b5f8080528281209350601f198516905b818110610475575090846001959493921061045d575b505050811b015f5561010e565b01515f1960f88460031b161c191690555f8080610450565b9293602060018192878601518155019501930161043a565b5f80529091507f290decd9548b62a8d60345a988386fc84ba6bc95484008f6362f93160ef3e563601f840160051c810191602085106104f0575b90601f859493920160051c01905b8181106104e257506100e4565b5f81558493506001016104d5565b90915081906104c7565b91607f16916100d0565b5f80fd5b6040519190601f01601f191682016001600160401b0381118382101761040b57604052565b51906001600160a01b03821682036105045756fe6080806040526004361015610012575f80fd5b5f905f3560e01c90816274f356146112715750806301ffc9a71461120357806306fdde0314611112578063081812fc146110d6578063095ea7b314610fec5780631ef3a04c14610fa857806323b872dd14610f9157806342842e0e14610f6657806342966c6814610e5e57806349819d0a14610dc75780636112fe2e14610bb35780636352211e14610b8257806370a0823114610b2f578063715018a614610ad25780637dc0d1d014610a8d5780638da5cb5b14610a6457806392d09ceb14610a4657806395d89b4114610939578063961f389e146108f45780639de82b45146108af578063a0712d681461052d578063a22cb4651461048b578063b2016bd414610446578063b88d4fde146103b1578063bad4a01f146102ff578063c87b56dd146102a4578063c9e77ee81461023f578063e985e9c5146101e75763f2fde38b1461015c575f80fd5b346101e45760203660031901126101e4576101756112af565b61017d6116e0565b6001600160a01b031680156101d057600680546001600160a01b0319811683179091556001600160a01b03167f8be0079c531659141344cd1fd0a4f28419497f9722a3daafe3b4186f6b6457e05f80a380f35b631e4fbdf760e01b82526004829052602482fd5b80fd5b50346101e45760403660031901126101e45760406102036112af565b9161020c6112c5565b9260018060a01b031681526005602052209060018060a01b03165f52602052602060ff60405f2054166040519015158152f35b50346101e45760203660031901126101e4577f00000000000000000000000000000000000000000000000000000000000000006001600160a01b031633036102955761028f60043560085461150d565b60085580f35b63354b79a760e01b8152600490fd5b50346101e45760203660031901126101e4576102c16004356116ac565b50806040516102d1602082611315565b52506102fb6040516102e4602082611315565b5f815260405191829160208352602083019061128b565b0390f35b50346101e45760203660031901126101e4577fd4ba41dde4b6bd6955d1fd3d35b730d1fb4bb2fdf1ae1637eeefd3c39994b55e602060043561033f6116e0565b61034b8160075461155f565b6007556103a76040516323b872dd60e01b8482015233602482015230604482015282606482015260648152610381608482611315565b7f000000000000000000000000000000000000000000000000000000000000000061174a565b604051908152a180f35b50346101e45760803660031901126101e4576103cb6112af565b6103d36112c5565b906064359067ffffffffffffffff8211610442573660238301121561044257816004013592846104028561134b565b936104106040519586611315565b858552366024878301011161043e578561043b9660246020930183880137850101526044359161156c565b80f35b5080fd5b8380fd5b50346101e457806003193601126101e4576040517f00000000000000000000000000000000000000000000000000000000000000006001600160a01b03168152602090f35b50346101e45760403660031901126101e4576104a56112af565b60243590811515809203610529576001600160a01b031690811561051557338352600560205260408320825f5260205260405f2060ff1981541660ff83161790556040519081527f17307eab39ab6107e8899845ad3d59bd9653f200f220920489ca2b5937696c3160203392a380f35b630b61174360e31b83526004829052602483fd5b8280fd5b50346101e45760203660031901126101e45760043561054a6116e0565b6040516341976e0960e01b81526001600160a01b037f000000000000000000000000000000000000000000000000000000000000000081166004830152602090829060249082907f0000000000000000000000000000000000000000000000000000000000000000165afa9081156108a4578391610870575b5061060c670de0b6b3a7640000915f5160206117a35f395f51905f526080604051604081526005604082015264707269636560d81b6060820152836020820152a160075461152e565b045f5160206117a35f395f51905f52608060405160408152600f60408201526e636f6c6c61746572616c56616c756560881b6060820152836020820152a16106568260085461155f565b905f5160206117a35f395f51905f5260806040516040815260076040820152661b995dd119589d60ca1b6060820152846020820152a160648102908082046064149015171561085c57816106a991611541565b5f5160206117a35f395f51905f526080604051604081526016604082015275636f6c6c61746572616c697a6174696f6e526174696f60501b6060820152836020820152a1604051632e86f95560e21b8152906020826004817f00000000000000000000000000000000000000000000000000000000000000006001600160a01b03165afa918215610851578592610819575b501061080a5760085560065482906001600160a01b03908116907f000000000000000000000000000000000000000000000000000000000000000016803b15610529576040516340c10f1960e01b81526001600160a01b039290921660048301526024820184905282908290604490829084905af180156107ff576107ea575b507fb996fdc649ae423a7fc8d7cffe6f2ba6ac995b5d12fc2c898656fbf923b8ae8d602083604051908152a180f35b816107f491611315565b61043e57815f6107bb565b6040513d84823e3d90fd5b633a23d82560e01b8352600483fd5b9091506020813d602011610849575b8161083560209383611315565b810103126108455751905f61073b565b5f80fd5b3d9150610828565b6040513d87823e3d90fd5b634e487b7160e01b84526011600452602484fd5b90506020813d60201161089c575b8161088b60209383611315565b81010312610845575161060c6105c3565b3d915061087e565b6040513d85823e3d90fd5b50346101e457806003193601126101e4576040517f00000000000000000000000000000000000000000000000000000000000000006001600160a01b03168152602090f35b50346101e457806003193601126101e4576040517f00000000000000000000000000000000000000000000000000000000000000006001600160a01b03168152602090f35b50346101e457806003193601126101e4576040519080600154908160011c91600181168015610a3c575b602084108114610a2857838652908115610a0157506001146109a4575b6102fb8461099081860382611315565b60405191829160208352602083019061128b565b600181527fb10e2d527612073b26eecdfd717e6a320cf44b4afac2b0732d9fcbe2b7fa0cf6939250905b8082106109e75750909150810160200161099082610980565b9192600181602092548385880101520191019092916109ce565b60ff191660208087019190915292151560051b850190920192506109909150839050610980565b634e487b7160e01b83526022600452602483fd5b92607f1692610963565b50346101e457806003193601126101e4576020600754604051908152f35b50346101e457806003193601126101e4576006546040516001600160a01b039091168152602090f35b50346101e457806003193601126101e4576040517f00000000000000000000000000000000000000000000000000000000000000006001600160a01b03168152602090f35b50346101e457806003193601126101e457610aeb6116e0565b600680546001600160a01b0319811690915581906001600160a01b03167f8be0079c531659141344cd1fd0a4f28419497f9722a3daafe3b4186f6b6457e08280a380f35b50346101e45760203660031901126101e4576001600160a01b03610b516112af565b168015610b6e578160409160209352600383522054604051908152f35b6322718ad960e21b82526004829052602482fd5b50346101e45760203660031901126101e4576020610ba16004356116ac565b6040516001600160a01b039091168152f35b50346101e45760203660031901126101e457600435610bd06116e0565b610bdc8160075461150d565b60085480610c46575b506007556006547fc36696c86a9d1d0e60d9160cc0bdc4ac52ff55c21daff12fa7ab6c6331450a4b916020916103a79082906001600160a01b03167f0000000000000000000000000000000000000000000000000000000000000000611707565b6040516341976e0960e01b81526001600160a01b037f000000000000000000000000000000000000000000000000000000000000000081166004830152602090829060249082907f0000000000000000000000000000000000000000000000000000000000000000165afa908115610851578591610d93575b50610cd3670de0b6b3a7640000918461152e565b04606481029080820460641490151715610d7f5790610cf191611541565b604051632e86f95560e21b8152906020826004817f00000000000000000000000000000000000000000000000000000000000000006001600160a01b03165afa918215610851578592610d4b575b501061080a575f610be5565b9091506020813d602011610d77575b81610d6760209383611315565b810103126108455751905f610d3f565b3d9150610d5a565b634e487b7160e01b85526011600452602485fd5b90506020813d602011610dbf575b81610dae60209383611315565b810103126108455751610cd3610cbf565b3d9150610da1565b50346101e45760403660031901126101e457610de16112af565b602435907f00000000000000000000000000000000000000000000000000000000000000006001600160a01b03163303610e4f579061043b91610e268260075461150d565b6007557f0000000000000000000000000000000000000000000000000000000000000000611707565b63354b79a760e01b8352600483fd5b503461084557602036600319011261084557600435610e7b6116e0565b600854808211610f575781610e8f9161150d565b6008556006546001600160a01b03908116907f000000000000000000000000000000000000000000000000000000000000000016803b156108455760405163079cc67960e41b81526001600160a01b03929092166004830152602482018390525f908290604490829084905af18015610f4c57610f36575b5060207fe3d5123d6e5fd23740cd17d8f4df1cd1ed88a866c717173934d8b338828296aa91604051908152a180f35b610f439192505f90611315565b5f906020610f07565b6040513d5f823e3d90fd5b6364ddcf3760e01b5f5260045ffd5b3461084557610f8f610f77366112db565b9060405192610f87602085611315565b5f845261156c565b005b3461084557610f8f610fa2366112db565b91611367565b34610845575f366003190112610845576040517f00000000000000000000000000000000000000000000000000000000000000006001600160a01b03168152602090f35b34610845576040366003190112610845576110056112af565b602435611011816116ac565b331515806110c3575b80611096575b6110835781906001600160a01b0384811691167f8c5be1e5ebec7d5bd14f71427d1e84f3dd0314c0f7b2291e5b200ac8c7c3b9255f80a45f90815260046020526040902080546001600160a01b0319166001600160a01b03909216919091179055005b63a9fbf51f60e01b5f523360045260245ffd5b506001600160a01b0381165f90815260056020908152604080832033845290915290205460ff1615611020565b506001600160a01b03811633141561101a565b34610845576020366003190112610845576004356110f3816116ac565b505f526004602052602060018060a01b0360405f205416604051908152f35b34610845575f366003190112610845576040515f5f548060011c906001811680156111f9575b6020831081146111e5578285529081156111c15750600114611165575b6102fb8361099081850382611315565b5f8080527f290decd9548b62a8d60345a988386fc84ba6bc95484008f6362f93160ef3e563939250905b8082106111a757509091508101602001610990611155565b91926001816020925483858801015201910190929161118f565b60ff191660208086019190915291151560051b840190910191506109909050611155565b634e487b7160e01b5f52602260045260245ffd5b91607f1691611138565b346108455760203660031901126108455760043563ffffffff60e01b8116809103610845576020906380ac58cd60e01b8114908115611260575b811561124f575b506040519015158152f35b6301ffc9a760e01b14905082611244565b635b5e139f60e01b8114915061123d565b34610845575f366003190112610845576020906008548152f35b805180835260209291819084018484015e5f828201840152601f01601f1916010190565b600435906001600160a01b038216820361084557565b602435906001600160a01b038216820361084557565b6060906003190112610845576004356001600160a01b038116810361084557906024356001600160a01b0381168103610845579060443590565b90601f8019910116810190811067ffffffffffffffff82111761133757604052565b634e487b7160e01b5f52604160045260245ffd5b67ffffffffffffffff811161133757601f01601f191660200190565b6001600160a01b03909116919082156114fa575f828152600260205260409020546001600160a01b031692829033151580611465575b508461142c575b805f52600360205260405f2060018154019055815f52600260205260405f20816bffffffffffffffffffffffff60a01b825416179055847fddf252ad1be2c89b69c2b068fc378daa952ba7f163c4a11628f55a4df523b3ef5f80a46001600160a01b031680830361141457505050565b6364283d7b60e01b5f5260045260245260445260645ffd5b815f52600460205260405f206bffffffffffffffffffffffff60a01b8154169055845f52600360205260405f205f1981540190556113a4565b909150806114a9575b1561147b5782905f61139d565b828461149357637e27328960e01b5f5260045260245ffd5b63177e802f60e01b5f523360045260245260445ffd5b5033841480156114d8575b8061146e57505f838152600460205260409020546001600160a01b0316331461146e565b505f84815260056020908152604080832033845290915290205460ff166114b4565b633250574960e11b5f525f60045260245ffd5b9190820391821161151a57565b634e487b7160e01b5f52601160045260245ffd5b8181029291811591840414171561151a57565b811561154b570490565b634e487b7160e01b5f52601260045260245ffd5b9190820180921161151a57565b9291611579818386611367565b813b611586575b50505050565b604051630a85bd0160e11b81523360048201526001600160a01b03948516602482015260448101919091526080606482015292169190602090829081906115d190608483019061128b565b03815f865af15f9181611667575b5061163457503d1561162d573d6115f58161134b565b906116036040519283611315565b81523d5f602083013e5b805190816116285782633250574960e11b5f5260045260245ffd5b602001fd5b606061160d565b6001600160e01b03191663757a42ff60e11b0161165557505f808080611580565b633250574960e11b5f5260045260245ffd5b9091506020813d6020116116a4575b8161168360209383611315565b8101031261084557516001600160e01b03198116810361084557905f6115df565b3d9150611676565b5f818152600260205260409020546001600160a01b03169081156116ce575090565b637e27328960e01b5f5260045260245ffd5b6006546001600160a01b031633036116f457565b63118cdaa760e01b5f523360045260245ffd5b60405163a9059cbb60e01b60208201526001600160a01b0392909216602483015260448083019390935291815261174891611743606483611315565b61174a565b565b905f602091828151910182855af115610f4c575f513d61179957506001600160a01b0381163b155b6117795750565b635274afe760e01b5f9081526001600160a01b0391909116600452602490fd5b6001141561177256fe3c5ad147104e56be34a9176a6692f7df8d2f4b29a5af06bc6b98970d329d6577a26469706673582212208754476a8577db7ae82bb31e39162b4ca3632a5200d04e5d7f8510654609830964736f6c634300081e0033","linkReferences":{}},"methodIdentifiers":{"approve(address,uint256)":"095ea7b3","balanceOf(address)":"70a08231","burn(uint256)":"42966c68","collateralAmount()":"92d09ceb","collateralToken()":"b2016bd4","debtAmount()":"0074f356","depositCollateral(uint256)":"bad4a01f","getApproved(uint256)":"081812fc","isApprovedForAll(address,address)":"e985e9c5","liquidationManager()":"1ef3a04c","mint(uint256)":"a0712d68","name()":"06fdde03","oracle()":"7dc0d1d0","owner()":"8da5cb5b","ownerOf(uint256)":"6352211e","reduceDebt(uint256)":"c9e77ee8","renounceOwnership()":"715018a6","safeTransferFrom(address,address,uint256)":"42842e0e","safeTransferFrom(address,address,uint256,bytes)":"b88d4fde","sccParameters()":"9de82b45","sccUsdToken()":"961f389e","setApprovalForAll(address,bool)":"a22cb465","supportsInterface(bytes4)":"01ffc9a7","symbol()":"95d89b41","tokenURI(uint256)":"c87b56dd","transferCollateralTo(address,uint256)":"49819d0a","transferFrom(address,address,uint256)":"23b872dd","transferOwnership(address)":"f2fde38b","withdrawCollateral(uint256)":"6112fe2e"},"id":86}