{"abi":[{"type":"constructor","inputs":[{"name":"_initialOwner","type":"address","internalType":"address"},{"name":"_collateralToken","type":"address","internalType":"address"},{"name":"_sccUsdToken","type":"address","internalType":"address"},{"name":"_oracleManager","type":"address","internalType":"address"},{"name":"_liquidationManager","type":"address","internalType":"address"}],"stateMutability":"nonpayable"},{"type":"function","name":"collateralToken","inputs":[],"outputs":[{"name":"","type":"address","internalType":"address"}],"stateMutability":"view"},{"type":"function","name":"createNewVault","inputs":[],"outputs":[{"name":"vaultAddress","type":"address","internalType":"address"}],"stateMutability":"nonpayable"},{"type":"function","name":"liquidationManager","inputs":[],"outputs":[{"name":"","type":"address","internalType":"address"}],"stateMutability":"view"},{"type":"function","name":"oracleManager","inputs":[],"outputs":[{"name":"","type":"address","internalType":"address"}],"stateMutability":"view"},{"type":"function","name":"owner","inputs":[],"outputs":[{"name":"","type":"address","internalType":"address"}],"stateMutability":"view"},{"type":"function","name":"renounceOwnership","inputs":[],"outputs":[],"stateMutability":"nonpayable"},{"type":"function","name":"sccUsdToken","inputs":[],"outputs":[{"name":"","type":"address","internalType":"address"}],"stateMutability":"view"},{"type":"function","name":"transferOwnership","inputs":[{"name":"newOwner","type":"address","internalType":"address"}],"outputs":[],"stateMutability":"nonpayable"},{"type":"event","name":"OwnershipTransferred","inputs":[{"name":"previousOwner","type":"address","indexed":true,"internalType":"address"},{"name":"newOwner","type":"address","indexed":true,"internalType":"address"}],"anonymous":false},{"type":"event","name":"VaultCreated","inputs":[{"name":"vaultAddress","type":"address","indexed":true,"internalType":"address"},{"name":"owner","type":"address","indexed":true,"internalType":"address"}],"anonymous":false},{"type":"error","name":"OwnableInvalidOwner","inputs":[{"name":"owner","type":"address","internalType":"address"}]},{"type":"error","name":"OwnableUnauthorizedAccount","inputs":[{"name":"account","type":"address","internalType":"address"}]}],"bytecode":{"object":"0x6101003461013d57601f61210f38819003918201601f19168301916001600160401b038311848410176101415780849260a09460405283398101031261013d5761004881610155565b61005460208301610155565b9161006160408201610155565b610079608061007260608501610155565b9301610155565b6001600160a01b0390931693841561012a575f80546001600160a01b031981168717825560405196916001600160a01b03909116907f8be0079c531659141344cd1fd0a4f28419497f9722a3daafe3b4186f6b6457e09080a360805260a05260c05260e052611fa5908161016a823960805181818161011a01526101ee015260a05181818161015f015261021f015260c0518181816102490152610478015260e05181818161027301526104b90152f35b631e4fbdf760e01b5f525f60045260245ffd5b5f80fd5b634e487b7160e01b5f52604160045260245ffd5b51906001600160a01b038216820361013d5756fe6080806040526004361015610012575f80fd5b5f905f3560e01c9081631ef3a04c146104a757508063565d878c14610463578063715018a61461040c5780638b2d1dbe146101b55780638da5cb5b1461018e578063961f389e14610149578063b2016bd4146101045763f2fde38b14610076575f80fd5b34610101576020366003190112610101576004356001600160a01b038116908190036100ff576100a461050a565b80156100eb5781546001600160a01b03198116821783556001600160a01b03167f8be0079c531659141344cd1fd0a4f28419497f9722a3daafe3b4186f6b6457e08380a380f35b631e4fbdf760e01b82526004829052602482fd5b505b80fd5b50346101015780600319360112610101576040517f00000000000000000000000000000000000000000000000000000000000000006001600160a01b03168152602090f35b50346101015780600319360112610101576040517f00000000000000000000000000000000000000000000000000000000000000006001600160a01b03168152602090f35b5034610101578060031936011261010157546040516001600160a01b039091168152602090f35b50346103f4575f3660031901126103f457604051611a3f908181019181831067ffffffffffffffff8411176103f85761053182393382527f00000000000000000000000000000000000000000000000000000000000000006001600160a01b0390811660208401527f00000000000000000000000000000000000000000000000000000000000000008116604084018190527f00000000000000000000000000000000000000000000000000000000000000008216606085018190527f00000000000000000000000000000000000000000000000000000000000000009092166080850152909290919081900360a001905ff080156103e9576001600160a01b031691803b156103f4575f80916044604051809481936207767560ed1b8352886004840152600160248401525af180156103e9576103d4575b5060405163d539139360e01b81528391602082600481845afa9182156103915783926103a0575b50803b1561039c57604483926040519485938492632f2ff15d60e01b845260048401528760248401525af180156103915761037c575b6040516020908333817f5d9c31ffa0fecffd7cf379989a3c7af252f0335e0d2a1320b55245912c781f538880a38152f35b6103878380926104e8565b6100ff575f61034b565b6040513d85823e3d90fd5b8280fd5b9091506020813d6020116103cc575b816103bc602093836104e8565b8101031261039c5751905f610315565b3d91506103af565b6103e19193505f906104e8565b5f915f6102ee565b6040513d5f823e3d90fd5b5f80fd5b634e487b7160e01b5f52604160045260245ffd5b346103f4575f3660031901126103f45761042461050a565b5f80546001600160a01b0319811682556001600160a01b03167f8be0079c531659141344cd1fd0a4f28419497f9722a3daafe3b4186f6b6457e08280a3005b346103f4575f3660031901126103f4576040517f00000000000000000000000000000000000000000000000000000000000000006001600160a01b03168152602090f35b346103f4575f3660031901126103f4577f00000000000000000000000000000000000000000000000000000000000000006001600160a01b03168152602090f35b90601f8019910116810190811067ffffffffffffffff8211176103f857604052565b5f546001600160a01b0316330361051d57565b63118cdaa760e01b5f523360045260245ffdfe610100604052346104b657611a3f60a0813803918261001d816104ba565b9384928339810103126104b657610033816104df565b61003f602083016104df565b9161004c604082016104df565b610064608061005d606085016104df565b93016104df565b9261006f60406104ba565b600981526814d0d0c815985d5b1d60ba1b602082015261008f60406104ba565b600481526329a1a1ab60e11b6020820152815190916001600160401b0382116103bd575f5490600182811c921680156104ac575b602083101461039f5781601f84931161043f575b50602090601f83116001146103dc575f926103d1575b50508160011b915f199060031b1c1916175f555b8051906001600160401b0382116103bd5760015490600182811c921680156103b3575b602083101461039f5781601f849311610331575b50602090601f83116001146102cb575f926102c0575b50508160011b915f199060031b1c1916176001555b6001600160a01b03169384156102ad57600680546001600160a01b03198116871790915560405195906001600160a01b03167f8be0079c531659141344cd1fd0a4f28419497f9722a3daafe3b4186f6b6457e05f80a36001600160a01b03168015801561029c575b801561028b575b801561027a575b61026b576080526001600160a01b0390811660a0521660c05260e05261154b90816104f4823960805181818161032f015281816104080152818161051001528181610a1b01528181610a560152610b9e015260a0518181816105ce015281816107030152610c16015260c0518181816105420152818161089c0152610a88015260e051818181610b660152610d300152f35b63d92e233d60e01b5f5260045ffd5b506001600160a01b038416156101d9565b506001600160a01b038316156101d2565b506001600160a01b038216156101cb565b631e4fbdf760e01b5f525f60045260245ffd5b015190505f8061014e565b60015f9081528281209350601f198516905b8181106103195750908460019594939210610301575b505050811b01600155610163565b01515f1960f88460031b161c191690555f80806102f3565b929360206001819287860151815501950193016102dd565b60015f529091507fb10e2d527612073b26eecdfd717e6a320cf44b4afac2b0732d9fcbe2b7fa0cf6601f840160051c81019160208510610395575b90601f859493920160051c01905b8181106103875750610138565b5f815584935060010161037a565b909150819061036c565b634e487b7160e01b5f52602260045260245ffd5b91607f1691610124565b634e487b7160e01b5f52604160045260245ffd5b015190505f806100ed565b5f8080528281209350601f198516905b818110610427575090846001959493921061040f575b505050811b015f55610101565b01515f1960f88460031b161c191690555f8080610402565b929360206001819287860151815501950193016103ec565b5f80529091507f290decd9548b62a8d60345a988386fc84ba6bc95484008f6362f93160ef3e563601f840160051c810191602085106104a2575b90601f859493920160051c01905b81811061049457506100d7565b5f8155849350600101610487565b9091508190610479565b91607f16916100c3565b5f80fd5b6040519190601f01601f191682016001600160401b038111838210176103bd57604052565b51906001600160a01b03821682036104b65756fe6080806040526004361015610012575f80fd5b5f905f3560e01c90816274f35614610fe45750806301ffc9a714610f7657806306fdde0314610e85578063081812fc14610e49578063095ea7b314610d5f5780631ef3a04c14610d1b57806323b872dd14610d0457806342842e0e14610cd957806342966c6814610bd157806349819d0a14610b4a5780636112fe2e146109ac5780636352211e1461097b57806370a0823114610928578063715018a6146108cb5780637dc0d1d0146108865780638da5cb5b1461085d57806392d09ceb1461083f57806395d89b4114610732578063961f389e146106ed578063a0712d68146104d9578063a22cb46514610437578063b2016bd4146103f2578063b88d4fde1461035d578063bad4a01f146102ab578063c87b56dd14610250578063e985e9c5146101f8578063edbcc146146101dc5763f2fde38b14610151575f80fd5b346101d95760203660031901126101d95761016a611022565b610172611453565b6001600160a01b031680156101c557600680546001600160a01b0319811683179091556001600160a01b03167f8be0079c531659141344cd1fd0a4f28419497f9722a3daafe3b4186f6b6457e05f80a380f35b631e4fbdf760e01b82526004829052602482fd5b80fd5b50346101d957806003193601126101d957602060405160968152f35b50346101d95760403660031901126101d9576040610214611022565b9161021d611038565b9260018060a01b031681526005602052209060018060a01b03165f52602052602060ff60405f2054166040519015158152f35b50346101d95760203660031901126101d95761026d60043561141f565b508060405161027d602082611088565b52506102a7604051610290602082611088565b5f8152604051918291602083526020830190610ffe565b0390f35b50346101d95760203660031901126101d9577fd4ba41dde4b6bd6955d1fd3d35b730d1fb4bb2fdf1ae1637eeefd3c39994b55e60206004356102eb611453565b6102f7816007546112d2565b6007556103536040516323b872dd60e01b848201523360248201523060448201528260648201526064815261032d608482611088565b7f00000000000000000000000000000000000000000000000000000000000000006114bd565b604051908152a180f35b50346101d95760803660031901126101d957610377611022565b61037f611038565b906064359067ffffffffffffffff82116103ee57366023830112156103ee57816004013592846103ae856110be565b936103bc6040519586611088565b85855236602487830101116103ea57856103e7966024602093018388013785010152604435916112df565b80f35b5080fd5b8380fd5b50346101d957806003193601126101d9576040517f00000000000000000000000000000000000000000000000000000000000000006001600160a01b03168152602090f35b50346101d95760403660031901126101d957610451611022565b602435908115158092036104d5576001600160a01b03169081156104c157338352600560205260408320825f5260205260405f2060ff1981541660ff83161790556040519081527f17307eab39ab6107e8899845ad3d59bd9653f200f220920489ca2b5937696c3160203392a380f35b630b61174360e31b83526004829052602483fd5b8280fd5b50346101d95760203660031901126101d9576004356104f6611453565b6007546040516341976e0960e01b81526001600160a01b037f000000000000000000000000000000000000000000000000000000000000000081166004830152602090829060249082907f0000000000000000000000000000000000000000000000000000000000000000165afa9081156106e25784916106a4575b5061058690670de0b6b3a7640000926112a1565b04610593826008546112d2565b90606481029080820460641490151715610690576105b3826096926112b4565b106106815760085560065482906001600160a01b03908116907f000000000000000000000000000000000000000000000000000000000000000016803b156104d5576040516340c10f1960e01b81526001600160a01b039290921660048301526024820184905282908290604490829084905af1801561067657610661575b507fb996fdc649ae423a7fc8d7cffe6f2ba6ac995b5d12fc2c898656fbf923b8ae8d602083604051908152a180f35b8161066b91611088565b6103ea57815f610632565b6040513d84823e3d90fd5b633a23d82560e01b8352600483fd5b634e487b7160e01b84526011600452602484fd5b90506020813d6020116106da575b816106bf60209383611088565b810103126106d65751670de0b6b3a7640000610572565b5f80fd5b3d91506106b2565b6040513d86823e3d90fd5b50346101d957806003193601126101d9576040517f00000000000000000000000000000000000000000000000000000000000000006001600160a01b03168152602090f35b50346101d957806003193601126101d9576040519080600154908160011c91600181168015610835575b602084108114610821578386529081156107fa575060011461079d575b6102a78461078981860382611088565b604051918291602083526020830190610ffe565b600181527fb10e2d527612073b26eecdfd717e6a320cf44b4afac2b0732d9fcbe2b7fa0cf6939250905b8082106107e05750909150810160200161078982610779565b9192600181602092548385880101520191019092916107c7565b60ff191660208087019190915292151560051b850190920192506107899150839050610779565b634e487b7160e01b83526022600452602483fd5b92607f169261075c565b50346101d957806003193601126101d9576020600754604051908152f35b50346101d957806003193601126101d9576006546040516001600160a01b039091168152602090f35b50346101d957806003193601126101d9576040517f00000000000000000000000000000000000000000000000000000000000000006001600160a01b03168152602090f35b50346101d957806003193601126101d9576108e4611453565b600680546001600160a01b0319811690915581906001600160a01b03167f8be0079c531659141344cd1fd0a4f28419497f9722a3daafe3b4186f6b6457e08280a380f35b50346101d95760203660031901126101d9576001600160a01b0361094a611022565b168015610967578160409160209352600383522054604051908152f35b6322718ad960e21b82526004829052602482fd5b50346101d95760203660031901126101d957602061099a60043561141f565b6040516001600160a01b039091168152f35b50346101d95760203660031901126101d9576004356109c9611453565b6109d581600754611280565b60085480610a3f575b506007556006547fc36696c86a9d1d0e60d9160cc0bdc4ac52ff55c21daff12fa7ab6c6331450a4b916020916103539082906001600160a01b03167f000000000000000000000000000000000000000000000000000000000000000061147a565b6040516341976e0960e01b81526001600160a01b037f000000000000000000000000000000000000000000000000000000000000000081166004830152602090829060249082907f0000000000000000000000000000000000000000000000000000000000000000165afa908115610b3f578591610b0b575b50610acc670de0b6b3a764000091846112a1565b04606481029080820460641490151715610af757609691610aec916112b4565b10610681575f6109de565b634e487b7160e01b85526011600452602485fd5b90506020813d602011610b37575b81610b2660209383611088565b810103126106d65751610acc610ab8565b3d9150610b19565b6040513d87823e3d90fd5b50346101d95760403660031901126101d957610b64611022565b7f00000000000000000000000000000000000000000000000000000000000000006001600160a01b03163303610bc2576103e790602435907f000000000000000000000000000000000000000000000000000000000000000061147a565b63354b79a760e01b8252600482fd5b50346106d65760203660031901126106d657600435610bee611453565b600854808211610cca5781610c0291611280565b6008556006546001600160a01b03908116907f000000000000000000000000000000000000000000000000000000000000000016803b156106d65760405163079cc67960e41b81526001600160a01b03929092166004830152602482018390525f908290604490829084905af18015610cbf57610ca9575b5060207fe3d5123d6e5fd23740cd17d8f4df1cd1ed88a866c717173934d8b338828296aa91604051908152a180f35b610cb69192505f90611088565b5f906020610c7a565b6040513d5f823e3d90fd5b6364ddcf3760e01b5f5260045ffd5b346106d657610d02610cea3661104e565b9060405192610cfa602085611088565b5f84526112df565b005b346106d657610d02610d153661104e565b916110da565b346106d6575f3660031901126106d6576040517f00000000000000000000000000000000000000000000000000000000000000006001600160a01b03168152602090f35b346106d65760403660031901126106d657610d78611022565b602435610d848161141f565b33151580610e36575b80610e09575b610df65781906001600160a01b0384811691167f8c5be1e5ebec7d5bd14f71427d1e84f3dd0314c0f7b2291e5b200ac8c7c3b9255f80a45f90815260046020526040902080546001600160a01b0319166001600160a01b03909216919091179055005b63a9fbf51f60e01b5f523360045260245ffd5b506001600160a01b0381165f90815260056020908152604080832033845290915290205460ff1615610d93565b506001600160a01b038116331415610d8d565b346106d65760203660031901126106d657600435610e668161141f565b505f526004602052602060018060a01b0360405f205416604051908152f35b346106d6575f3660031901126106d6576040515f5f548060011c90600181168015610f6c575b602083108114610f5857828552908115610f345750600114610ed8575b6102a78361078981850382611088565b5f8080527f290decd9548b62a8d60345a988386fc84ba6bc95484008f6362f93160ef3e563939250905b808210610f1a57509091508101602001610789610ec8565b919260018160209254838588010152019101909291610f02565b60ff191660208086019190915291151560051b840190910191506107899050610ec8565b634e487b7160e01b5f52602260045260245ffd5b91607f1691610eab565b346106d65760203660031901126106d65760043563ffffffff60e01b81168091036106d6576020906380ac58cd60e01b8114908115610fd3575b8115610fc2575b506040519015158152f35b6301ffc9a760e01b14905082610fb7565b635b5e139f60e01b81149150610fb0565b346106d6575f3660031901126106d6576020906008548152f35b805180835260209291819084018484015e5f828201840152601f01601f1916010190565b600435906001600160a01b03821682036106d657565b602435906001600160a01b03821682036106d657565b60609060031901126106d6576004356001600160a01b03811681036106d657906024356001600160a01b03811681036106d6579060443590565b90601f8019910116810190811067ffffffffffffffff8211176110aa57604052565b634e487b7160e01b5f52604160045260245ffd5b67ffffffffffffffff81116110aa57601f01601f191660200190565b6001600160a01b039091169190821561126d575f828152600260205260409020546001600160a01b0316928290331515806111d8575b508461119f575b805f52600360205260405f2060018154019055815f52600260205260405f20816bffffffffffffffffffffffff60a01b825416179055847fddf252ad1be2c89b69c2b068fc378daa952ba7f163c4a11628f55a4df523b3ef5f80a46001600160a01b031680830361118757505050565b6364283d7b60e01b5f5260045260245260445260645ffd5b815f52600460205260405f206bffffffffffffffffffffffff60a01b8154169055845f52600360205260405f205f198154019055611117565b9091508061121c575b156111ee5782905f611110565b828461120657637e27328960e01b5f5260045260245ffd5b63177e802f60e01b5f523360045260245260445ffd5b50338414801561124b575b806111e157505f838152600460205260409020546001600160a01b031633146111e1565b505f84815260056020908152604080832033845290915290205460ff16611227565b633250574960e11b5f525f60045260245ffd5b9190820391821161128d57565b634e487b7160e01b5f52601160045260245ffd5b8181029291811591840414171561128d57565b81156112be570490565b634e487b7160e01b5f52601260045260245ffd5b9190820180921161128d57565b92916112ec8183866110da565b813b6112f9575b50505050565b604051630a85bd0160e11b81523360048201526001600160a01b0394851660248201526044810191909152608060648201529216919060209082908190611344906084830190610ffe565b03815f865af15f91816113da575b506113a757503d156113a0573d611368816110be565b906113766040519283611088565b81523d5f602083013e5b8051908161139b5782633250574960e11b5f5260045260245ffd5b602001fd5b6060611380565b6001600160e01b03191663757a42ff60e11b016113c857505f8080806112f3565b633250574960e11b5f5260045260245ffd5b9091506020813d602011611417575b816113f660209383611088565b810103126106d657516001600160e01b0319811681036106d657905f611352565b3d91506113e9565b5f818152600260205260409020546001600160a01b0316908115611441575090565b637e27328960e01b5f5260045260245ffd5b6006546001600160a01b0316330361146757565b63118cdaa760e01b5f523360045260245ffd5b60405163a9059cbb60e01b60208201526001600160a01b039290921660248301526044808301939093529181526114bb916114b6606483611088565b6114bd565b565b905f602091828151910182855af115610cbf575f513d61150c57506001600160a01b0381163b155b6114ec5750565b635274afe760e01b5f9081526001600160a01b0391909116600452602490fd5b600114156114e556fea2646970667358221220ee6338fff9a42d2a6f780f874ef840c04583945587e94d0c2ec97bedf573411064736f6c634300081e0033a2646970667358221220654819fdf798540babb0a6cba132eba705a5ce08b8ed4d33b6661e311695ef7464736f6c634300081e0033","linkReferences":{}},"methodIdentifiers":{"collateralToken()":"b2016bd4","createNewVault()":"8b2d1dbe","liquidationManager()":"1ef3a04c","oracleManager()":"565d878c","owner()":"8da5cb5b","renounceOwnership()":"715018a6","sccUsdToken()":"961f389e","transferOwnership(address)":"f2fde38b"},"id":83}