{"abi":[{"type":"constructor","inputs":[{"name":"_token","type":"address","internalType":"contract IVotes"},{"name":"_timelock","type":"address","internalType":"contract TimelockController"}],"stateMutability":"nonpayable"},{"type":"receive","stateMutability":"payable"},{"type":"function","name":"BALLOT_TYPEHASH","inputs":[],"outputs":[{"name":"","type":"bytes32","internalType":"bytes32"}],"stateMutability":"view"},{"type":"function","name":"CLOCK_MODE","inputs":[],"outputs":[{"name":"","type":"string","internalType":"string"}],"stateMutability":"view"},{"type":"function","name":"COUNTING_MODE","inputs":[],"outputs":[{"name":"","type":"string","internalType":"string"}],"stateMutability":"pure"},{"type":"function","name":"EXTENDED_BALLOT_TYPEHASH","inputs":[],"outputs":[{"name":"","type":"bytes32","internalType":"bytes32"}],"stateMutability":"view"},{"type":"function","name":"INITIAL_PROPOSAL_THRESHOLD","inputs":[],"outputs":[{"name":"","type":"uint256","internalType":"uint256"}],"stateMutability":"view"},{"type":"function","name":"INITIAL_QUORUM_PERCENT","inputs":[],"outputs":[{"name":"","type":"uint256","internalType":"uint256"}],"stateMutability":"view"},{"type":"function","name":"INITIAL_VOTING_DELAY","inputs":[],"outputs":[{"name":"","type":"uint256","internalType":"uint256"}],"stateMutability":"view"},{"type":"function","name":"INITIAL_VOTING_PERIOD","inputs":[],"outputs":[{"name":"","type":"uint256","internalType":"uint256"}],"stateMutability":"view"},{"type":"function","name":"cancel","inputs":[{"name":"targets","type":"address[]","internalType":"address[]"},{"name":"values","type":"uint256[]","internalType":"uint256[]"},{"name":"calldatas","type":"bytes[]","internalType":"bytes[]"},{"name":"descriptionHash","type":"bytes32","internalType":"bytes32"}],"outputs":[{"name":"","type":"uint256","internalType":"uint256"}],"stateMutability":"nonpayable"},{"type":"function","name":"castVote","inputs":[{"name":"proposalId","type":"uint256","internalType":"uint256"},{"name":"support","type":"uint8","internalType":"uint8"}],"outputs":[{"name":"","type":"uint256","internalType":"uint256"}],"stateMutability":"nonpayable"},{"type":"function","name":"castVoteBySig","inputs":[{"name":"proposalId","type":"uint256","internalType":"uint256"},{"name":"support","type":"uint8","internalType":"uint8"},{"name":"voter","type":"address","internalType":"address"},{"name":"signature","type":"bytes","internalType":"bytes"}],"outputs":[{"name":"","type":"uint256","internalType":"uint256"}],"stateMutability":"nonpayable"},{"type":"function","name":"castVoteWithReason","inputs":[{"name":"proposalId","type":"uint256","internalType":"uint256"},{"name":"support","type":"uint8","internalType":"uint8"},{"name":"reason","type":"string","internalType":"string"}],"outputs":[{"name":"","type":"uint256","internalType":"uint256"}],"stateMutability":"nonpayable"},{"type":"function","name":"castVoteWithReasonAndParams","inputs":[{"name":"proposalId","type":"uint256","internalType":"uint256"},{"name":"support","type":"uint8","internalType":"uint8"},{"name":"reason","type":"string","internalType":"string"},{"name":"params","type":"bytes","internalType":"bytes"}],"outputs":[{"name":"","type":"uint256","internalType":"uint256"}],"stateMutability":"nonpayable"},{"type":"function","name":"castVoteWithReasonAndParamsBySig","inputs":[{"name":"proposalId","type":"uint256","internalType":"uint256"},{"name":"support","type":"uint8","internalType":"uint8"},{"name":"voter","type":"address","internalType":"address"},{"name":"reason","type":"string","internalType":"string"},{"name":"params","type":"bytes","internalType":"bytes"},{"name":"signature","type":"bytes","internalType":"bytes"}],"outputs":[{"name":"","type":"uint256","internalType":"uint256"}],"stateMutability":"nonpayable"},{"type":"function","name":"clock","inputs":[],"outputs":[{"name":"","type":"uint48","internalType":"uint48"}],"stateMutability":"view"},{"type":"function","name":"eip712Domain","inputs":[],"outputs":[{"name":"fields","type":"bytes1","internalType":"bytes1"},{"name":"name","type":"string","internalType":"string"},{"name":"version","type":"string","internalType":"string"},{"name":"chainId","type":"uint256","internalType":"uint256"},{"name":"verifyingContract","type":"address","internalType":"address"},{"name":"salt","type":"bytes32","internalType":"bytes32"},{"name":"extensions","type":"uint256[]","internalType":"uint256[]"}],"stateMutability":"view"},{"type":"function","name":"execute","inputs":[{"name":"targets","type":"address[]","internalType":"address[]"},{"name":"values","type":"uint256[]","internalType":"uint256[]"},{"name":"calldatas","type":"bytes[]","internalType":"bytes[]"},{"name":"descriptionHash","type":"bytes32","internalType":"bytes32"}],"outputs":[{"name":"","type":"uint256","internalType":"uint256"}],"stateMutability":"payable"},{"type":"function","name":"getProposalId","inputs":[{"name":"targets","type":"address[]","internalType":"address[]"},{"name":"values","type":"uint256[]","internalType":"uint256[]"},{"name":"calldatas","type":"bytes[]","internalType":"bytes[]"},{"name":"descriptionHash","type":"bytes32","internalType":"bytes32"}],"outputs":[{"name":"","type":"uint256","internalType":"uint256"}],"stateMutability":"view"},{"type":"function","name":"getVotes","inputs":[{"name":"account","type":"address","internalType":"address"},{"name":"timepoint","type":"uint256","internalType":"uint256"}],"outputs":[{"name":"","type":"uint256","internalType":"uint256"}],"stateMutability":"view"},{"type":"function","name":"getVotesWithParams","inputs":[{"name":"account","type":"address","internalType":"address"},{"name":"timepoint","type":"uint256","internalType":"uint256"},{"name":"params","type":"bytes","internalType":"bytes"}],"outputs":[{"name":"","type":"uint256","internalType":"uint256"}],"stateMutability":"view"},{"type":"function","name":"hasVoted","inputs":[{"name":"proposalId","type":"uint256","internalType":"uint256"},{"name":"account","type":"address","internalType":"address"}],"outputs":[{"name":"","type":"bool","internalType":"bool"}],"stateMutability":"view"},{"type":"function","name":"hashProposal","inputs":[{"name":"targets","type":"address[]","internalType":"address[]"},{"name":"values","type":"uint256[]","internalType":"uint256[]"},{"name":"calldatas","type":"bytes[]","internalType":"bytes[]"},{"name":"descriptionHash","type":"bytes32","internalType":"bytes32"}],"outputs":[{"name":"","type":"uint256","internalType":"uint256"}],"stateMutability":"pure"},{"type":"function","name":"name","inputs":[],"outputs":[{"name":"","type":"string","internalType":"string"}],"stateMutability":"view"},{"type":"function","name":"nonces","inputs":[{"name":"owner","type":"address","internalType":"address"}],"outputs":[{"name":"","type":"uint256","internalType":"uint256"}],"stateMutability":"view"},{"type":"function","name":"onERC1155BatchReceived","inputs":[{"name":"","type":"address","internalType":"address"},{"name":"","type":"address","internalType":"address"},{"name":"","type":"uint256[]","internalType":"uint256[]"},{"name":"","type":"uint256[]","internalType":"uint256[]"},{"name":"","type":"bytes","internalType":"bytes"}],"outputs":[{"name":"","type":"bytes4","internalType":"bytes4"}],"stateMutability":"nonpayable"},{"type":"function","name":"onERC1155Received","inputs":[{"name":"","type":"address","internalType":"address"},{"name":"","type":"address","internalType":"address"},{"name":"","type":"uint256","internalType":"uint256"},{"name":"","type":"uint256","internalType":"uint256"},{"name":"","type":"bytes","internalType":"bytes"}],"outputs":[{"name":"","type":"bytes4","internalType":"bytes4"}],"stateMutability":"nonpayable"},{"type":"function","name":"onERC721Received","inputs":[{"name":"","type":"address","internalType":"address"},{"name":"","type":"address","internalType":"address"},{"name":"","type":"uint256","internalType":"uint256"},{"name":"","type":"bytes","internalType":"bytes"}],"outputs":[{"name":"","type":"bytes4","internalType":"bytes4"}],"stateMutability":"nonpayable"},{"type":"function","name":"proposalDeadline","inputs":[{"name":"proposalId","type":"uint256","internalType":"uint256"}],"outputs":[{"name":"","type":"uint256","internalType":"uint256"}],"stateMutability":"view"},{"type":"function","name":"proposalEta","inputs":[{"name":"proposalId","type":"uint256","internalType":"uint256"}],"outputs":[{"name":"","type":"uint256","internalType":"uint256"}],"stateMutability":"view"},{"type":"function","name":"proposalNeedsQueuing","inputs":[{"name":"proposalId","type":"uint256","internalType":"uint256"}],"outputs":[{"name":"","type":"bool","internalType":"bool"}],"stateMutability":"view"},{"type":"function","name":"proposalProposer","inputs":[{"name":"proposalId","type":"uint256","internalType":"uint256"}],"outputs":[{"name":"","type":"address","internalType":"address"}],"stateMutability":"view"},{"type":"function","name":"proposalSnapshot","inputs":[{"name":"proposalId","type":"uint256","internalType":"uint256"}],"outputs":[{"name":"","type":"uint256","internalType":"uint256"}],"stateMutability":"view"},{"type":"function","name":"proposalThreshold","inputs":[],"outputs":[{"name":"","type":"uint256","internalType":"uint256"}],"stateMutability":"pure"},{"type":"function","name":"proposalVotes","inputs":[{"name":"proposalId","type":"uint256","internalType":"uint256"}],"outputs":[{"name":"againstVotes","type":"uint256","internalType":"uint256"},{"name":"forVotes","type":"uint256","internalType":"uint256"},{"name":"abstainVotes","type":"uint256","internalType":"uint256"}],"stateMutability":"view"},{"type":"function","name":"propose","inputs":[{"name":"targets","type":"address[]","internalType":"address[]"},{"name":"values","type":"uint256[]","internalType":"uint256[]"},{"name":"calldatas","type":"bytes[]","internalType":"bytes[]"},{"name":"description","type":"string","internalType":"string"}],"outputs":[{"name":"","type":"uint256","internalType":"uint256"}],"stateMutability":"nonpayable"},{"type":"function","name":"queue","inputs":[{"name":"targets","type":"address[]","internalType":"address[]"},{"name":"values","type":"uint256[]","internalType":"uint256[]"},{"name":"calldatas","type":"bytes[]","internalType":"bytes[]"},{"name":"descriptionHash","type":"bytes32","internalType":"bytes32"}],"outputs":[{"name":"","type":"uint256","internalType":"uint256"}],"stateMutability":"nonpayable"},{"type":"function","name":"quorum","inputs":[{"name":"timepoint","type":"uint256","internalType":"uint256"}],"outputs":[{"name":"","type":"uint256","internalType":"uint256"}],"stateMutability":"view"},{"type":"function","name":"quorumDenominator","inputs":[],"outputs":[{"name":"","type":"uint256","internalType":"uint256"}],"stateMutability":"view"},{"type":"function","name":"quorumNumerator","inputs":[{"name":"timepoint","type":"uint256","internalType":"uint256"}],"outputs":[{"name":"","type":"uint256","internalType":"uint256"}],"stateMutability":"view"},{"type":"function","name":"quorumNumerator","inputs":[],"outputs":[{"name":"","type":"uint256","internalType":"uint256"}],"stateMutability":"view"},{"type":"function","name":"relay","inputs":[{"name":"target","type":"address","internalType":"address"},{"name":"value","type":"uint256","internalType":"uint256"},{"name":"data","type":"bytes","internalType":"bytes"}],"outputs":[],"stateMutability":"payable"},{"type":"function","name":"state","inputs":[{"name":"proposalId","type":"uint256","internalType":"uint256"}],"outputs":[{"name":"","type":"uint8","internalType":"enum IGovernor.ProposalState"}],"stateMutability":"view"},{"type":"function","name":"supportsInterface","inputs":[{"name":"interfaceId","type":"bytes4","internalType":"bytes4"}],"outputs":[{"name":"","type":"bool","internalType":"bool"}],"stateMutability":"view"},{"type":"function","name":"timelock","inputs":[],"outputs":[{"name":"","type":"address","internalType":"address"}],"stateMutability":"view"},{"type":"function","name":"token","inputs":[],"outputs":[{"name":"","type":"address","internalType":"contract IERC5805"}],"stateMutability":"view"},{"type":"function","name":"updateQuorumNumerator","inputs":[{"name":"newQuorumNumerator","type":"uint256","internalType":"uint256"}],"outputs":[],"stateMutability":"nonpayable"},{"type":"function","name":"updateTimelock","inputs":[{"name":"newTimelock","type":"address","internalType":"contract TimelockController"}],"outputs":[],"stateMutability":"nonpayable"},{"type":"function","name":"version","inputs":[],"outputs":[{"name":"","type":"string","internalType":"string"}],"stateMutability":"view"},{"type":"function","name":"votingDelay","inputs":[],"outputs":[{"name":"","type":"uint256","internalType":"uint256"}],"stateMutability":"pure"},{"type":"function","name":"votingPeriod","inputs":[],"outputs":[{"name":"","type":"uint256","internalType":"uint256"}],"stateMutability":"pure"},{"type":"event","name":"EIP712DomainChanged","inputs":[],"anonymous":false},{"type":"event","name":"ProposalCanceled","inputs":[{"name":"proposalId","type":"uint256","indexed":false,"internalType":"uint256"}],"anonymous":false},{"type":"event","name":"ProposalCreated","inputs":[{"name":"proposalId","type":"uint256","indexed":false,"internalType":"uint256"},{"name":"proposer","type":"address","indexed":false,"internalType":"address"},{"name":"targets","type":"address[]","indexed":false,"internalType":"address[]"},{"name":"values","type":"uint256[]","indexed":false,"internalType":"uint256[]"},{"name":"signatures","type":"string[]","indexed":false,"internalType":"string[]"},{"name":"calldatas","type":"bytes[]","indexed":false,"internalType":"bytes[]"},{"name":"voteStart","type":"uint256","indexed":false,"internalType":"uint256"},{"name":"voteEnd","type":"uint256","indexed":false,"internalType":"uint256"},{"name":"description","type":"string","indexed":false,"internalType":"string"}],"anonymous":false},{"type":"event","name":"ProposalExecuted","inputs":[{"name":"proposalId","type":"uint256","indexed":false,"internalType":"uint256"}],"anonymous":false},{"type":"event","name":"ProposalQueued","inputs":[{"name":"proposalId","type":"uint256","indexed":false,"internalType":"uint256"},{"name":"etaSeconds","type":"uint256","indexed":false,"internalType":"uint256"}],"anonymous":false},{"type":"event","name":"QuorumNumeratorUpdated","inputs":[{"name":"oldQuorumNumerator","type":"uint256","indexed":false,"internalType":"uint256"},{"name":"newQuorumNumerator","type":"uint256","indexed":false,"internalType":"uint256"}],"anonymous":false},{"type":"event","name":"TimelockChange","inputs":[{"name":"oldTimelock","type":"address","indexed":false,"internalType":"address"},{"name":"newTimelock","type":"address","indexed":false,"internalType":"address"}],"anonymous":false},{"type":"event","name":"VoteCast","inputs":[{"name":"voter","type":"address","indexed":true,"internalType":"address"},{"name":"proposalId","type":"uint256","indexed":false,"internalType":"uint256"},{"name":"support","type":"uint8","indexed":false,"internalType":"uint8"},{"name":"weight","type":"uint256","indexed":false,"internalType":"uint256"},{"name":"reason","type":"string","indexed":false,"internalType":"string"}],"anonymous":false},{"type":"event","name":"VoteCastWithParams","inputs":[{"name":"voter","type":"address","indexed":true,"internalType":"address"},{"name":"proposalId","type":"uint256","indexed":false,"internalType":"uint256"},{"name":"support","type":"uint8","indexed":false,"internalType":"uint8"},{"name":"weight","type":"uint256","indexed":false,"internalType":"uint256"},{"name":"reason","type":"string","indexed":false,"internalType":"string"},{"name":"params","type":"bytes","indexed":false,"internalType":"bytes"}],"anonymous":false},{"type":"error","name":"CheckpointUnorderedInsertion","inputs":[]},{"type":"error","name":"FailedCall","inputs":[]},{"type":"error","name":"GovernorAlreadyCastVote","inputs":[{"name":"voter","type":"address","internalType":"address"}]},{"type":"error","name":"GovernorAlreadyQueuedProposal","inputs":[{"name":"proposalId","type":"uint256","internalType":"uint256"}]},{"type":"error","name":"GovernorDisabledDeposit","inputs":[]},{"type":"error","name":"GovernorInsufficientProposerVotes","inputs":[{"name":"proposer","type":"address","internalType":"address"},{"name":"votes","type":"uint256","internalType":"uint256"},{"name":"threshold","type":"uint256","internalType":"uint256"}]},{"type":"error","name":"GovernorInvalidProposalLength","inputs":[{"name":"targets","type":"uint256","internalType":"uint256"},{"name":"calldatas","type":"uint256","internalType":"uint256"},{"name":"values","type":"uint256","internalType":"uint256"}]},{"type":"error","name":"GovernorInvalidQuorumFraction","inputs":[{"name":"quorumNumerator","type":"uint256","internalType":"uint256"},{"name":"quorumDenominator","type":"uint256","internalType":"uint256"}]},{"type":"error","name":"GovernorInvalidSignature","inputs":[{"name":"voter","type":"address","internalType":"address"}]},{"type":"error","name":"GovernorInvalidVoteParams","inputs":[]},{"type":"error","name":"GovernorInvalidVoteType","inputs":[]},{"type":"error","name":"GovernorInvalidVotingPeriod","inputs":[{"name":"votingPeriod","type":"uint256","internalType":"uint256"}]},{"type":"error","name":"GovernorNonexistentProposal","inputs":[{"name":"proposalId","type":"uint256","internalType":"uint256"}]},{"type":"error","name":"GovernorNotQueuedProposal","inputs":[{"name":"proposalId","type":"uint256","internalType":"uint256"}]},{"type":"error","name":"GovernorOnlyExecutor","inputs":[{"name":"account","type":"address","internalType":"address"}]},{"type":"error","name":"GovernorQueueNotImplemented","inputs":[]},{"type":"error","name":"GovernorRestrictedProposer","inputs":[{"name":"proposer","type":"address","internalType":"address"}]},{"type":"error","name":"GovernorUnableToCancel","inputs":[{"name":"proposalId","type":"uint256","internalType":"uint256"},{"name":"account","type":"address","internalType":"address"}]},{"type":"error","name":"GovernorUnexpectedProposalState","inputs":[{"name":"proposalId","type":"uint256","internalType":"uint256"},{"name":"current","type":"uint8","internalType":"enum IGovernor.ProposalState"},{"name":"expectedStates","type":"bytes32","internalType":"bytes32"}]},{"type":"error","name":"InvalidAccountNonce","inputs":[{"name":"account","type":"address","internalType":"address"},{"name":"currentNonce","type":"uint256","internalType":"uint256"}]},{"type":"error","name":"InvalidShortString","inputs":[]},{"type":"error","name":"SafeCastOverflowedUintDowncast","inputs":[{"name":"bits","type":"uint8","internalType":"uint8"},{"name":"value","type":"uint256","internalType":"uint256"}]},{"type":"error","name":"StringTooLong","inputs":[{"name":"str","type":"string","internalType":"string"}]}],"bytecode":{"object":"0x610180604052346100a05761001b610015610102565b9061016e565b60405161375890816109368239608051816132ab015260a05181613362015260c05181613275015260e051816132fa015261010051816133200152610120518161135b015261014051816113870152610160518181816115df015281816119c401528181611aa701528181611c2a01528181611fa7015281816121ec01526126390152f35b5f80fd5b634e487b7160e01b5f52604160045260245ffd5b601f909101601f19168101906001600160401b038211908210176100db57604052565b6100a4565b604051906100ef6040836100b8565b565b6001600160a01b038116036100a057565b61408e9060408238039283825194859261011c82856100b8565b8339810103126100a0576020825192610134846100f1565b015191610140836100f1565b9190565b604051906101536040836100b8565b600c8252565b604051906101686040836100b8565b60018252565b906100ef9161023861017e610144565b602081016b29a1a1afa3b7bb32b93737b960a11b815261019c610159565b906020820190603160f81b82526101b2846104be565b610120526101bf836105ae565b6101405283519020918260e05251902080610100524660a0526040519060208201927f8b73c3c69bb8fe3d512ecc4cf759cc79239f7b179b0ffacaa9a75d522b39400f8452604083015260608201524660808201523060a082015260a0815261022960c0826100b8565b5190206080523060c0526102d9565b6001600160a01b03166101605261024d610411565b6103be565b90600182811c92168015610280575b602083101461026c57565b634e487b7160e01b5f52602260045260245ffd5b91607f1691610261565b601f821161029757505050565b5f5260205f20906020601f840160051c830193106102cf575b601f0160051c01905b8181106102c4575050565b5f81556001016102b9565b90915081906102b0565b80519091906001600160401b0381116100db57610302816102fb600354610252565b600361028a565b602092601f821160011461034257610332929382915f92610337575b50508160011b915f199060031b1c19161790565b600355565b015190505f8061031e565b60035f52601f198216937fc2575a0e9e593c00f959f8c92f12db2869c3395a3b0502d05e2516446f71f85b915f5b8681106103a6575083600195961061038e575b505050811b01600355565b01515f1960f88460031b161c191690555f8080610383565b91926020600181928685015181550194019201610370565b600954604080516001600160a01b03808416825290931660208401819052927f08f74ea46ef7894f65eabfb5e6e695de773a000b47c529ab559178069b2264019190a16001600160a01b03191617600955565b6008548061047157505f5b6001600160d01b031661042d6106a0565b7f0553476bf02ef2726e8ce5ced78d63e26e602e4a2257b1f559418e24b46339979160049161045d908390610801565b5050604080519182526020820192909252a1565b805f198101116104aa5760085f527ff3f7a9fe364faab93b216da50a3214154f22a0a2b415b23a84c8169e8b636ee2015460301c61041c565b634e487b7160e01b5f52601160045260245ffd5b908151602081105f146104d95750906104d690610721565b90565b6001600160401b0381116100db576104fb816104f55f54610252565b5f61028a565b602092601f82116001146105315761052a929382915f926103375750508160011b915f199060031b1c19161790565b5f5560ff90565b5f8052601f198216937f290decd9548b62a8d60345a988386fc84ba6bc95484008f6362f93160ef3e563915f5b868110610596575083600195961061057e575b505050811b015f5560ff90565b01515f1960f88460031b161c191690555f8080610571565b9192602060018192868501518155019401920161055e565b908151602081105f146105c65750906104d690610721565b6001600160401b0381116100db576105ea816105e3600154610252565b600161028a565b602092601f821160011461062157610619929382915f926103375750508160011b915f199060031b1c19161790565b60015560ff90565b60015f52601f198216937fb10e2d527612073b26eecdfd717e6a320cf44b4afac2b0732d9fcbe2b7fa0cf6915f5b8681106106885750836001959610610670575b505050811b0160015560ff90565b01515f1960f88460031b161c191690555f8080610662565b9192602060018192868501518155019401920161064f565b610160516040516324776b7d60e21b815290602090829060049082906001600160a01b03165afa5f91816106de575b506104d657506104d643610906565b9091506020813d602011610719575b816106fa602093836100b8565b810103126100a0575165ffffffffffff811681036100a057905f6106cf565b3d91506106ed565b601f81511161074c57602081519101516020821061073d571790565b5f198260200360031b1b161790565b604460209160405192839163305a27a960e01b83528160048401528051918291826024860152018484015e5f828201840152601f01601f19168101030190fd5b5f198101919082116104aa57565b908154680100000000000000008110156100db57600181018084558110156107ed575f9283526020928390208251929093015160301b65ffffffffffff191665ffffffffffff9290921691909117910155565b634e487b7160e01b5f52603260045260245ffd5b60085491929180156108dd576108196108429161078c565b60085f527ff3f7a9fe364faab93b216da50a3214154f22a0a2b415b23a84c8169e8b636ee30190565b90815461085e6108578265ffffffffffff1690565b9160301c90565b9265ffffffffffff8084169216918083116108ce578692036108985761014092509065ffffffffffff82549181199060301b169116179055565b5050610140906108b76108a96100e0565b65ffffffffffff9092168252565b6001600160d01b03851660208201525b600861079a565b632520601d60e01b5f5260045ffd5b50610901906108ed6108a96100e0565b6001600160d01b03841660208201526108c7565b5f9190565b65ffffffffffff811161091e5765ffffffffffff1690565b6306dfcc6560e41b5f52603060045260245260445ffdfe60806040526004361015610022575b3615610018575f80fd5b61002061225d565b005b5f3560e01c806301ffc9a71461032d57806302a251a314610274578063047e33ce1461030057806306f3f9e61461032857806306fdde031461032357806313c22bb21461028d578063143489d01461031e578063150b7a0214610319578063160cbed7146103145780632656227d1461030f5780632d63f6931461030a5780632fe3e261146103055780633932abb1146103005780633e4f49e6146102fb57806343859632146102f6578063452115d6146102f15780634bf5d7e9146102ec578063544ffc9c146102e757806354fd4d50146102e257806356781388146102dd5780635b8d0e0d146102d85780635f398a14146102d357806360c4247f146102ce5780637b3c71d3146102c95780637d5e81e2146102c45780637ecebe00146102bf57806384b0196e146102ba5780638ff262e3146102b557806391ddadf4146102b057806397c3d334146102ab5780639a802a6d146102a6578063a7713a70146102a1578063a890c9101461029c578063a8f8a66814610279578063a9a9529414610297578063ab58fb8e14610292578063b58131b01461028d578063bc197c8114610288578063c01f9e3714610283578063c28bc2fa1461027e578063c59057e414610279578063c706ccb814610274578063c9d4acbf1461026f578063d33219b41461026a578063dd4e2ba514610265578063deaaa7cc14610260578063eb9019d41461025b578063f23a6e6114610256578063f8ce560a146102515763fc0c546a0361000e57611a92565b611a74565b611a07565b611962565b611928565b6118c9565b6118a1565b611886565b6103c1565b6116e5565b61181b565b6117fd565b611750565b6105d0565b61171d565b611701565b61166d565b611642565b61156d565b611552565b611528565b611413565b611343565b6112d5565b611227565b6111d2565b6111b4565b61113f565b611099565b61102b565b610fd8565b610f97565b610f68565b610df3565b610d9e565b610d6f565b6103dd565b610d04565b610ccf565b610b6f565b610928565b6106e4565b6105ea565b6104f6565b6103f8565b346103b35760203660031901126103b35760043563ffffffff60e01b81168091036103b3576366defe7760e11b81149081156103a2575b8115610391575b8115610380575b506040519015158152602090f35b6301ffc9a760e01b1490505f610372565b630271189760e51b8114915061036b565b6332a2ad4360e11b81149150610364565b5f80fd5b5f9103126103b357565b346103b3575f3660031901126103b357602060405161b2fa8152f35b346103b3575f3660031901126103b357602060405160018152f35b346103b35760203660031901126103b357600435610414612273565b606481116104a7576001600160d01b0361042c6129c6565b1690610436611f92565b916001600160d01b03821161048f577f0553476bf02ef2726e8ce5ced78d63e26e602e4a2257b1f559418e24b46339979261047b906001600160d01b0384169061314e565b5050604080519182526020820192909252a1005b506306dfcc6560e41b5f5260d060045260245260445ffd5b63243e544560e01b5f52600452606460245260445ffd5b805180835260209291819084018484015e5f828201840152601f01601f1916010190565b9060206104f39281815201906104be565b90565b346103b3575f3660031901126103b3576040515f60035461051681611ad6565b80845290600181169081156105ac575060011461054e575b61054a8361053e81850382610641565b604051918291826104e2565b0390f35b60035f9081527fc2575a0e9e593c00f959f8c92f12db2869c3395a3b0502d05e2516446f71f85b939250905b8082106105925750909150810160200161053e61052e565b91926001816020925483858801015201910190929161057a565b60ff191660208086019190915291151560051b8401909101915061053e905061052e565b346103b3575f3660031901126103b35760206040515f8152f35b346103b35760203660031901126103b3576004355f526004602052602060018060a01b0360405f205416604051908152f35b6001600160a01b038116036103b357565b634e487b7160e01b5f52604160045260245ffd5b90601f801991011681019081106001600160401b0382111761066257604052565b61062d565b60405190610676604083610641565b565b6001600160401b03811161066257601f01601f191660200190565b92919261069f82610678565b916106ad6040519384610641565b8294818452818301116103b3578281602093845f960137010152565b9080601f830112156103b3578160206104f393359101610693565b346103b35760803660031901126103b35761070060043561061c565b61070b60243561061c565b6064356001600160401b0381116103b35761072a9036906004016106c9565b50600954306001600160a01b039091160361075157604051630a85bd0160e11b8152602090f35b637485328f60e11b5f5260045ffd5b6001600160401b0381116106625760051b60200190565b9080601f830112156103b357813561078e81610760565b9261079c6040519485610641565b81845260208085019260051b8201019283116103b357602001905b8282106107c45750505090565b6020809183356107d38161061c565b8152019101906107b7565b9080601f830112156103b35781356107f581610760565b926108036040519485610641565b81845260208085019260051b8201019283116103b357602001905b82821061082b5750505090565b813581526020918201910161081e565b9080601f830112156103b357813561085281610760565b926108606040519485610641565b81845260208085019260051b820101918383116103b35760208201905b83821061088c57505050505090565b81356001600160401b0381116103b3576020916108ae878480948801016106c9565b81520191019061087d565b60806003198201126103b3576004356001600160401b0381116103b357816108e391600401610777565b916024356001600160401b0381116103b35782610902916004016107de565b91604435906001600160401b0382116103b3576109219160040161083b565b9060643590565b346103b357610936366108b9565b909261094482858584612159565b9361094e8561231b565b5060095461096c906001600160a01b03165b6001600160a01b031690565b936040519363793d064960e11b8552602085600481895afa948515610b1a575f95610b4e575b503060601b6bffffffffffffffffffffffff191618946020604051809263b1c5f42760e01b825281806109cb8b89898c60048601612b23565b03915afa908115610b1a575f91610b1f575b506109f0875f52600a60205260405f2090565b55600954610a06906001600160a01b0316610960565b90813b156103b3575f8094610a3287604051998a97889687956308f2a0bb60e41b875260048701612b68565b03925af1908115610b1a57610a5692610a5192610b00575b5042612889565b612f5b565b9065ffffffffffff821615610af1577f9a2e42fd6722813d69113e7d0079d3d940171428df7373df9c7f7617cfda2892610ade83610abf61054a956001610aa5875f52600460205260405f2090565b019065ffffffffffff1665ffffffffffff19825416179055565b6040805185815265ffffffffffff909216602083015290918291820190565b0390a16040519081529081906020820190565b634844252360e11b5f5260045ffd5b80610b0e5f610b1493610641565b806103b7565b5f610a4a565b611bbc565b610b41915060203d602011610b47575b610b398183610641565b8101906121c0565b5f6109dd565b503d610b2f565b610b6891955060203d602011610b4757610b398183610641565b935f610992565b610b78366108b9565b91610b8583838387612159565b936020610b9360308761239b565b50610bbc610ba9875f52600460205260405f2090565b805460ff60f01b1916600160f01b179055565b600954306001600160a01b0390911603610c67575b5091849391610be39361054a96612bc5565b6009543090610bfa906001600160a01b0316610960565b141580610c42575b610c39575b6040518181527f712ae1383f79ac853f8d882153778e0260ef8f03b504e2866e0593e04d2b291f908060208101610ade565b5f600555610c07565b50610c62610c5e6005546001600160801b0381169060801c1490565b1590565b610c02565b949091935f5b8351811015610cc15760019030610c97610960610c8a8489611ba3565b516001600160a01b031690565b14610ca3575b01610c6d565b610cbc610cb08288611ba3565b518981519101206123d9565b610c9d565b50909450929061054a610bd1565b346103b35760203660031901126103b3576004355f526004602052602065ffffffffffff60405f205460a01c16604051908152f35b346103b3575f3660031901126103b35760206040517f3e83946653575f9a39005e1545185629e92736b7528ab20ca3816f315424a8118152f35b634e487b7160e01b5f52602160045260245ffd5b60081115610d5c57565b610d3e565b6008811015610d5c57602452565b346103b35760203660031901126103b357610d8b600435612448565b6040516008821015610d5c576020918152f35b346103b35760403660031901126103b357602060ff610de7602435600435610dc58261061c565b5f5260078452600360405f20019060018060a01b03165f5260205260405f2090565b54166040519015158152f35b346103b357610e01366108b9565b91610e0e83838387612159565b93610e1885612448565b6008811015610d5c571580610f4b575b15610f3457610e379450612159565b610e42603b8261239b565b50610e6d610e58825f52600460205260405f2090565b80546001600160f81b0316600160f81b179055565b6040518181527f789cf55be980739dad1d0699b93b58e806b51c9d96619bfa8fe0a28abaa7b30c90602090a1610eab815f52600a60205260405f2090565b549081610ebe575b604051908152602090f35b600954610ed3906001600160a01b0316610960565b803b156103b35760405163c4d252f560e01b815260048101939093525f908390602490829084905af1918215610b1a5761054a92610f20575b505f818152600a6020526040812055610eb3565b80610b0e5f610f2e93610641565b5f610f0c565b84638fe5d8a960e01b5f526004523360245260445ffd5b50845f52600460205260018060a01b0360405f2054163314610e28565b346103b3575f3660031901126103b35761054a610f83611c16565b6040519182916020835260208301906104be565b346103b35760203660031901126103b3576004355f526007602052606060405f20805490600260018201549101549060405192835260208301526040820152f35b346103b3575f3660031901126103b35761054a604051610ff9604082610641565b60018152603160f81b60208201526040519182916020835260208301906104be565b6024359060ff821682036103b357565b346103b35760403660031901126103b357602061106460043561104c61101b565b6040519161105a8584610641565b5f83523390612555565b604051908152f35b9181601f840112156103b3578235916001600160401b0383116103b357602083818601950101116103b357565b346103b35760c03660031901126103b3576004356110b561101b565b90604435906110c38261061c565b6064356001600160401b0381116103b3576110e290369060040161106c565b6084356001600160401b0381116103b3576111019036906004016106c9565b9160a435946001600160401b0386116103b35761054a9661112961112f9736906004016106c9565b95611ce5565b6040519081529081906020820190565b346103b35760803660031901126103b35760043561115b61101b565b906044356001600160401b0381116103b35761117b90369060040161106c565b9190926064356001600160401b0381116103b357610eb3946111a46111ac9236906004016106c9565b943691610693565b9133906125d2565b346103b35760203660031901126103b357602061106460043561270d565b346103b35760603660031901126103b3576004356111ee61101b565b90604435906001600160401b0382116103b35760209261121f61121861106494369060040161106c565b3691610693565b913390612555565b346103b35760803660031901126103b3576004356001600160401b0381116103b357611257903690600401610777565b6024356001600160401b0381116103b3576112769036906004016107de565b906044356001600160401b0381116103b35761129690369060040161083b565b90606435916001600160401b0383116103b357366023840112156103b35761054a936112cf61112f943690602481600401359101610693565b92611de9565b346103b35760203660031901126103b3576004356112f28161061c565b60018060a01b03165f526002602052602060405f2054604051908152f35b90602080835192838152019201905f5b81811061132d5750505090565b8251845260209384019390920191600101611320565b346103b3575f3660031901126103b3576113e561137f7f0000000000000000000000000000000000000000000000000000000000000000613046565b61054a6113ab7f00000000000000000000000000000000000000000000000000000000000000006130a5565b6113f3604051916113bd602084610641565b5f808452366020850137604051958695600f60f81b875260e0602088015260e08701906104be565b9085820360408701526104be565b904660608501523060808501525f60a085015283820360c0850152611310565b346103b35760803660031901126103b35760043561142f61101b565b906044359161143d8361061c565b6064356001600160401b0381116103b357610c5e6114626114f09236906004016106c9565b6001600160a01b0386165f9081526002602052604090208054600181019091556114ea9060405160208101917ff2aad550cf55f045cb27e9c559f9889fdfb6e6cdaa032301d6ea397784ae51d7835288604083015260ff8816606083015260018060a01b038a16608083015260a082015260a081526114e260c082610641565b519020612d5d565b86612d8d565b61150b579061112f9161054a93611505611bc7565b92612555565b6394ab6c0760e01b5f526001600160a01b03831660045260245b5ffd5b346103b3575f3660031901126103b3576020611542611f92565b65ffffffffffff60405191168152f35b346103b3575f3660031901126103b357602060405160648152f35b346103b35760603660031901126103b35760043561158a8161061c565b6024356044356001600160401b0381116103b3576115ac9036906004016106c9565b50604051630748d63560e31b81526001600160a01b039283166004820152602481019190915290602090829060449082907f0000000000000000000000000000000000000000000000000000000000000000165afa8015610b1a5761054a915f91611623575b506040519081529081906020820190565b61163c915060203d602011610b4757610b398183610641565b5f611612565b346103b3575f3660031901126103b35760206001600160d01b036116646129c6565b16604051908152f35b346103b35760203660031901126103b35760043561168a8161061c565b611692612273565b600954604080516001600160a01b03808416825290931660208401819052927f08f74ea46ef7894f65eabfb5e6e695de773a000b47c529ab559178069b2264019190a16001600160a01b03191617600955005b346103b35760206110646116f8366108b9565b92919091612159565b346103b35760203660031901126103b357602060405160018152f35b346103b35760203660031901126103b35760206110646004355f52600460205265ffffffffffff600160405f2001541690565b346103b35760a03660031901126103b35761176c60043561061c565b61177760243561061c565b6044356001600160401b0381116103b3576117969036906004016107de565b506064356001600160401b0381116103b3576117b69036906004016107de565b506084356001600160401b0381116103b3576117d69036906004016106c9565b5061054a6117e261202b565b6040516001600160e01b031990911681529081906020820190565b346103b35760203660031901126103b357602061106460043561204a565b60603660031901126103b3576004356118338161061c565b6024356044356001600160401b0381116103b357610020925f9261185c8493369060040161106c565b9190611866612273565b826040519384928337810185815203925af1611880612096565b90612a0a565b346103b3575f3660031901126103b357602060405160048152f35b346103b3575f3660031901126103b3576009546040516001600160a01b039091168152602090f35b346103b3575f3660031901126103b35761054a6040516118ea604082610641565b602081527f737570706f72743d627261766f2671756f72756d3d666f722c6162737461696e60208201526040519182916020835260208301906104be565b346103b3575f3660031901126103b35760206040517ff2aad550cf55f045cb27e9c559f9889fdfb6e6cdaa032301d6ea397784ae51d78152f35b346103b35760403660031901126103b35760043561197f8161061c565b6024355f604051611991602082610641565b52604051630748d63560e31b81526001600160a01b039283166004820152602481019190915290602090829060449082907f0000000000000000000000000000000000000000000000000000000000000000165afa8015610b1a5761054a915f9161162357506040519081529081906020820190565b346103b35760a03660031901126103b357611a2360043561061c565b611a2e60243561061c565b6084356001600160401b0381116103b357611a4d9036906004016106c9565b50600954306001600160a01b03909116036107515760405163f23a6e6160e01b8152602090f35b346103b35760203660031901126103b35760206110646004356121cf565b346103b3575f3660031901126103b3576040517f00000000000000000000000000000000000000000000000000000000000000006001600160a01b03168152602090f35b90600182811c92168015611b04575b6020831014611af057565b634e487b7160e01b5f52602260045260245ffd5b91607f1691611ae5565b5f9291815491611b1d83611ad6565b8083529260018116908115611b725750600114611b3957505050565b5f9081526020812093945091925b838310611b58575060209250010190565b600181602092949394548385870101520191019190611b47565b915050602093945060ff929192191683830152151560051b010190565b634e487b7160e01b5f52603260045260245ffd5b8051821015611bb75760209160051b010190565b611b8f565b6040513d5f823e3d90fd5b60405190611bd6602083610641565b5f8252565b60405190611bea604083610641565b601d82527f6d6f64653d626c6f636b6e756d6265722666726f6d3d64656661756c740000006020830152565b604051634bf5d7e960e01b81525f816004817f00000000000000000000000000000000000000000000000000000000000000006001600160a01b03165afa5f9181611c6a575b506104f357506104f3611bdb565b9091503d805f833e611c7c8183610641565b8101906020818303126103b3578051906001600160401b0382116103b3570181601f820112156103b357805190611cb282610678565b92611cc06040519485610641565b828452602083830101116103b357815f9260208093018386015e83010152905f611c5c565b939092919695610c5e611d9e91611d988a611d01368789610693565b6001600160a01b0382165f90815260026020526040902080546001810190915590602081519101208b5160208d0120906040519260208401947f3e83946653575f9a39005e1545185629e92736b7528ab20ca3816f315424a81186528d604086015260ff8d16606086015260018060a01b0316608085015260a084015260c083015260e082015260e081526114e261010082610641565b8a612d8d565b611db9576104f3959691611db3913691610693565b926125d2565b6394ab6c0760e01b5f526001600160a01b03871660045260245ffd5b634e487b7160e01b5f52601160045260245ffd5b909192611df68133612804565b15611f7f57611e0d81516020830120858585612159565b938251845190818114801590611f74575b8015611f6c575b611f4d57505065ffffffffffff611e56611e47875f52600460205260405f2090565b5460a01c65ffffffffffff1690565b16611f30577f7d84a6263ae0d98d3329bd7b46bb4e8d6f98cd35a7adb45c274c8b7fd5ebd5e0939291611f2a91611e9b65ffffffffffff611e95611f92565b1661286c565b611f07611eb0895f52600460205260405f2090565b80546001600160a01b03191633178155611ef0611ecc84612f5b565b825465ffffffffffff60a01b191660a09190911b65ffffffffffff60a01b16178255565b805463ffffffff60d01b191661597d60d11b179055565b611f118551612896565b91611f1b8261287a565b92604051978897338c8a6128df565b0390a190565b61152585611f3d81612448565b6331b75e4d60e01b5f5290612302565b9151630447b05d60e41b5f908152600493909352602452604452606490fd5b508015611e25565b508251811415611e1e565b63d9b3955760e01b5f523360045260245ffd5b6040516324776b7d60e21b81526020816004817f00000000000000000000000000000000000000000000000000000000000000006001600160a01b03165afa5f9181611fe8575b506104f357506104f343612f5b565b9091506020813d602011612023575b8161200460209383610641565b810103126103b3575165ffffffffffff811681036103b357905f611fd9565b3d9150611ff7565b600954306001600160a01b03909116036107515763bc197c8160e01b90565b805f52600460205265ffffffffffff60405f205460a01c16905f52600460205263ffffffff60405f205460d01c160165ffffffffffff81116120915765ffffffffffff1690565b611dd5565b3d156120c0573d906120a782610678565b916120b56040519384610641565b82523d5f602084013e565b606090565b90602080835192838152019201905f5b8181106120e25750505090565b82516001600160a01b03168452602093840193909201916001016120d5565b9080602083519182815201916020808360051b8301019401925f915b83831061212c57505050505090565b909192939460208061214a600193601f1986820301875289516104be565b9701930193019193929061211d565b92906121ba916121a661219494604051958694612182602087019960808b5260a08801906120c5565b868103601f1901604088015290611310565b848103601f1901606086015290612101565b90608083015203601f198101835282610641565b51902090565b908160209103126103b3575190565b604051632394e7a360e21b815260048101829052906020826024817f00000000000000000000000000000000000000000000000000000000000000006001600160a01b03165afa908115610b1a576104f3925f92612238575b506122329061270d565b90612a4e565b6122329192506122569060203d602011610b4757610b398183610641565b9190612228565b600954306001600160a01b039091160361075157565b600954336001600160a01b03909116036122dc57600954306001600160a01b039091160361229d57565b6122a636610678565b6122b36040519182610641565b3681526020810190365f83375f602036830101525190205b806122d4612aba565b036122cb5750565b6347096e4760e01b5f523360045260245ffd5b6008811015610d5c5760ff600191161b90565b600452606491906008811015610d5c576024525f604452565b61232481612448565b906010612330836122ef565b161561233a575090565b6331b75e4d60e01b5f526004526123519150610d61565b601060445260645ffd5b61236481612448565b906002612370836122ef565b161561237a575090565b6331b75e4d60e01b5f526004526123919150610d61565b600260445260645ffd5b906123a582612448565b91816123b0846122ef565b16156123bb57505090565b6331b75e4d60e01b5f526004526123d182610d61565b60445260645ffd5b600554908160801c6001600160801b038060018301169316831461241e575f52600660205260405f20556001600160801b036005549181199060801b16911617600555565b634e487b715f5260416020526024601cfd5b908160209103126103b3575180151581036103b35790565b61245181612c52565b9061245b82610d52565b600582036125515761247691505f52600a60205260405f2090565b5460095461248c906001600160a01b0316610960565b604051632c258a9f60e11b815260048101839052602081602481855afa908115610b1a575f91612532575b50156124c4575050600590565b604051632ab0f52960e01b81526004810192909252602090829060249082905afa908115610b1a575f91612503575b50156124fe57600790565b600290565b612525915060203d60201161252b575b61251d8183610641565b810190612430565b5f6124f3565b503d612513565b61254b915060203d60201161252b5761251d8183610641565b5f6124b7565b5090565b916104f393916040519361256a602086610641565b5f85526125d2565b93909260ff61259e936104f397958752166020860152604085015260a0606085015260a08401906104be565b9160808184039101526104be565b909260ff6080936104f396958452166020830152604082015281606082015201906104be565b929190926125df8161235b565b50805f52600460205265ffffffffffff61260660405f2065ffffffffffff905460a01c1690565b1693604051630748d63560e31b815260018060a01b03821695866004830152602482015260208160448160018060a01b037f0000000000000000000000000000000000000000000000000000000000000000165afa908115610b1a576126769285915f936126ec575b5084612e43565b948051155f146126b957506126b37fb8e138887d0aa13bab447e82de9d5c1777041ecd21ca36ba824ff1e6c07ddda49386604051948594856125ac565b0390a290565b6126b3907fe2babfbac5889a709b63bb7f598b324e08bc5a4fb9ec647fb3cbc9ec07eb8712948760405195869586612572565b61270691935060203d602011610b4757610b398183610641565b915f61266f565b65ffffffffffff90806127206008612f20565b9491501611155f1461273a57505b6001600160d01b031690565b6127449150612f5b565b600854905f8291600584116127b0575b61276093506008613520565b8061276c57505f61272e565b6127a461277b6127ab926129ab565b60085f527ff3f7a9fe364faab93b216da50a3214154f22a0a2b415b23a84c8169e8b636ee30190565b5460301c90565b61272e565b91926127bb816133c2565b8103908111612091576127609360085f5265ffffffffffff8260205f2001541665ffffffffffff8516105f146127f2575091612754565b9291506127fe9061286c565b90612754565b908051603481106128645760131981830101516001600160b01b03191669dc8f8d908f908c9a8dc360b01b016128645761284391602919820190612fb6565b901591821561285157505090565b6001600160a01b03918216911614919050565b505050600190565b906001820180921161209157565b9061b2fa820180921161209157565b9190820180921161209157565b906128a082610760565b6128ad6040519182610641565b82815280926128be601f1991610760565b01905f5b8281106128ce57505050565b8060606020809385010152016128c2565b9599989697949391926129209361291292885260018060a01b0316602088015261012060408801526101208701906120c5565b908582036060870152611310565b968388036080850152815180895260208901906020808260051b8c01019401915f905b82821061297f57505050506104f3969750906129669184820360a0860152612101565b9360c083015260e08201526101008184039101526104be565b9091929460208061299d6001938f601f1990820301865289516104be565b970192019201909291612943565b5f1981019190821161209157565b9190820391821161209157565b600854806129d357505f90565b805f198101116120915760085f527ff3f7a9fe364faab93b216da50a3214154f22a0a2b415b23a84c8169e8b636ee2015460301c90565b9091906106765750805115612a2157602081519101fd5b63d6bda27560e01b5f5260045ffd5b8115612a3a570490565b634e487b7160e01b5f52601260045260245ffd5b5f19828209908281029182808210910303908115612aaf578160641115612aa8577f5c28f5c28f5c28f5c28f5c28f5c28f5c28f5c28f5c28f5c28f5c28f5c28f5c29936064910990828211900360fe1b910360021c170290565b6011612bb5565b505060649004919050565b600554906001600160801b0382169160801c8214612b1157815f5260066020526001600160801b0380600160405f2054948281165f5260066020525f60408120550116166001600160801b03196005541617600555565b634e487b715f5260316020526024601cfd5b949392612b4f608093612b41612b5d9460a08a5260a08a01906120c5565b9088820360208a0152611310565b908682036040880152612101565b935f60608201520152565b9192612b9760a094612b89612ba5949998979960c0875260c08701906120c5565b908582036020870152611310565b908382036040850152612101565b945f606083015260808201520152565b634e487b715f526020526024601cfd5b60095490949192916001600160a01b03909116906bffffffffffffffffffffffff193060601b16823b156103b357612c175f956040519788968795869563e38335e560e01b8752189260048601612b23565b039134905af18015610b1a57612c39575b505f908152600a6020526040812055565b80612c455f8093610641565b8003126103b3575f612c28565b612c64815f52600460205260405f2090565b5460f881901c9060f01c60ff16612d5657612d5057612c9c612c91611e47835f52600460205260405f2090565b65ffffffffffff1690565b8015612d3c57612cad612c91611f92565b80911015612d3657612cbe8261204a565b10612cc95750600190565b612cd5610c5e8261322e565b8015612d13575b15612ce75750600390565b612d05905f52600460205265ffffffffffff600160405f2001541690565b612d0e57600490565b600590565b50612d31610c5e825f52600760205260405f20600181015490541090565b612cdc565b50505f90565b636ad0607560e01b5f52600482905260245ffd5b50600290565b5050600790565b604290612d68613272565b906040519161190160f01b8352600283015260228201522090565b60041115610d5c57565b9190823b612db55790612d9f91613388565b50612da981612d83565b15918261285157505090565b915f92612deb612df985946040519283916020830195630b135d3f60e11b875260248401526040604484015260648301906104be565b03601f198101835282610641565b51915afa612e05612096565b81612e35575b81612e14575090565b9050612e31630b135d3f60e11b91602080825183010191016121c0565b1490565b905060208151101590612e0b565b612e58909291925f52600760205260405f2090565b9160038301612e81612e7a83839060018060a01b03165f5260205260405f2090565b5460ff1690565b612f0457612ea560ff9392612eb2929060018060a01b03165f5260205260405f2090565b805460ff19166001179055565b1680612ec95750612ec4828254612889565b905590565b60018103612ee05750600101612ec4828254612889565b600203612ef557600201612ec4828254612889565b6303599be160e11b5f5260045ffd5b6371c6af4960e01b5f526001600160a01b03821660045260245ffd5b80549081612f325750505f905f905f90565b815f19810111612091575f525f199060205f2001015460019165ffffffffffff82169160301c90565b65ffffffffffff8111612f735765ffffffffffff1690565b6306dfcc6560e41b5f52603060045260245260445ffd5b908160011b918083046002149015171561209157565b908160041b918083046010149015171561209157565b919082518211801561303d575b61301657612fd08161286c565b82118061301f575b612fe3901515612f8a565b6028018060281161209157612ff882846129b9565b036130165761300692613584565b90916001600160a01b0390911690565b5050505f905f90565b50602081840101516001600160f01b03191661060f60f31b14612fd8565b50818111612fc3565b60ff811461308c5760ff811690601f821161307d576040519161306a604084610641565b6020808452838101919036833783525290565b632cd44ac360e21b5f5260045ffd5b506040516104f38161309e815f611b0e565b0382610641565b60ff81146130c95760ff811690601f821161307d576040519161306a604084610641565b506040516104f38161309e816001611b0e565b908154600160401b8110156106625760018101808455811015611bb757610676925f5260205f20019061312c65ffffffffffff825116839065ffffffffffff1665ffffffffffff19825416179055565b60200151815465ffffffffffff1660309190911b65ffffffffffff1916179055565b60085491929180156132055761277b613166916129ab565b90815461318261317b8265ffffffffffff1690565b9160301c90565b9265ffffffffffff8084169216918083116131f6578692036131c0576131bc92509065ffffffffffff82549181199060301b169116179055565b9190565b50506131bc906131df6131d1610667565b65ffffffffffff9092168252565b6001600160d01b03851660208201525b60086130dc565b632520601d60e01b5f5260045ffd5b50613229906132156131d1610667565b6001600160d01b03841660208201526131ef565b5f9190565b805f52600760205260405f20905f52600460205261325a65ffffffffffff60405f205460a01c166121cf565b60026001830154920154820180921161209157111590565b307f00000000000000000000000000000000000000000000000000000000000000006001600160a01b0316148061335f575b156132cd577f000000000000000000000000000000000000000000000000000000000000000090565b60405160208101907f8b73c3c69bb8fe3d512ecc4cf759cc79239f7b179b0ffacaa9a75d522b39400f82527f000000000000000000000000000000000000000000000000000000000000000060408201527f000000000000000000000000000000000000000000000000000000000000000060608201524660808201523060a082015260a081526121ba60c082610641565b507f000000000000000000000000000000000000000000000000000000000000000046146132a4565b81519190604183036133b8576133b19250602082015190606060408401519301515f1a9061362e565b9192909190565b50505f9160029190565b60018111156104f357806001600160801b8210156134e3575b61348961347f61347561346b6134616134576134466134909760048a600160401b6134959c10156134d6575b6401000000008110156134c9575b620100008110156134bc575b6101008110156134af575b60108110156134a2575b101561349a575b60030260011c90565b613450818b612a30565b0160011c90565b613450818a612a30565b6134508189612a30565b6134508188612a30565b6134508187612a30565b6134508186612a30565b8093612a30565b821190565b900390565b60011b61343d565b60041c9160021b91613436565b60081c9160041b9161342c565b60101c9160081b91613421565b60201c9160101b91613415565b60401c9160201b91613407565b505061349561349061348961347f61347561346b61346161345761344661350a8a60801c90565b9850600160401b97506133db9650505050505050565b91905b8382106135305750505090565b9091928083169080841860011c820180921161209157845f5265ffffffffffff8260205f2001541665ffffffffffff8416105f146135725750925b9190613523565b93925061357e9061286c565b9161356b565b9290926135908461286c565b831180613610575b6135aa6135b191949293941515612f8a565b5f95612889565b915b8183106135c35750505060019190565b9092919360ff6135e46135df6020888601015160ff60f81b1690565b6136b0565b1690600f821161360557906135fa600192612fa0565b0194019192906135b3565b505f94508493505050565b50602084820101516001600160f01b03191661060f60f31b14613598565b91907f7fffffffffffffffffffffffffffffff5d576e7357a4501ddfe92f46681b20a084116136a5579160209360809260ff5f9560405194855216868401526040830152606082015282805260015afa15610b1a575f516001600160a01b0381161561369b57905f905f90565b505f906001905f90565b5050505f9160039190565b60f81c602f811180613718575b156136cc57602f190160ff1690565b606081118061370e575b156136e5576056190160ff1690565b6040811180613704575b156136fe576036190160ff1690565b5060ff90565b50604781106136ef565b50606781106136d6565b50603a81106136bd56fea2646970667358221220b07b07bc02a8d615371e6164af7ffd07e25d7f44954cabd1d8d695339a95e18e64736f6c634300081e0033","linkReferences":{}},"methodIdentifiers":{"BALLOT_TYPEHASH()":"deaaa7cc","CLOCK_MODE()":"4bf5d7e9","COUNTING_MODE()":"dd4e2ba5","EXTENDED_BALLOT_TYPEHASH()":"2fe3e261","INITIAL_PROPOSAL_THRESHOLD()":"13c22bb2","INITIAL_QUORUM_PERCENT()":"c9d4acbf","INITIAL_VOTING_DELAY()":"047e33ce","INITIAL_VOTING_PERIOD()":"c706ccb8","cancel(address[],uint256[],bytes[],bytes32)":"452115d6","castVote(uint256,uint8)":"56781388","castVoteBySig(uint256,uint8,address,bytes)":"8ff262e3","castVoteWithReason(uint256,uint8,string)":"7b3c71d3","castVoteWithReasonAndParams(uint256,uint8,string,bytes)":"5f398a14","castVoteWithReasonAndParamsBySig(uint256,uint8,address,string,bytes,bytes)":"5b8d0e0d","clock()":"91ddadf4","eip712Domain()":"84b0196e","execute(address[],uint256[],bytes[],bytes32)":"2656227d","getProposalId(address[],uint256[],bytes[],bytes32)":"a8f8a668","getVotes(address,uint256)":"eb9019d4","getVotesWithParams(address,uint256,bytes)":"9a802a6d","hasVoted(uint256,address)":"43859632","hashProposal(address[],uint256[],bytes[],bytes32)":"c59057e4","name()":"06fdde03","nonces(address)":"7ecebe00","onERC1155BatchReceived(address,address,uint256[],uint256[],bytes)":"bc197c81","onERC1155Received(address,address,uint256,uint256,bytes)":"f23a6e61","onERC721Received(address,address,uint256,bytes)":"150b7a02","proposalDeadline(uint256)":"c01f9e37","proposalEta(uint256)":"ab58fb8e","proposalNeedsQueuing(uint256)":"a9a95294","proposalProposer(uint256)":"143489d0","proposalSnapshot(uint256)":"2d63f693","proposalThreshold()":"b58131b0","proposalVotes(uint256)":"544ffc9c","propose(address[],uint256[],bytes[],string)":"7d5e81e2","queue(address[],uint256[],bytes[],bytes32)":"160cbed7","quorum(uint256)":"f8ce560a","quorumDenominator()":"97c3d334","quorumNumerator()":"a7713a70","quorumNumerator(uint256)":"60c4247f","relay(address,uint256,bytes)":"c28bc2fa","state(uint256)":"3e4f49e6","supportsInterface(bytes4)":"01ffc9a7","timelock()":"d33219b4","token()":"fc0c546a","updateQuorumNumerator(uint256)":"06f3f9e6","updateTimelock(address)":"a890c910","version()":"54fd4d50","votingDelay()":"3932abb1","votingPeriod()":"02a251a3"},"id":80}