{"abi":[{"type":"constructor","inputs":[{"name":"_initialOwner","type":"address","internalType":"address"},{"name":"_minCollateralizationRatio","type":"uint256","internalType":"uint256"},{"name":"_priceDecayHalfLife","type":"uint256","internalType":"uint256"},{"name":"_startPriceMultiplier","type":"uint256","internalType":"uint256"}],"stateMutability":"nonpayable"},{"type":"function","name":"minCollateralizationRatio","inputs":[],"outputs":[{"name":"","type":"uint256","internalType":"uint256"}],"stateMutability":"view"},{"type":"function","name":"owner","inputs":[],"outputs":[{"name":"","type":"address","internalType":"address"}],"stateMutability":"view"},{"type":"function","name":"priceDecayHalfLife","inputs":[],"outputs":[{"name":"","type":"uint256","internalType":"uint256"}],"stateMutability":"view"},{"type":"function","name":"renounceOwnership","inputs":[],"outputs":[],"stateMutability":"nonpayable"},{"type":"function","name":"setMinCollateralizationRatio","inputs":[{"name":"_newRatio","type":"uint256","internalType":"uint256"}],"outputs":[],"stateMutability":"nonpayable"},{"type":"function","name":"setPriceDecayHalfLife","inputs":[{"name":"_newHalfLife","type":"uint256","internalType":"uint256"}],"outputs":[],"stateMutability":"nonpayable"},{"type":"function","name":"setStartPriceMultiplier","inputs":[{"name":"_newMultiplier","type":"uint256","internalType":"uint256"}],"outputs":[],"stateMutability":"nonpayable"},{"type":"function","name":"startPriceMultiplier","inputs":[],"outputs":[{"name":"","type":"uint256","internalType":"uint256"}],"stateMutability":"view"},{"type":"function","name":"transferOwnership","inputs":[{"name":"newOwner","type":"address","internalType":"address"}],"outputs":[],"stateMutability":"nonpayable"},{"type":"event","name":"MinCollateralizationRatioUpdated","inputs":[{"name":"newRatio","type":"uint256","indexed":false,"internalType":"uint256"}],"anonymous":false},{"type":"event","name":"OwnershipTransferred","inputs":[{"name":"previousOwner","type":"address","indexed":true,"internalType":"address"},{"name":"newOwner","type":"address","indexed":true,"internalType":"address"}],"anonymous":false},{"type":"event","name":"PriceDecayHalfLifeUpdated","inputs":[{"name":"newHalfLife","type":"uint256","indexed":false,"internalType":"uint256"}],"anonymous":false},{"type":"event","name":"StartPriceMultiplierUpdated","inputs":[{"name":"newMultiplier","type":"uint256","indexed":false,"internalType":"uint256"}],"anonymous":false},{"type":"error","name":"OwnableInvalidOwner","inputs":[{"name":"owner","type":"address","internalType":"address"}]},{"type":"error","name":"OwnableUnauthorizedAccount","inputs":[{"name":"account","type":"address","internalType":"address"}]}],"bytecode":{"object":"0x60803460d457601f61040b38819003918201601f19168301916001600160401b0383118484101760d85780849260809460405283398101031260d45780516001600160a01b038116919082900360d4576020810151906060604082015191015191831560c1575f80546001600160a01b031981168617825560405195916001600160a01b03909116907f8be0079c531659141344cd1fd0a4f28419497f9722a3daafe3b4186f6b6457e09080a360015560025560035561031e90816100ed8239f35b631e4fbdf760e01b5f525f60045260245ffd5b5f80fd5b634e487b7160e01b5f52604160045260245ffdfe60806040526004361015610011575f80fd5b5f3560e01c806310a4d6cc1461027657806363ee9e4e14610259578063715018a6146102025780637b44646a146101b65780638da5cb5b1461018f578063ba1be55414610172578063de0de79314610126578063e155acf6146101095763f2fde38b1461007c575f80fd5b34610105576020366003190112610105576004356001600160a01b03811690819003610105576100aa6102c2565b80156100f2575f80546001600160a01b03198116831782556001600160a01b0316907f8be0079c531659141344cd1fd0a4f28419497f9722a3daafe3b4186f6b6457e09080a3005b631e4fbdf760e01b5f525f60045260245ffd5b5f80fd5b34610105575f366003190112610105576020600354604051908152f35b34610105576020366003190112610105577fcc483ce001980771f0982d1b7c4fa749ca3e6f75382a5675802acd31199af20660206004356101656102c2565b80600355604051908152a1005b34610105575f366003190112610105576020600154604051908152f35b34610105575f366003190112610105575f546040516001600160a01b039091168152602090f35b34610105576020366003190112610105577f67e709a1fecafa50c250d3f4d171c614c52e36d42442aa4ef111f04a0b49598d60206004356101f56102c2565b80600155604051908152a1005b34610105575f3660031901126101055761021a6102c2565b5f80546001600160a01b0319811682556001600160a01b03167f8be0079c531659141344cd1fd0a4f28419497f9722a3daafe3b4186f6b6457e08280a3005b34610105575f366003190112610105576020600254604051908152f35b34610105576020366003190112610105577f73c80df36898d76c675b714fdbd4f62e96daafede0de6af5e31e7792eaf3c72160206004356102b56102c2565b80600255604051908152a1005b5f546001600160a01b031633036102d557565b63118cdaa760e01b5f523360045260245ffdfea26469706673582212203c98394e7c52e139b873d11263a36f9de60808c32eb741b32228793cc65500de64736f6c634300081e0033","linkReferences":{}},"methodIdentifiers":{"minCollateralizationRatio()":"ba1be554","owner()":"8da5cb5b","priceDecayHalfLife()":"63ee9e4e","renounceOwnership()":"715018a6","setMinCollateralizationRatio(uint256)":"7b44646a","setPriceDecayHalfLife(uint256)":"10a4d6cc","setStartPriceMultiplier(uint256)":"de0de793","startPriceMultiplier()":"e155acf6","transferOwnership(address)":"f2fde38b"},"id":82}