{"abi":[{"type":"constructor","inputs":[{"name":"initialOwner","type":"address","internalType":"address"},{"name":"initialSupply","type":"uint256","internalType":"uint256"}],"stateMutability":"nonpayable"},{"type":"function","name":"CLOCK_MODE","inputs":[],"outputs":[{"name":"","type":"string","internalType":"string"}],"stateMutability":"view"},{"type":"function","name":"DOMAIN_SEPARATOR","inputs":[],"outputs":[{"name":"","type":"bytes32","internalType":"bytes32"}],"stateMutability":"view"},{"type":"function","name":"allowance","inputs":[{"name":"owner","type":"address","internalType":"address"},{"name":"spender","type":"address","internalType":"address"}],"outputs":[{"name":"","type":"uint256","internalType":"uint256"}],"stateMutability":"view"},{"type":"function","name":"approve","inputs":[{"name":"spender","type":"address","internalType":"address"},{"name":"value","type":"uint256","internalType":"uint256"}],"outputs":[{"name":"","type":"bool","internalType":"bool"}],"stateMutability":"nonpayable"},{"type":"function","name":"balanceOf","inputs":[{"name":"account","type":"address","internalType":"address"}],"outputs":[{"name":"","type":"uint256","internalType":"uint256"}],"stateMutability":"view"},{"type":"function","name":"checkpoints","inputs":[{"name":"account","type":"address","internalType":"address"},{"name":"pos","type":"uint32","internalType":"uint32"}],"outputs":[{"name":"","type":"tuple","internalType":"struct Checkpoints.Checkpoint208","components":[{"name":"_key","type":"uint48","internalType":"uint48"},{"name":"_value","type":"uint208","internalType":"uint208"}]}],"stateMutability":"view"},{"type":"function","name":"clock","inputs":[],"outputs":[{"name":"","type":"uint48","internalType":"uint48"}],"stateMutability":"view"},{"type":"function","name":"decimals","inputs":[],"outputs":[{"name":"","type":"uint8","internalType":"uint8"}],"stateMutability":"view"},{"type":"function","name":"delegate","inputs":[{"name":"delegatee","type":"address","internalType":"address"}],"outputs":[],"stateMutability":"nonpayable"},{"type":"function","name":"delegateBySig","inputs":[{"name":"delegatee","type":"address","internalType":"address"},{"name":"nonce","type":"uint256","internalType":"uint256"},{"name":"expiry","type":"uint256","internalType":"uint256"},{"name":"v","type":"uint8","internalType":"uint8"},{"name":"r","type":"bytes32","internalType":"bytes32"},{"name":"s","type":"bytes32","internalType":"bytes32"}],"outputs":[],"stateMutability":"nonpayable"},{"type":"function","name":"delegates","inputs":[{"name":"account","type":"address","internalType":"address"}],"outputs":[{"name":"","type":"address","internalType":"address"}],"stateMutability":"view"},{"type":"function","name":"eip712Domain","inputs":[],"outputs":[{"name":"fields","type":"bytes1","internalType":"bytes1"},{"name":"name","type":"string","internalType":"string"},{"name":"version","type":"string","internalType":"string"},{"name":"chainId","type":"uint256","internalType":"uint256"},{"name":"verifyingContract","type":"address","internalType":"address"},{"name":"salt","type":"bytes32","internalType":"bytes32"},{"name":"extensions","type":"uint256[]","internalType":"uint256[]"}],"stateMutability":"view"},{"type":"function","name":"getPastTotalSupply","inputs":[{"name":"timepoint","type":"uint256","internalType":"uint256"}],"outputs":[{"name":"","type":"uint256","internalType":"uint256"}],"stateMutability":"view"},{"type":"function","name":"getPastVotes","inputs":[{"name":"account","type":"address","internalType":"address"},{"name":"timepoint","type":"uint256","internalType":"uint256"}],"outputs":[{"name":"","type":"uint256","internalType":"uint256"}],"stateMutability":"view"},{"type":"function","name":"getVotes","inputs":[{"name":"account","type":"address","internalType":"address"}],"outputs":[{"name":"","type":"uint256","internalType":"uint256"}],"stateMutability":"view"},{"type":"function","name":"name","inputs":[],"outputs":[{"name":"","type":"string","internalType":"string"}],"stateMutability":"view"},{"type":"function","name":"nonces","inputs":[{"name":"owner","type":"address","internalType":"address"}],"outputs":[{"name":"","type":"uint256","internalType":"uint256"}],"stateMutability":"view"},{"type":"function","name":"numCheckpoints","inputs":[{"name":"account","type":"address","internalType":"address"}],"outputs":[{"name":"","type":"uint32","internalType":"uint32"}],"stateMutability":"view"},{"type":"function","name":"owner","inputs":[],"outputs":[{"name":"","type":"address","internalType":"address"}],"stateMutability":"view"},{"type":"function","name":"permit","inputs":[{"name":"owner","type":"address","internalType":"address"},{"name":"spender","type":"address","internalType":"address"},{"name":"value","type":"uint256","internalType":"uint256"},{"name":"deadline","type":"uint256","internalType":"uint256"},{"name":"v","type":"uint8","internalType":"uint8"},{"name":"r","type":"bytes32","internalType":"bytes32"},{"name":"s","type":"bytes32","internalType":"bytes32"}],"outputs":[],"stateMutability":"nonpayable"},{"type":"function","name":"renounceOwnership","inputs":[],"outputs":[],"stateMutability":"nonpayable"},{"type":"function","name":"symbol","inputs":[],"outputs":[{"name":"","type":"string","internalType":"string"}],"stateMutability":"view"},{"type":"function","name":"totalSupply","inputs":[],"outputs":[{"name":"","type":"uint256","internalType":"uint256"}],"stateMutability":"view"},{"type":"function","name":"transfer","inputs":[{"name":"to","type":"address","internalType":"address"},{"name":"value","type":"uint256","internalType":"uint256"}],"outputs":[{"name":"","type":"bool","internalType":"bool"}],"stateMutability":"nonpayable"},{"type":"function","name":"transferFrom","inputs":[{"name":"from","type":"address","internalType":"address"},{"name":"to","type":"address","internalType":"address"},{"name":"value","type":"uint256","internalType":"uint256"}],"outputs":[{"name":"","type":"bool","internalType":"bool"}],"stateMutability":"nonpayable"},{"type":"function","name":"transferOwnership","inputs":[{"name":"newOwner","type":"address","internalType":"address"}],"outputs":[],"stateMutability":"nonpayable"},{"type":"event","name":"Approval","inputs":[{"name":"owner","type":"address","indexed":true,"internalType":"address"},{"name":"spender","type":"address","indexed":true,"internalType":"address"},{"name":"value","type":"uint256","indexed":false,"internalType":"uint256"}],"anonymous":false},{"type":"event","name":"DelegateChanged","inputs":[{"name":"delegator","type":"address","indexed":true,"internalType":"address"},{"name":"fromDelegate","type":"address","indexed":true,"internalType":"address"},{"name":"toDelegate","type":"address","indexed":true,"internalType":"address"}],"anonymous":false},{"type":"event","name":"DelegateVotesChanged","inputs":[{"name":"delegate","type":"address","indexed":true,"internalType":"address"},{"name":"previousVotes","type":"uint256","indexed":false,"internalType":"uint256"},{"name":"newVotes","type":"uint256","indexed":false,"internalType":"uint256"}],"anonymous":false},{"type":"event","name":"EIP712DomainChanged","inputs":[],"anonymous":false},{"type":"event","name":"OwnershipTransferred","inputs":[{"name":"previousOwner","type":"address","indexed":true,"internalType":"address"},{"name":"newOwner","type":"address","indexed":true,"internalType":"address"}],"anonymous":false},{"type":"event","name":"Transfer","inputs":[{"name":"from","type":"address","indexed":true,"internalType":"address"},{"name":"to","type":"address","indexed":true,"internalType":"address"},{"name":"value","type":"uint256","indexed":false,"internalType":"uint256"}],"anonymous":false},{"type":"error","name":"CheckpointUnorderedInsertion","inputs":[]},{"type":"error","name":"ECDSAInvalidSignature","inputs":[]},{"type":"error","name":"ECDSAInvalidSignatureLength","inputs":[{"name":"length","type":"uint256","internalType":"uint256"}]},{"type":"error","name":"ECDSAInvalidSignatureS","inputs":[{"name":"s","type":"bytes32","internalType":"bytes32"}]},{"type":"error","name":"ERC20ExceededSafeSupply","inputs":[{"name":"increasedSupply","type":"uint256","internalType":"uint256"},{"name":"cap","type":"uint256","internalType":"uint256"}]},{"type":"error","name":"ERC20InsufficientAllowance","inputs":[{"name":"spender","type":"address","internalType":"address"},{"name":"allowance","type":"uint256","internalType":"uint256"},{"name":"needed","type":"uint256","internalType":"uint256"}]},{"type":"error","name":"ERC20InsufficientBalance","inputs":[{"name":"sender","type":"address","internalType":"address"},{"name":"balance","type":"uint256","internalType":"uint256"},{"name":"needed","type":"uint256","internalType":"uint256"}]},{"type":"error","name":"ERC20InvalidApprover","inputs":[{"name":"approver","type":"address","internalType":"address"}]},{"type":"error","name":"ERC20InvalidReceiver","inputs":[{"name":"receiver","type":"address","internalType":"address"}]},{"type":"error","name":"ERC20InvalidSender","inputs":[{"name":"sender","type":"address","internalType":"address"}]},{"type":"error","name":"ERC20InvalidSpender","inputs":[{"name":"spender","type":"address","internalType":"address"}]},{"type":"error","name":"ERC2612ExpiredSignature","inputs":[{"name":"deadline","type":"uint256","internalType":"uint256"}]},{"type":"error","name":"ERC2612InvalidSigner","inputs":[{"name":"signer","type":"address","internalType":"address"},{"name":"owner","type":"address","internalType":"address"}]},{"type":"error","name":"ERC5805FutureLookup","inputs":[{"name":"timepoint","type":"uint256","internalType":"uint256"},{"name":"clock","type":"uint48","internalType":"uint48"}]},{"type":"error","name":"ERC6372InconsistentClock","inputs":[]},{"type":"error","name":"InvalidAccountNonce","inputs":[{"name":"account","type":"address","internalType":"address"},{"name":"currentNonce","type":"uint256","internalType":"uint256"}]},{"type":"error","name":"InvalidShortString","inputs":[]},{"type":"error","name":"OwnableInvalidOwner","inputs":[{"name":"owner","type":"address","internalType":"address"}]},{"type":"error","name":"OwnableUnauthorizedAccount","inputs":[{"name":"account","type":"address","internalType":"address"}]},{"type":"error","name":"SafeCastOverflowedUintDowncast","inputs":[{"name":"bits","type":"uint8","internalType":"uint8"},{"name":"value","type":"uint256","internalType":"uint256"}]},{"type":"error","name":"StringTooLong","inputs":[{"name":"str","type":"string","internalType":"string"}]},{"type":"error","name":"VotesExpiredSignature","inputs":[{"name":"expiry","type":"uint256","internalType":"uint256"}]}],"bytecode":{"object":"0x61016060405234610098576040612956803803809161001d826100b0565b610160391261009857610160516001600160a01b0381168103610098576101805161004791610166565b604051611bce9081610d488239608051816110a8015260a05181611165015260c05181611072015260e051816110f70152610100518161111d015261012051816107440152610140518161076d0152f35b5f80fd5b634e487b7160e01b5f52604160045260245ffd5b610160601f91909101601f19168101906001600160401b038211908210176100d757604052565b61009c565b601f909101601f19168101906001600160401b038211908210176100d757604052565b6040519061010e6040836100dc565b565b6040519061011f6040836100dc565b60078252565b604051906101346040836100dc565b60018252565b604051906101496040836100dc565b600e82526d53434320476f7665726e616e636560901b6020830152565b9061016f61013a565b9161017861013a565b610180610110565b6629a1a196a3a7ab60c91b6020820152610198610125565b603160f81b60208201908152835190939192916001600160401b0382116100d7576101cd826101c860035461030e565b610346565b602090601f83116001146102875791806102019261020995945f9261027c575b50508160011b915f199060031b1c19161790565b6003556103e5565b6001600160a01b038316156102685761010e94610225846107af565b61022e8161056a565b6101205261023b8261065f565b610140526020815191012060e052519020610100524660a05261025c610751565b6080523060c0526104be565b631e4fbdf760e01b5f90815260045260245ffd5b015190505f806101ed565b60035f52601f19831691907fc2575a0e9e593c00f959f8c92f12db2869c3395a3b0502d05e2516446f71f85b925f5b8181106102f65750916001939185610209979694106102de575b505050811b016003556103e5565b01515f1960f88460031b161c191690555f80806102d0565b929360206001819287860151815501950193016102b6565b90600182811c9216801561033c575b602083101461032857565b634e487b7160e01b5f52602260045260245ffd5b91607f169161031d565b601f8111610352575050565b60035f5260205f20906020601f840160051c8301931061038c575b601f0160051c01905b818110610381575050565b5f8155600101610376565b909150819061036d565b601f82116103a357505050565b5f5260205f20906020601f840160051c830193106103db575b601f0160051c01905b8181106103d0575050565b5f81556001016103c5565b90915081906103bc565b80519091906001600160401b0381116100d75761040e8161040760045461030e565b6004610396565b602092601f82116001146104425761043d929382915f9261027c5750508160011b915f199060031b1c19161790565b600455565b60045f52601f198216937f8a35acfbc15ff81a39ae7d344fd709f28e8600b4aa8c65c6b64bfe7fe36bd19b915f5b8681106104a6575083600195961061048e575b505050811b01600455565b01515f1960f88460031b161c191690555f8080610483565b91926020600181928685015181550194019201610470565b91906001600160a01b038316801561055757600254828101809111610552576002555f81815260208181526040808320805486019055518481527fddf252ad1be2c89b69c2b068fc378daa952ba7f163c4a11628f55a4df523b3ef9190a3600254926001600160d01b0380851161053b575061010e929350610876565b630e58ae9360e11b5f52600485905260245260445ffd5b610862565b63ec442f0560e01b5f525f60045260245ffd5b908151602081105f14610585575090610582906107f7565b90565b6001600160401b0381116100d7576105a9816105a260065461030e565b6006610396565b602092601f82116001146105e0576105d8929382915f9261027c5750508160011b915f199060031b1c19161790565b60065560ff90565b60065f52601f198216937ff652222313e28459528d920b65115c16c04f3efc82aaedc97be59f3f377c0d3f915f5b868110610647575083600195961061062f575b505050811b0160065560ff90565b01515f1960f88460031b161c191690555f8080610621565b9192602060018192868501518155019401920161060e565b908151602081105f14610677575090610582906107f7565b6001600160401b0381116100d75761069b8161069460075461030e565b6007610396565b602092601f82116001146106d2576106ca929382915f9261027c5750508160011b915f199060031b1c19161790565b60075560ff90565b60075f52601f198216937fa66cc928b5edb82af9bd49922954155ab7b0942694bea4ce44661d9a8736c688915f5b8681106107395750836001959610610721575b505050811b0160075560ff90565b01515f1960f88460031b161c191690555f8080610713565b91926020600181928685015181550194019201610700565b60e051610100516040519060208201927f8b73c3c69bb8fe3d512ecc4cf759cc79239f7b179b0ffacaa9a75d522b39400f8452604083015260608201524660808201523060a082015260a081526107a960c0826100dc565b51902090565b600580546001600160a01b039283166001600160a01b0319821681179092559091167f8be0079c531659141344cd1fd0a4f28419497f9722a3daafe3b4186f6b6457e05f80a3565b601f815111610822576020815191015160208210610813571790565b5f198260200360031b1b161790565b604460209160405192839163305a27a960e01b83528160048401528051918291826024860152018484015e5f828201840152601f01601f19168101030190fd5b634e487b7160e01b5f52601160045260245ffd5b9061088081610975565b9165ffffffffffff431161095d57600b548061092757506108ba6108aa61010e945f5b6001610ceb565b65ffffffffffff4316600b610c15565b50506001600160a01b0316801561090f575b60096020527fec8156718a8372b1db44bb411437d0870f3e3790d4a08526d024ce1b0b668f6b545f9182526040909120546001600160a01b039081169116610aa4565b61092061091b83610975565b6109a6565b50506108cc565b92835f1981011161055257600b5f525f5160206129165f395f51905f529093015461010e936108ba916108aa919060301c6108a3565b6306dfcc6560e41b5f5260306004524360245260445ffd5b6001600160d01b03811161098f576001600160d01b031690565b6306dfcc6560e41b5f5260d060045260245260445ffd5b65ffffffffffff431161095d57600b54806109d057506108aa6109cc915f5b6002610ceb565b9091565b805f1981011161055257600b5f525f5160206129165f395f51905f5201546109cc916108aa9160301c6109c5565b65ffffffffffff431161095d57805480610a325750610a226109cc925f6002610ceb565b9065ffffffffffff431690610c15565b805f19810111610552575f82815260209020015f1901546109cc92610a229160301c6109c5565b65ffffffffffff431161095d57805480610a7d5750610a226109cc925f6001610ceb565b805f19810111610552575f82815260209020015f1901546109cc92610a229160301c6108a3565b6001600160a01b03808316939291908116908185141580610b97575b610acc575b5050505050565b81610b3d575b505082610ae1575b8080610ac5565b6001600160a01b03165f908152600a602052604090205f5160206129365f395f51905f5291610b1a91610b149091610975565b90610a59565b604080516001600160d01b039384168152919092166020820152a25f8080610ada565b6001600160a01b03165f908152600a602052604090205f5160206129365f395f51905f5290610b7590610b6f86610975565b906109fe565b604080516001600160d01b039384168152919092166020820152a25f80610ad2565b50831515610ac0565b5f1981019190821161055257565b908154680100000000000000008110156100d75760018101808455811015610c01575f9283526020928390208251929093015160301b65ffffffffffff191665ffffffffffff9290921691909117910155565b634e487b7160e01b5f52603260045260245ffd5b80549293928015610cc157610c2c610c3791610ba0565b825f5260205f200190565b8054603081901c9365ffffffffffff91821692918116808411610cb257879303610c7e5750610c7a92509065ffffffffffff82549181199060301b169116179055565b9190565b915050610c7a91610c9e610c906100ff565b65ffffffffffff9093168352565b6001600160d01b0386166020830152610bae565b632520601d60e01b5f5260045ffd5b5090610ce691610cd2610c906100ff565b6001600160d01b0385166020830152610bae565b5f9190565b91909180600114610d2d57600214610d1157634e487b7160e01b5f52605160045260245ffd5b6001600160d01b03908116918116919091039081116105525790565b506001600160d01b0391821690821601908111610552579056fe60806040526004361015610011575f80fd5b5f3560e01c806306fdde03146101b4578063095ea7b3146101af57806318160ddd146101aa57806323b872dd146101a5578063313ce567146101a05780633644e5151461019b5780633a46b1a8146101965780634bf5d7e914610191578063587cde1e1461018c5780635c19a95c146101875780636fcfff451461018257806370a082311461017d578063715018a6146101785780637ecebe001461017357806384b0196e1461016e5780638da5cb5b146101695780638e539e8c1461016457806391ddadf41461015f57806395d89b411461015a5780639ab24eb014610155578063a9059cbb14610150578063c3cda5201461014b578063d505accf14610146578063dd62ed3e14610141578063f1127ed81461013c5763f2fde38b14610137575f80fd5b610da9565b610cf7565b610ca0565b610b7c565b610a6d565b610a27565b6109e0565b61093b565b610910565b610851565b610829565b61072c565b6106f4565b610699565b610661565b6105ff565b6105db565b61059b565b61050b565b610426565b610404565b6103e9565b610349565b61032c565b6102fb565b6101f1565b805180835260209291819084018484015e5f828201840152601f01601f1916010190565b9060206101ee9281815201906101b9565b90565b346102cb575f3660031901126102cb576040515f60035461021181610e43565b80845290600181169081156102a75750600114610249575b6102458361023981850382610f31565b604051918291826101dd565b0390f35b60035f9081527fc2575a0e9e593c00f959f8c92f12db2869c3395a3b0502d05e2516446f71f85b939250905b80821061028d57509091508101602001610239610229565b919260018160209254838588010152019101909291610275565b60ff191660208086019190915291151560051b840190910191506102399050610229565b5f80fd5b600435906001600160a01b03821682036102cb57565b602435906001600160a01b03821682036102cb57565b346102cb5760403660031901126102cb576103216103176102cf565b60243590336112e7565b602060405160018152f35b346102cb575f3660031901126102cb576020600254604051908152f35b346102cb5760603660031901126102cb576103626102cf565b61036a6102e5565b6001600160a01b0382165f9081526001602090815260408083203384529091529020549160443591905f1984106103b2575b6103a69350610f7c565b60405160018152602090f35b8284106103ce576103c9836103a695033383611382565b61039c565b8284637dc7a0d960e11b5f523360045260245260445260645ffd5b346102cb575f3660031901126102cb57602060405160128152f35b346102cb575f3660031901126102cb57602061041e61106f565b604051908152f35b346102cb5760403660031901126102cb5761043f6102cf565b6001600160a01b03165f908152600a6020526040902061046060243561118b565b8154905f8291600584116104b3575b61047a935084611573565b908161049857505060205f5b6040516001600160d01b039091168152f35b6104a36020926111c4565b905f52815f20015460301c610486565b91926104be81611415565b81039081116105065761047a93855f5265ffffffffffff8260205f2001541665ffffffffffff8516105f146104f457509161046f565b929150610500906111d2565b9061046f565b610e2f565b346102cb575f3660031901126102cb57610524436113c8565b65ffffffffffff80610535436113c8565b1691160361058c5761024560405161054e604082610f31565b601d81527f6d6f64653d626c6f636b6e756d6265722666726f6d3d64656661756c7400000060208201526040519182916020835260208301906101b9565b6301bfc1c560e61b5f5260045ffd5b346102cb5760203660031901126102cb576001600160a01b036105bc6102cf565b165f526009602052602060018060a01b0360405f205416604051908152f35b346102cb5760203660031901126102cb576105fd6105f76102cf565b336111e0565b005b346102cb5760203660031901126102cb576001600160a01b036106206102cf565b165f52600a60205260405f205463ffffffff811161064a5760405163ffffffff9091168152602090f35b6306dfcc6560e41b5f52602060045260245260445ffd5b346102cb5760203660031901126102cb57602061041e61067f6102cf565b6001600160a01b03165f9081526020819052604090205490565b346102cb575f3660031901126102cb576106b1611261565b600580546001600160a01b031981169091555f906001600160a01b03167f8be0079c531659141344cd1fd0a4f28419497f9722a3daafe3b4186f6b6457e08280a3005b346102cb5760203660031901126102cb576001600160a01b036107156102cf565b165f526008602052602060405f2054604051908152f35b346102cb575f3660031901126102cb576107d06107687f00000000000000000000000000000000000000000000000000000000000000006116f9565b6107917f0000000000000000000000000000000000000000000000000000000000000000611759565b60206040516107a08282610f31565b5f8152816107de81830194601f198301368737604051978897600f60f81b895260e0858a015260e08901906101b9565b9087820360408901526101b9565b914660608701523060808701525f60a087015285830360c087015251918281520192915f5b82811061081257505050500390f35b835185528695509381019392810192600101610803565b346102cb575f3660031901126102cb576005546040516001600160a01b039091168152602090f35b346102cb5760203660031901126102cb5761086d60043561118b565b600b54905f8291600584116108bc575b6108899350600b611573565b8061089a57506040515f8152602090f35b6108b76108a86020926111c4565b600b5f52825f20015460301c90565b610486565b91926108c781611415565b81039081116105065761088993600b5f5265ffffffffffff8260205f2001541665ffffffffffff8516105f146108fe57509161087d565b92915061090a906111d2565b9061087d565b346102cb575f3660031901126102cb57602061092b436113c8565b65ffffffffffff60405191168152f35b346102cb575f3660031901126102cb576040515f60045461095b81610e43565b80845290600181169081156102a75750600114610982576102458361023981850382610f31565b60045f9081527f8a35acfbc15ff81a39ae7d344fd709f28e8600b4aa8c65c6b64bfe7fe36bd19b939250905b8082106109c657509091508101602001610239610229565b9192600181602092548385880101520191019092916109ae565b346102cb5760203660031901126102cb576001600160a01b03610a016102cf565b165f52600a602052602060018060d01b03610a1e60405f20611288565b16604051908152f35b346102cb5760403660031901126102cb57610321610a436102cf565b6024359033610f7c565b6064359060ff821682036102cb57565b6084359060ff821682036102cb57565b346102cb5760c03660031901126102cb57610a866102cf565b60243590604435610a95610a4d565b6084359060a43592804211610b6a5791610b1a9391610b0c610b119460405160208101917fe48329057bfd03d55e49b547132e39cffd9c1820ad7b9d4c5307691425d15adf835260018060a01b038a1660408301528a6060830152608082015260808152610b0460a082610f31565b5190206112b2565b611790565b9092919261183b565b6001600160a01b0381165f908152600860205260409020805460018101909155809303610b4b576105fd92506111e0565b90506301d4b62360e61b5f5260018060a01b031660045260245260445ffd5b632341d78760e11b5f5260045260245ffd5b346102cb5760e03660031901126102cb57610b956102cf565b610b9d6102e5565b6044359060643592610bad610a5d565b60a43560c43590864211610c8d576001600160a01b0384165f908152600860205260409020805460018101909155610c529390610c4d909860405160208101917f6e71edae12b1b97f4d1f60370fef10105fa2faae0126114a169c64845d6126c9835260018060a01b0389169b8c604084015260018060a01b038b1660608401528b608084015260a083015260c082015260c08152610b0460e082610f31565b6112d8565b936001600160a01b03851603610c6c576105fd93506112e7565b6325c0072360e11b5f526001600160a01b038085166004521660245260445ffd5b8663313c898160e11b5f5260045260245ffd5b346102cb5760403660031901126102cb576020610cee610cbe6102cf565b610cc66102e5565b6001600160a01b039182165f9081526001855260408082209290931681526020919091522090565b54604051908152f35b346102cb5760403660031901126102cb57610d106102cf565b6024359063ffffffff821682036102cb5761024591610d5f91610d31610f64565b50610d3a610f64565b506001600160a01b03165f908152600a60205260409020610d59610f64565b506118b7565b5060405190610d6d82610f10565b5465ffffffffffff811680835260309190911c60209283019081526040805192835290516001600160d01b031692820192909252918291820190565b346102cb5760203660031901126102cb57610dc26102cf565b610dca611261565b6001600160a01b03168015610e1c57600580546001600160a01b0319811683179091556001600160a01b03167f8be0079c531659141344cd1fd0a4f28419497f9722a3daafe3b4186f6b6457e05f80a3005b631e4fbdf760e01b5f525f60045260245ffd5b634e487b7160e01b5f52601160045260245ffd5b90600182811c92168015610e71575b6020831014610e5d57565b634e487b7160e01b5f52602260045260245ffd5b91607f1691610e52565b5f9291815491610e8a83610e43565b8083529260018116908115610edf5750600114610ea657505050565b5f9081526020812093945091925b838310610ec5575060209250010190565b600181602092949394548385870101520191019190610eb4565b915050602093945060ff929192191683830152151560051b010190565b634e487b7160e01b5f52604160045260245ffd5b6040810190811067ffffffffffffffff821117610f2c57604052565b610efc565b90601f8019910116810190811067ffffffffffffffff821117610f2c57604052565b60405190610f62604083610f31565b565b60405190610f7182610f10565b5f6020838281520152565b6001600160a01b03811693929190841561105c576001600160a01b0382168015611049576001600160a01b0382165f9081526020819052604090205484811061102e579584610f62969703610fe08460018060a01b03165f525f60205260405f2090565b556001600160a01b0384165f908152602081815260409182902080548801905590518681527fddf252ad1be2c89b69c2b068fc378daa952ba7f163c4a11628f55a4df523b3ef9190a36119b2565b84908763391434e360e21b5f5260045260245260445260645ffd5b63ec442f0560e01b5f525f60045260245ffd5b634b637e8f60e11b5f525f60045260245ffd5b307f00000000000000000000000000000000000000000000000000000000000000006001600160a01b03161480611162575b156110ca577f000000000000000000000000000000000000000000000000000000000000000090565b60405160208101907f8b73c3c69bb8fe3d512ecc4cf759cc79239f7b179b0ffacaa9a75d522b39400f82527f000000000000000000000000000000000000000000000000000000000000000060408201527f000000000000000000000000000000000000000000000000000000000000000060608201524660808201523060a082015260a0815261115c60c082610f31565b51902090565b507f000000000000000000000000000000000000000000000000000000000000000046146110a1565b65ffffffffffff61119b436113c8565b16808210156111ae57506101ee906113c8565b90637669fc0f60e11b5f5260045260245260445ffd5b5f1981019190821161050657565b906001820180921161050657565b6001600160a01b038181165f81815260096020526040812080548685166001600160a01b031982168117909255610f629694169461125b9390928691907f3134e8a2e6d97e929a7e54011ea5485d7d196dd5f0ba4d4ef95803e8e3fc257f9080a46001600160a01b03165f9081526020819052604090205490565b916115d7565b6005546001600160a01b0316330361127557565b63118cdaa760e01b5f523360045260245ffd5b805490816112965750505f90565b815f19810111610506575f525f199060205f2001015460301c90565b6042906112bd61106f565b906040519161190160f01b8352600283015260228201522090565b916101ee9391610b1193611790565b6001600160a01b031690811561136f576001600160a01b03811692831561135c578061134f7f8c5be1e5ebec7d5bd14f71427d1e84f3dd0314c0f7b2291e5b200ac8c7c3b92593855f52600160205260405f209060018060a01b03165f5260205260405f2090565b55604051908152602090a3565b634a1406b160e11b5f525f60045260245ffd5b63e602df0560e01b5f525f60045260245ffd5b6001600160a01b031690811561136f576001600160a01b0381161561135c576113c5915f52600160205260405f209060018060a01b03165f5260205260405f2090565b55565b65ffffffffffff81116113e05765ffffffffffff1690565b6306dfcc6560e41b5f52603060045260245260445ffd5b8115611401570490565b634e487b7160e01b5f52601260045260245ffd5b60018111156101ee57806001600160801b821015611536575b6114dc6114d26114c86114be6114b46114aa6114996114e39760048a600160401b6114e89c1015611529575b64010000000081101561151c575b6201000081101561150f575b610100811015611502575b60108110156114f5575b10156114ed575b60030260011c90565b6114a3818b6113f7565b0160011c90565b6114a3818a6113f7565b6114a381896113f7565b6114a381886113f7565b6114a381876113f7565b6114a381866113f7565b80936113f7565b821190565b900390565b60011b611490565b60041c9160021b91611489565b60081c9160041b9161147f565b60101c9160081b91611474565b60201c9160101b91611468565b60401c9160201b9161145a565b50506114e86114e36114dc6114d26114c86114be6114b46114aa61149961155d8a60801c90565b9850600160401b975061142e9650505050505050565b91905b8382106115835750505090565b9091928083169080841860011c820180921161050657845f5265ffffffffffff8260205f2001541665ffffffffffff8416105f146115c55750925b9190611576565b9392506115d1906111d2565b916115be565b6001600160a01b038083169392919081169081851415806116f0575b6115ff575b5050505050565b81611683575b505082611614575b80806115f8565b6001600160a01b03165f908152600a602052604090207fdec2bacdd2f05b59de34da9b523dff8be42e5e38e818c82fdb0bae774387a724916116609161165a90916118e0565b90611949565b604080516001600160d01b039384168152919092166020820152a25f808061160d565b6001600160a01b03165f908152600a602052604090207fdec2bacdd2f05b59de34da9b523dff8be42e5e38e818c82fdb0bae774387a724906116ce906116c8866118e0565b90611911565b604080516001600160d01b039384168152919092166020820152a25f80611605565b508315156115f3565b60ff811461173f5760ff811690601f8211611730576040519161171d604084610f31565b6020808452838101919036833783525290565b632cd44ac360e21b5f5260045ffd5b506040516101ee81611752816006610e7b565b0382610f31565b60ff811461177d5760ff811690601f8211611730576040519161171d604084610f31565b506040516101ee81611752816007610e7b565b91907f7fffffffffffffffffffffffffffffff5d576e7357a4501ddfe92f46681b20a08411611812579160209360809260ff5f9560405194855216868401526040830152606082015282805260015afa15611807575f516001600160a01b038116156117fd57905f905f90565b505f906001905f90565b6040513d5f823e3d90fd5b5050505f9160039190565b6004111561182757565b634e487b7160e01b5f52602160045260245ffd5b6118448161181d565b8061184d575050565b6118568161181d565b6001810361186d5763f645eedf60e01b5f5260045ffd5b6118768161181d565b60028103611891575063fce698f760e01b5f5260045260245ffd5b8061189d60039261181d565b146118a55750565b6335e2f38360e21b5f5260045260245ffd5b80548210156118cc575f5260205f2001905f90565b634e487b7160e01b5f52603260045260245ffd5b6001600160d01b0381116118fa576001600160d01b031690565b6306dfcc6560e41b5f5260d060045260245260445ffd5b9061191b436113c8565b9061192583611288565b6001600160d01b0391821690821603919082116105065761194592611ac2565b9091565b90611953436113c8565b9061195d83611288565b6001600160d01b0391821690821601919082116105065761194592611ac2565b611986436113c8565b90611991600b611288565b6001600160d01b03918216908216039081116105065761194591600b611ac2565b9091906001600160a01b03168015611a19575b610f62926001600160a01b0316908115611a01575b5f90815260096020526040808220549282529020546001600160a01b0390811691166115d7565b611a12611a0d846118e0565b61197d565b50506119da565b611a22826118e0565b92611a2c436113c8565b93611a37600b611288565b6001600160d01b03918216908216019490851161050657610f6294611a5d91600b611ac2565b90505092506119c5565b8054600160401b811015610f2c57611a84916001820181556118b7565b611aaf57815160209092015160301b65ffffffffffff191665ffffffffffff92909216919091179055565b634e487b7160e01b5f525f60045260245ffd5b80549293928015611b6e57611ad9611ae4916111c4565b825f5260205f200190565b8054603081901c9365ffffffffffff91821692918116808411611b5f57879303611b2b5750611b2792509065ffffffffffff82549181199060301b169116179055565b9190565b915050611b2791611b4b611b3d610f53565b65ffffffffffff9093168352565b6001600160d01b0386166020830152611a67565b632520601d60e01b5f5260045ffd5b5090611b9391611b7f611b3d610f53565b6001600160d01b0385166020830152611a67565b5f919056fea2646970667358221220318c92fc272aa3994d4649607a8f892b1858e91759a16f0b3d154ae15a1c840364736f6c634300081e00330175b7a638427703f0dbe7bb9bbf987a2551717b34e79f33b5b1008d1fa01db8dec2bacdd2f05b59de34da9b523dff8be42e5e38e818c82fdb0bae774387a724","linkReferences":{}},"methodIdentifiers":{"CLOCK_MODE()":"4bf5d7e9","DOMAIN_SEPARATOR()":"3644e515","allowance(address,address)":"dd62ed3e","approve(address,uint256)":"095ea7b3","balanceOf(address)":"70a08231","checkpoints(address,uint32)":"f1127ed8","clock()":"91ddadf4","decimals()":"313ce567","delegate(address)":"5c19a95c","delegateBySig(address,uint256,uint256,uint8,bytes32,bytes32)":"c3cda520","delegates(address)":"587cde1e","eip712Domain()":"84b0196e","getPastTotalSupply(uint256)":"8e539e8c","getPastVotes(address,uint256)":"3a46b1a8","getVotes(address)":"9ab24eb0","name()":"06fdde03","nonces(address)":"7ecebe00","numCheckpoints(address)":"6fcfff45","owner()":"8da5cb5b","permit(address,address,uint256,uint256,uint8,bytes32,bytes32)":"d505accf","renounceOwnership()":"715018a6","symbol()":"95d89b41","totalSupply()":"18160ddd","transfer(address,uint256)":"a9059cbb","transferFrom(address,address,uint256)":"23b872dd","transferOwnership(address)":"f2fde38b"},"id":87}